:100000000C9436060C947D060C947D060C94EE0739
:100010000C947D060C947D060C947D060C947D0654
:100020000C947D060C947D060C94B32B0C94852CBB
:100030000C94BE260C947D060C947D060C947D06D3
:100040000C947D060C947D060C947D060C947D0624
:100050000C947D060C9426270C947D060C947D064A
:100060000C947D060C947D060C947D060C947D0604
:100070000C947D060C947D060C947D060C947D06F4
:100080000C947D060C947D060C947D060C947D06E4
:100090000C94D7060C947D060C947D060C947D067A
:1000A0000C947D060C947D060C947D06B711B91155
:1000B000C411BB11BD11BF11C111C311C611C811AB
:1000C000CA11D511CC11CE11D011D211D411D71122
:1000D000B51DB51DE71DE71D531F531F531F531FAC
:1000E000271E531FD41ED41E431F531F531F4C1FC4
:1000F000E11EE11EE11EE11EE11EE11EE11EE11E08
:10010000E11EE11EE11EE11EE11EE11EE11EE11EF7
:10011000F01EFE1E051F0C1F161FD61FD61FE81F40
:10012000E81FDF1FE81FE81FE81FD61FD61FE41FC8
:10013000E81FE81FE41FF22C192D0B2E192D0B2E92
:10014000652D882D0B2EDE2DED2D07634236B79BD6
:10015000D8A71A39685618AEBAAB558C1D3CB7CC27
:100160005763BD6DEDFD753EF6177231BF0000009F
:10017000803F05A84CCDB2D44EB93836A9020C50F8
:10018000B9918688083CA6AAAA2ABE000000803F32
:100190000000000000003E5B4F5B3E003E6B4F6B7B
:1001A0003E001C3E7C3E1C00183C7E3C18001C5748
:1001B0007D571C001C5E7F5E1C0000183C18000070
:1001C000FFE7C3E7FF00001824180000FFE7DBE7A4
:1001D000FF0030483A060E00262979292600407F84
:1001E00005050700407F05253F005A3CE73C5A00C3
:1001F0007F3E1C1C0800081C1C3E7F0014227F222E
:1002000014005F5F005F5F0006097F017F000066EA
:1002100089956A0060606060600094A2FFA294000B
:1002200008047E04080010207E20100008082A1C04
:100230000800081C2A0808001E10101010000C1ED0
:100240000C1E0C0030383E383000060E3E0E060004
:1002500000000000000000005F0000000007000731
:100260000000147F147F1400242A7F2A1200231315
:100270000864620036495620500000080703000059
:10028000001C224100000041221C00002A1C7F1C8F
:100290002A0008083E0808000080703000000808A6
:1002A0000808080000006060000020100804020038
:1002B0003E5149453E0000427F4000007249494995
:1002C00046002141494D33001814127F1000274584
:1002D000454539003C4A494931004121110907008F
:1002E000364949493600464949291E000000140094
:1002F00000000040340000000008142241001414E3
:1003000014141400004122140800020159090600C7
:100310003E415D594E007C1211127C007F494949D3
:1003200036003E41414122007F4141413E007F492C
:10033000494941007F09090901003E4141517300CB
:100340007F0808087F0000417F4100002040413FB6
:1003500001007F08142241007F40404040007F029E
:100360001C027F007F0408107F003E4141413E0097
:100370007F09090906003E4151215E007F091929C4
:10038000460026494949320003017F0103003F40EE
:1003900040403F001F2040201F003F4038403F00AA
:1003A0006314081463000304780403006159494D81
:1003B0004300007F41414100020408102000004139
:1003C00041417F00040201020400404040404000DF
:1003D0000003070800002054547840007F2844445C
:1003E0003800384444442800384444287F003854B6
:1003F0005454180000087E09020018A4A49C780038
:100400007F080404780000447D4000002040403D07
:1004100000007F102844000000417F4000007C0461
:10042000780478007C080404780038444444380098
:10043000FC182424180018242418FC007C08040448
:10044000080048545454240004043F4424003C4011
:1004500040207C001C2040201C003C4030403C00E0
:100460004428102844004C9090907C004464544CE4
:100470004400000836410000000077000000004101
:10048000360800000201020402003C2623263C003C
:1004900003071F7FFFFFFEF8F0C020F8FEFFFE7984
:1004A000271F7FFFFFFEF8F0C020F8FEFFFF7F3F11
:1004B0003F7FFFFEF8F0C000000000FFFFFFFFFFDE
:1004C000FF00000000000000FF7F7F7FBFBFC0C0B3
:1004D000C0E0E0E0E0F0F0F0F878787C3C3CFEFE34
:1004E000FEFFFFFF00000000000000000000808011
:1004F000BFBFDFDFEFEF0003071F7FFFFFFFFEF847
:10050000E0C0E0F8FEFFFFFF7F1F07030000E0F000
:10051000F0F0E0ECEEF7F37020007C7C7C7E007E57
:100520007E7E7F7F7F000080C0E07E5B4F5BFEC0F1
:100530000000C000DCD7DEDEDED7DC00C00000003B
:1005400000000000000000000000000000000000AB
:1005500000000000C1F3CFBF7FFFFFFCFBE781007D
:1005600000000080E3CF3FFFFFFFFCFBE7810000BE
:10057000000081E7FFFFFFFF3C0000FFFFFFFFFFE0
:10058000FFF8F8FC7C7E7E3EFEFFFFFFFFFFF7F7E3
:10059000F7FBFB7D7D7DBEBEBEDFDFE0E000FFFF41
:1005A000FFFFFFFF00FCFC7C7E7E3E3E1F1F1F0FF7
:1005B000FFFFFFFFFFFF000000000081E7FFFFFFDC
:1005C000FFFFFFFFFFFFE7810000000000000F1F9B
:1005D0003F7F7F7F7F7F3F1E0C001F1F1F3F003F1D
:1005E0003F3F7F7F7F00307B7F7830202030787FD7
:1005F0003B0003000F7F0F0F0F7F0F000300000071
:1006000000000000000000000000000000000000EA
:1006100060707C7F7F7F7F1F0601030F3F7F7F7E9F
:100620007C7C7E7F7F7F1F0601070F3F7F7F7E7C64
:100630007C7E7F7F3F0F03000000007F7F7F7F7FF6
:100640007F000000000000007F7F7F7F7F7F7D7D37
:100650003D3E1E1F1F1F0F0F0707070303007F7F6D
:100660007F7F7F7F7C7C7C7C7C7C7C7C7C7C7C003A
:100670007F7F7F7F7F7F004070787E7F7F7F3F0F0F
:100680000301030F3F7F7F7F7E78704000000000F2
:10069000000000000000000000000000000000005A
:1006A000000000000000000000000000000000004A
:1006B000000000000000000000000000000000003A
:1006C000000000000000000000000000000000002A
:1006D00041646A757374004C6F776572005261698A
:1006E00073650044656661756C74000A4C617965D8
:1006F000723A20000A000A0002E26003E20002E20D
:100700006003E2002B0014001A0008001500170017
:100710000000E00004001600070009000A000000C5
:10072000E1001D001B000600190005000000E05C50
:100730002900E200E300E25CDE5C2C002A001300EA
:1007400012000C0018001C000000340033000F00E1
:100750000E000D000B0000002800380037003600A6
:100760001000110000004F00520051005000E35CE7
:10077000DF5C2C002B0014001A00090013000A0093
:100780000000E0000400150016001700070000003C
:10079000E1001D001B000600190005000000E05CE0
:1007A0002900E200E300E25CDE5C2C002A0033005A
:1007B0001C0018000F000D000000340012000C0097
:1007C000080011000B000000280038003700360038
:1007D00010000E0000004F00520051005000E35C7A
:1007E000DF5C2C002B0034003600370013001C00A7
:1007F0000000E00004001200080018000C000000D7
:10080000E100330014000D000E001B000000E05C4E
:100810002900E200E300E25CDE5C2C004C000F00EB
:10082000150006000A00090000003800160011003B
:1008300017000B000700000028001D0019001A0017
:100840001000050000004F00520051005000E35C12
:10085000DF5C2C0035021E021F0220022102220250
:10086000000001003A003B003C003D003E0000005B
:10087000010040004100420043004400000001002C
:100880000100010001000100010001000100270238
:1008900026022502240223020000310230022F0228
:1008A0002E022D023F00000001004D004A00010011
:1008B000010045000000AE00A900AA00AB00010045
:1008C0000100010035001E001F0020002100220051
:1008D000000001003A003B003C003D003E000000EB
:1008E00001004000410042004300440000000100BC
:1008F0000100010001000100010001004C0027007F
:1009000026002500240023000000310030002F00C5
:100910002E002D003F00000001004B004E000100A2
:10092000010045000000AE00A900AA00AB000100D4
:10093000010001000100005C010001000100010054
:1009400000000100010001001D5C1E5C135C000042
:100950000100010001000100010001000000010090
:100960000100010001000100010001004C00010034
:100970000100010001000100000001000100DD5C38
:10098000DC5CDB5C0A5C0000C75CC55CC35CC05C13
:10099000010001000000C85CC65CC45CC15C0100D1
:1009A0000100010000000000000000002A2B2800C8
:1009B000000000000000000000000000000000290E
:1009C000000000002C1E3420212224342627252E4E
:1009D000362D3738271E1F20212223242526333386
:1009E000362E37381F0405060708090A0B0C0D0EB2
:1009F0000F101112131415161718191A1B1C1D2F7E
:100A00003130232D350405060708090A0B0C0D0E9D
:100A10000F101112131415161718191A1B1C1D2F5D
:100A20003130354C000000000000000000000000E4
:100A300000000000000000000000000000000000B6
:100A4000000000000001010101010100010101019C
:100A50000000000000000000000000000000010095
:100A60000100010101010101010101010101010177
:100A70000101010101010101010101010101010067
:100A80000000010100000000000000000000000064
:100A90000000000000000000000000000000000155
:100AA0000101010000047F3F1F6432146432147896
:100AB0003C1E1E140A056801F000B40078005A00BC
:100AC0000000000000010101010101010101020219
:100AD00002020202020202030303030303030304EC
:100AE00004040404040505050505060606060607B4
:100AF000070707080808080909090A0A0A0A0B0B68
:100B00000B0C0C0C0D0D0D0E0E0F0F0F1010111104
:100B10001112121313141415151616171718181985
:100B2000191A1A1B1C1C1D1D1E1F1F2020212222EA
:100B30002324252526272728292A2B2B2C2D2E2F29
:100B40002F30313233343536363738393A3B3C3D45
:100B50003E3F4041424344464748494A4B4C4D4F33
:100B600050515253555657585A5B5C5E5F606263F2
:100B7000646667696A6C6D6E707173747678797B80
:100B80007C7E8081838486888A8B8D8F91929496D7
:100B9000989A9B9D9FA1A3A5A7A9ABADAFB1B3B5F3
:100BA000B7B9BBBDBFC1C4C6C8CACCCFD1D3D6D8D4
:100BB000DADCDFE1E4E6E8EBEDF0F2F5F7FAFCFF72
:100BC0000403300000001603480065006C00690053
:100BD00078002000420065007400610000001403EA
:100BE000590075007300680061006B006F006200BF
:100BF0006F0000000403090409022200010100A0A3
:100C0000C8090400000103010100092111010001CC
:100C10002240000705810308000A120110010000AC
:100C20000008EDFE60300100010203010501090624
:100C3000A101050719E029E71500250195087501AF
:100C4000810295017508810105081901290595059D
:100C5000750191029501750391010507190029FF9E
:100C6000150026FF00950675088100C011241FBEDF
:100C7000CFEFDAE0DEBFCDBF04B603FE27C0809120
:100C8000640390916503A0916603B0916703873078
:100C9000904BA740B04BD1F41092640310926503BF
:100CA000109266031092670314BE84B7877F84BFD7
:100CB0000FB6F894A89580916000886180936000D9
:100CC000109260000FBEE0E0F8E3099511E0A0E0AB
:100CD000B1E0E2E4FAE602C005900D92A03CB10753
:100CE000D9F723E0A0ECB1E001C01D92A436B20711
:100CF000E1F70E94E8280C941F350C94000083E370
:100D000090E02091BC0027FD02C00197D1F7089523
:100D10001092B9008CE08093B8000895CF93DF93D0
:100D20001F92CDB7DEB794EA9093BC0089830E94EE
:100D30007F069091B900987F8981983039F0909121
:100D4000B900987F903111F081E012C08093BB0010
:100D500084E88093BC000E947F068091B900887F60
:100D6000883129F08091B900887F803469F780E06C
:100D70000F90DF91CF91089584E98093BC0083E3C5
:100D800090E02091BC0024FD02C00197D1F70895A6
:100D90008093BB0084E88093BC000E947F06909102
:100DA000B900987F81E0983209F480E008951F929D
:100DB0000F920FB60F9211248F939F93EF93FF938F
:100DC0008091B900887F803869F038F48823C9F1B0
:100DD0008036C9F51092C00136C0883A09F1883BC7
:100DE000F9F031C08091C001811111C08091BB0028
:100DF0008093C1018091C101803120F01092C10126
:100E000080E001C081E091E09093C0011DC0E091BD
:100E1000C101F0E08091BB00E856FD4F808308C01F
:100E2000E091C101F0E0E856FD4F80818093BB0066
:100E30008091C10190E001968F7099278093C10144
:100E400002C01092BC0081E09091BC009568829530
:100E5000880F880F807C892B8093BC00FF91EF91D5
:100E60009F918F910F900FBE0F901F9018955A98D9
:100E700080E28A95F1F75A9A0895FC014AE04A9572
:100E8000F1F730E090E080E021E0961779F040E162
:100E90004A95F1F7880F4A9B02C08160322700C053
:100EA000000040E14A95F1F79F5FEFCF90E19A95FE
:100EB000F1F729B100C0000040E14A95F1F722FBAB
:100EC000992790F993272081920F908308958EE1BE
:100ED0004A9B02C08150E1F74A9BFECF0895EF92F2
:100EE000FF920F931F93CF93DF931F92CDB7DEB77F
:100EF000F62E1982E82E8C01802F8E198F1558F44A
:100F00000E94670768E0CE0101960E943D07F80144
:100F100081938F01F1CF81E09981911180E00F9051
:100F2000DF91CF911F910F91FF90EF9008959093D3
:100F3000C3018093C201529A5A9A08959093C301B3
:100F40008093C20152985A9AEA9AE9E6F0E08081C9
:100F50008F7C80830895615091E001C0990F6A955C
:100F6000EAF720E031E0992361F0492F482319F096
:100F70005A9A232701C05A9840E24A95F1F796956C
:100F8000F2CF222311F05A9A01C05A9880E28A9532
:100F9000F1F75A980895EF92FF920F931F93CF9312
:100FA000DF931F92CDB7DEB7162F082F7C018E2D51
:100FB000801B811758F4F70181917F0189830E947A
:100FC000370768E089810E94AB07F1CF0F90DF916E
:100FD000CF911F910F91FF90EF9008951F920F9264
:100FE0000FB60F9211240F931F932F933F934F939C
:100FF0005F936F937F938F939F93AF93BF93EF9381
:10100000FF93CF93DF931F92CDB7DEB719820E9473
:10101000670764E0CE0101960E943D079981911116
:1010200040C090E19A95F1F75A9A529AA2E0AA9597
:10103000F1F700C00091C2011091C301B8E08B9F8D
:10104000000D111D11245A98F8016581662321F0C5
:10105000868197810E94CB070E943707F0E1FA95BD
:10106000F1F75A9852985A9A80E18A95F1F7D80187
:1010700012966C911297662369F013968D919C914C
:1010800014970E946F07D801ED91FC91811105C062
:1010900082E004C0D801ED91FC9184E080830E943D
:1010A00067070F90DF91CF91FF91EF91BF91AF91C3
:1010B0009F918F917F916F915F914F913F912F9170
:1010C0001F910F910F900FBE0F901F9018950F93C7
:1010D0001F93CF93DF938C019C0183E0220F331F7A
:1010E0008A95E1F7C091C201D091C301C20FD31F0D
:1010F000F894529A5A9885E08A95F1F700000E9478
:10110000370784E08A95F1F700C064E0802F0E94E1
:10111000AB0780E18A95F1F752985A9A4A9902C032
:1011200000C0FCCF87E090E04A9B0EC0019751F4CD
:10113000529A5A9AE881F98181E08083789481E01B
:1011400090E02EC000C0F0CF6D81662381F08E81CB
:101150009F810E946F0781110AC0529A5A9AE881B2
:10116000F98182E08083789482E090E019C00E9447
:10117000670780E28A95F1F75A98529A80E18A953A
:10118000F1F76A81662321F08B819C810E94CB0755
:101190000E943707E881F9811082789480E090E01E
:1011A000DF91CF911F910F910895CF93C82F88E7BA
:1011B0000E948E0681110AC080E00E94C80681113B
:1011C00005C08C2F0E94C806C1E08111C0E00E94BA
:1011D000BC068C2FCF910895CF93DF931F92CDB78C
:1011E000DEB769830E94D5086981882331F0862F94
:1011F0000F90DF91CF910C94D50880E00F90DF9194
:10120000CF910895CF93C62F0E94D508882349F027
:1012100080E00E94D508882321F08C2FCF910C9478
:10122000D50880E0CF9108958FEA0C94D5080F93EC
:101230001F93CF93DF938C010C5A1F4FD801ED9170
:10124000FC91119760832D913C9111972F5F3F4F37
:101250002D933C93281B390B24353105B9F4EC014F
:10126000BC016B5E7F4F4FE350E00E94D031CE0156
:10127000CF96F8019183808345E150E060E270E011
:10128000DF91CF911F910F910C94E231DF91CF91BB
:101290001F910F9108951F93CF93DF93FC01EA5A9A
:1012A000FF4F21E020836A3099F4EC01329780816E
:1012B00091818C1B9D0B65E170E00E949C31182F81
:1012C000153158F460E2CE010E9417091F5FF8CF74
:1012D000DF91CF911F910C941709DF91CF911F914E
:1012E0000895EF92FF920F931F93CF93DF937C01AA
:1012F000EB01FB0101900020E9F78F01015011097A
:10130000C017D10728F46991C7010E944B09F8CF93
:10131000DF91CF911F910F91FF90EF9008950F9360
:101320001F93CF93DF938C01EB01FE016491662341
:1013300029F0C8010E944B092196F7CFDF91CF9188
:101340001F910F910895CF93DF93EC0144E550E096
:1013500060E270E00E94E231FE01EC5AFF4FD1835F
:10136000C083CA5ADF4F81E08883DF91CF9108950F
:101370008F929F92AF92BF92DF92EF92FF920F9364
:101380001F93CF93DF93EC010E94F0269093C50149
:101390008093C4010E94140963E082E20E94020962
:1013A000882309F43CC06DE781E20E94020988238A
:1013B000B1F188E70E948E06811131C080E40E945D
:1013C000C80681112CC04E0184E0D82E00E010E048
:1013D000F401E00FF11FA08086E0A89E50011124C7
:1013E000E12CF12CF701EA0DFB1DE057FE4F849133
:1013F0000E94C8068FEFE81AF80A86E0E816F104A2
:1014000089F70F5F1F4F0531110511F7DA9485E158
:10141000880E911CD110DACFCA5ADF4F1882DF91A3
:10142000CF911F910F91FF90EF90DF90BF90AF9001
:101430009F908F900C94BC0688EA92E00C94B809B7
:10144000CF93DF93C82F0E9488068EEA0E94D508AA
:10145000811102C080E09BC060E885ED0E94EC082D
:101460008823C1F36FE188EA0E94EC08882391F396
:1014700060E083ED0E94EC08882361F380E40E9421
:10148000D508882339F364E18DE80E94EC088823AD
:1014900009F360E080E20E94EC088823D9F2CC23B3
:1014A00039F080EA0E94D5088823A1F280EC06C0BA
:1014B00081EA0E94D508882369F288EC0E94D50849
:1014C000882341F262E08AED0E94EC08882311F241
:1014D0006FE881E80E94EC08882309F4BBCF61EF34
:1014E00089ED0E94EC08882309F4B4CF60E48BED09
:1014F0000E94EC08882309F4ADCF84EA0E94D50845
:10150000882309F4A7CF86EA0E94D508882309F426
:10151000A1CF8EE20E94D508882309F49BCF8FEAE1
:101520000E94D508882309F495CF60E081E80E94E5
:10153000EC08882309F48ECF88EA92E00E94A30980
:1015400063E082E20E9402098823E1F06FE781E212
:101550000E9402098823B1F088E70E948E0681115B
:1015600011C080E40E94C80681110CC0D4E0C0E024
:1015700080E00E94C806CF5FC038D1F7D150B9F7DC
:101580001092FE020E94BC060E941C0A81E0DF91BC
:10159000CF9108950E94410F8091FE0281110E9417
:1015A0001C0A8091C4019091C5010C94FC26A8E806
:1015B000B1E041E050E08D91E82FE295EF70F0E06E
:1015C00021A18F70BA0102C0660F771F8A95E2F7DA
:1015D000CB01962F9095922391A392A1892B82A360
:1015E00071E0AC38B70739F708950C94470E809135
:1015F0008B028360886080938B020E94D70AA1E8E7
:10160000B1E041E050E08D91E82FE295EF70F0E01D
:1016100021A18F70BA0102C0660F771F8A95E2F789
:10162000CB01962F9095922391A392A1892B82A30F
:1016300071E0A838B70739F7559A209A5D9A289A29
:10164000A6ECB1E0EEECF1E088E08E0F11921D9275
:101650008E13FCCF0E94880C8093D6010C94D00F7F
:101660009F92AF92BF92CF92DF92EF92FF920F9331
:101670001F93CF93DF9380910101811103C004E098
:1016800010E002C000E010E0A8014A535E4F7A016A
:10169000EA0188E8C82E81E0D82EAA24A394B12CB0
:1016A00025E0922E8CE8C81681E0D80609F448C0DF
:1016B000F60181916F01E82FE295EF70F0E021A132
:1016C0008F70A50102C0440F551F8A95E2F7CA0129
:1016D000922F982B91A392A18095892382A350EAFF
:1016E0005A95F1F7E1E8F1E020E040E050E0319177
:1016F000A32FA295AF70B0E090968C9190E03F70D0
:1017000002C0959587953A95E2F780FD07C0C5011F
:10171000042E01C0880F0A94EAF702C080E090E02E
:10172000282B4F5F5F4F4730510509F7888182179B
:1017300019F02883909200010E94D70A2196B2CF17
:10174000809100018823E1F081508093000188237B
:1017500039F0EFE9FFE03197F1F700C0000010C069
:1017600080E090E0FC01E00FF11FE253FE4FD70153
:10177000A80FB91F2C91208301968430910591F711
:1017800081E0DF91CF911F910F91FF90EF90DF905B
:10179000CF90BF90AF909F900895CF93DF9320910B
:1017A0000101211103C0C0E0D0E002C0C4E0D0E0DC
:1017B0000E94AE0C009721F00297A1F4289812C065
:1017C000289AC253DE4F8091E1019091E201A091ED
:1017D000E301B091E40188839983AA83BB8380E00D
:1017E00090E002C081E090E0DF91CF9108950E94E7
:1017F000300B80910101811103C0E4E0F0E002C0F0
:10180000E0E0F0E0E253FE4F20E030E080E0D9017C
:10181000AF51BE4F4C919191491381E09C932F5F42
:101820003F4F2430310599F79091DA01890F809369
:10183000DA010895CF93DF938091D601882309F4CC
:1018400040C00E94300B80910101811103C0C4E0AF
:10185000D0E002C0C0E0D0E0C253DE4F44E050E030
:10186000BE018DED91E00E94C331488159816A81AA
:101870007B814093DD015093DE016093DF01709323
:10188000E0010E94CD0B892BC1F05D988091D701BA
:101890008F5F8093D701863070F1809101018111B3
:1018A00003C0E0E0F0E002C0E4E0F0E0E253FE4F0D
:1018B00010821182128213821EC05D9A1092D7018B
:1018C0001AC00E94F70B80910101811103C080E0D2
:1018D00090E002C084E090E0FC01E253FE4F4091B2
:1018E000DD015091DE016091DF017091E0014083E4
:1018F0005183628373830E94D20F81E0DF91CF9185
:101900000895E82FF0E0E253FE4F80810895089596
:10191000E8EDF0E08081806180838AE18A95F1F7CB
:1019200000C08091D900817008950E94880C809336
:1019300001010E94880C882319F00E94A60C02C0A5
:101940000E94AA0C789408950C94950C82E091E082
:101950000C94970782E091E00C949E07CF93DF935D
:10196000EC0190911A018091DA01981751F082E010
:1019700090E00E946708892B21F48091DA0180931E
:101980001A01CD2B49F48091D8019091D901892B6E
:1019900019F480E090E002C081E090E00E946708C6
:1019A00021E030E0009711F420E030E03093D901DD
:1019B0002093D801DF91CF9108952BB1342F30952A
:1019C00023233BB1432B3FB7F894FC01680F791FE9
:1019D000E617F70789F0819198E04BB9000000C045
:1019E00087FF2BB9880F000000C000C000C02BB9D2
:1019F00000C09A9591F7ECCF3FBF08952AB1242BF0
:101A00002AB99B01220F331F620F731F0E94DD0C46
:101A100087EC90E00197F1F700C00000089548E0DE
:101A20000C94FE0C08950C94370ECF93DF93EC01C9
:101A30000E941D26BE0180E090E0DF91CF910C94C2
:101A40008223CF92DF92EF92FF920F931F9301E0D8
:101A500010E020E030E06801790104C0CC0CDD1C0E
:101A6000EE1CFF1C8A95D2F704C0000F111F221F25
:101A7000331F6A95D2F70C291D292E293F29C090C2
:101A80007602D0907702E0907802F0907902C0223E
:101A9000D122E222F322842FC016D106E206F306F9
:101AA00041F41F910F91FF90EF90DF90CF900C9435
:101AB000E3231F910F91FF90EF90DF90CF900C9454
:101AC0000424CF93FB018E3D2CE5920709F444C01A
:101AD00090F48B3D2CE5920739F128F4813C9C452C
:101AE00009F474C0C0C08C3D2CE5920721F18D3DF6
:101AF0009C4559F1B8C0823E2CE5920709F47AC0A2
:101B000048F48F3D2CE59207C9F1803E9C4509F4CD
:101B100053C0A9C0833E2CE5920709F47CC0843EE3
:101B20009C4509F48FC09FC0C281CC2309F49CC09E
:101B300081E090E006C0C281CC2309F495C082E028
:101B400090E00E94150DC0E08FC0C281CC2309F443
:101B50008BC084E090E0F5CFC281CC2349F0809126
:101B6000E501811103C081E08093E50183E011C0AC
:101B70001092E50183E00E94042418C0C281CC23A6
:101B800081F08091E501811103C081E08093E5013E
:101B900084E00E94E32345E064E083E00E94210D9D
:101BA000D2CF84E00E9404241092E50145E064E075
:101BB00083E00E94210D58C0C28185E0CC2319F03A
:101BC0000E94E323C0CF0E9404244EC0C281CC23D4
:101BD00009F44AC08091FF020E949E170E94A1173B
:101BE0008091010386958F7390E09093000380931A
:101BF000FF02A9CFC281CC2361F08091550382FB03
:101C0000CC27C0F982FD02C081E910C08EEF96E0BA
:101C100012C081E914C0C281CC2381F080915503A8
:101C200082FBCC27C0F982FD04C080E90E94A21C7F
:101C30001BC088EF96E00E94CD0F85CF80E90E94FF
:101C4000451D12C0C281CC2371F00E9467150E940D
:101C5000B4178091010386958F7390E090930003F1
:101C60008093FF0201C0C1E08C2FCF910895809135
:101C7000010386958F7390E0909300038093FF0299
:101C80000E94880C91E089270C94200A08950E94F4
:101C9000460E0C94CA0A0F931F93CF93DF93EC0167
:101CA0008B0144E550E00E94C331892B59F084E553
:101CB000F801DE0101900D928A95E1F7CA5ADF4FD3
:101CC00081E08883DF91CF911F910F910895CF928A
:101CD000DF92EF92FF920F931F93CF93DF93CDB7D5
:101CE000DEB7C055D1090FB6F894DEBF0FBECDBF29
:101CF0008C018091550382FD0DC06BE571E0C80138
:101D00000E94710966EF76E0C8010E948F096EE5B6
:101D100071E00CC061E671E0C8010E94710964EFD6
:101D200076E0C8010E948F0964E671E0C8010E9454
:101D30007109809179028F93809178028F938091BD
:101D400077028F93809176028F938AEA91E09F9336
:101D50008F931F9288E28F937E0189E2E80EF11C37
:101D6000FF92EF920E94E9316BEE76E0C8010E948B
:101D70008F090FB6F894DEBF0FBECDBF80917602FB
:101D800090917702A0917802B0917902803191050B
:101D9000A105B105C9F058F40097A105B10589F076
:101DA0000897A105B105C9F467ED76E00FC0803250
:101DB0009105A105B10571F0C897A105B10551F0D4
:101DC0000CC063EE76E002C06DED76E0C8010E94C3
:101DD0008F0907C060ED76E0F9CFB701C8010E9416
:101DE00071090E94731B82FD05C035EAC32E31E0E4
:101DF000D32E04C020E9C22E21E0D22E0E94731BF4
:101E000081FD05C095EAE92E91E0F92E04C085E92F
:101E1000E82E81E0F82E0E94731B80FD03C082EA49
:101E200091E002C08AE991E0DF92CF92FF92EF92B7
:101E30009F938F9384EB91E09F938F931F9288E2FF
:101E40008F93CE0101967C019F938F930E94E9317D
:101E5000B701C8010E9471090FB6F894DEBF0FBE2A
:101E6000CDBFC05BDF4F0FB6F894DEBF0FBECDBF56
:101E7000DF91CF911F910F91FF90EF90DF90CF9066
:101E80000895CF93DF93CDB7DEB7C755D1090FB60D
:101E9000F894DEBF0FBECDBFCE0101960E94A3090C
:101EA0008091D601882329F0CE0101960E94670E09
:101EB00006C06BE171E0CE0101960E947109BE017E
:101EC0006F5F7F4F88EA92E00E944B0EC95ADF4F46
:101ED0000FB6F894DEBF0FBECDBFDF91CF9108954E
:101EE00081E008950C94610DCF93282F30E0F90123
:101EF000EC55F64FC491F901EC5DF54F2491222386
:101F000059F081EE0E94A21C8C2F0E94A21C8C2FE3
:101F10000E94451D81EE04C08C2F0E94A21C8C2FB4
:101F2000CF910C94451D0F931F93CF93DF93EC013A
:101F3000062FFE018491882359F19E012F5F3F4FA8
:101F4000813041F4E901F9011491812F0E94A21C12
:101F5000812F0DC0823031F4E901F90184910E9492
:101F6000A21C0AC0833031F4E901F90184910E9476
:101F7000451D02C00E94740F2196802F8823C9F24C
:101F8000EFE9FFE03197F1F700C000008150F6CF94
:101F9000DF91CF911F910F91089560E00C94930F02
:101FA0000C94130D0C94F50A0C94120D08950E94D4
:101FB000C41F0E94D60F2FEF84E39CE02150804085
:101FC0009040E1F700C0000087E797E79093010891
:101FD000809300080C944C27FF920F931F93CF938C
:101FE000DF938C01FC01C081D18180911A028111A3
:101FF00013C08281882349F0CE010E94DC24F82E90
:10200000682FCE010E94812404C0CE010E94B0241A
:10201000F82EBE018F2D04C0CE010E94DC24BE012B
:102020000E948912EC01B8010E94720F882309F402
:1020300065C2C93CFCE5DF0709F4CEC0D8F5C13C58
:102040009CE5D90709F48EC0E8F4C531FCE5DF074B
:1020500078F4C2308CE5D80708F067C1C1159CE55B
:10206000D90709F464C0C130DC4509F468C039C23D
:10207000C631FCE5DF0709F40DC2C03CDC4509F4BC
:1020800069C02FC2F8018281C53CFCE5DF0709F475
:102090008BC040F4C33CECE5DE0709F479C008F4DA
:1020A0006DC07CC0C73C9CE5D90709F489C008F421
:1020B00081C08CC0C13DFCE5DF0709F406C1C0F456
:1020C000F8018281CD3CFCE5DF0709F4ACC040F4A7
:1020D000CB3CECE5DE0709F48DC008F485C08FC069
:1020E000CF3C9CE5D90709F4C8C008F4B0C0D9C0FA
:1020F000C53DFCE5DF0709F48BC150F4F80182818E
:10210000C33DFCE5DF0709F4FBC008F4E5C05FC18F
:10211000C93DECE5DE0709F4F8C0CA3DFCE5DF0780
:1021200009F4FAC0C63DDC4509F0DBC198C1F801ED
:102130008281882309F4E2C10E94D70FDFC1F80130
:102140008281882309F4DAC180918B0281608093B7
:102150008B02D4C1F8018281882309F4CFC10E9487
:102160003C18CCC1F8018281882309F4C7C10E94C0
:10217000AD25827251F00E94AB17C0C1882309F4CB
:10218000BDC10E94AD258272B1F30E94A117B6C1F4
:10219000882309F4B3C10E94B316B0C1882309F49F
:1021A000ADC10E94CB16AAC1882309F4A7C10E9421
:1021B000EA16A4C1882309F4A1C10E9405179EC193
:1021C000882309F49BC10E941F1798C1882309F432
:1021D00095C10E943A1792C1F8018281882309F4BF
:1021E0008DC10E9486158AC1882309F487C10E9487
:1021F0009B1584C1882309F481C181E03BC08823F9
:1022000009F47CC10E947815623071058105910541
:1022100040F00E947815653071058105910508F43C
:10222000B4CF82E027C0882309F468C10E947815E2
:10223000663071058105910540F00E94781568307F
:1022400071058105910508F4A0CF86E013C08823AD
:1022500009F454C10E947815693071058105910512
:1022600040F00E9478156E3071058105910508F4E3
:102270008CCF89E00E949E1741C1882309F43EC19A
:102280000E9478156F3071058105910540F00E941C
:102290007815643171058105910508F476CF8FE0DA
:1022A000E9CF882309F42AC10E94781565317105A8
:1022B0008105910540F00E9478156731710581050F
:1022C000910508F462CF85E1D5CFF801828188239A
:1022D00009F414C188E1CECF882309F40FC10E940C
:1022E0007815693171058105910540F00E947815D6
:1022F000623271058105910508F447CF89E1BACFB3
:10230000882309F4FBC083E2B5CFF80182818823DA
:1023100009F4F4C080E006C0F8018281882309F442
:10232000EDC082E00E947629E9C0F801828188230D
:1023300009F4DCC00E940A26811102C00E94E9252E
:102340000E94222690E09093560380935503FE014D
:10235000E350FC45E231F10530F4EA5AFF4F809139
:1023600055030C94B03180915503816027C0826081
:1023700025C0846023C0806121C080621FC080644A
:102380001DC080681BC08460886018C08E7F16C026
:102390008D7F14C08B7F12C08F7E10C08F7D0EC0CA
:1023A0008F7B0CC08F770AC08B7F877F07C087FB2E
:1023B000222720F991E0922790FB87F9809355031B
:1023C000809155030E9426260E94C41F97C088232F
:1023D00051F01092EB010E94F0269093E801809357
:1023E000E70182E022C08091EB0181110FC0809152
:1023F000E7019091E8010E94FC268436910530F4B3
:1024000086E20E94A21C86E20E94451D82E024C052
:10241000F8018281882361F01092EC010E94F0267D
:102420009093EA018093E90180E20E94711D66C0E9
:102430008091EC0181110FC08091E9019091EA0136
:102440000E94FC268436910530F487E20E94A21C8B
:1024500087E20E94451D80E20E94781D4FC0F8016E
:1024600082818111D9CF8091EC018111F4CF8091CB
:10247000E9019091EA010E94FC268436910558F703
:1024800080E20E94781D88E20E94A21C88E20E94DD
:10249000451D34C00E94AD25282FF801828140914E
:1024A000740150917501882379F02A7A91E009F43A
:1024B00090E09093E601911102C069E201C065E3EA
:1024C000CA010E945E260AC08091E601811102C005
:1024D00069E201C065E3CA010E9460260E947A2574
:1024E0000DC081E08093EB018093EC01C801DF9186
:1024F000CF911F910F91FF900C94700F80E0DF91AE
:10250000CF911F910F91FF90089580E090E0089582
:10251000089597E0799FF001112498E3899FE00DD9
:10252000F11D1124E60FF11DEE0FFF1FEC5FF84FB8
:10253000859194910895880F991FFC01EC55F54FF2
:10254000859194910895CF93DF930E9489120E9400
:102550004614EC01811520E59207F0F5811530E471
:10256000930708F018C1883E910500F5803E91055B
:1025700008F088C1883A910570F4853A910508F011
:102580009AC08130910509F47DC108F434C10497E3
:1025900008F078C130C18D3B910508F497C0803CAC
:1025A000910508F428C1805C9109E7C0811590422B
:1025B00058F4C11581E0D80708F064C1C03FD105C7
:1025C00008F419C1D0655EC1C11590E3D90708F0C0
:1025D000D8C0CE019F70D1C0811525E5920708F0C3
:1025E00043C0811534E5930708F0ECC0811542E53E
:1025F000940708F5C11581E5D80708F0CFC02C2F46
:10260000237081E090E002C0880F991F2A95E2F7BD
:102610009C689E0174E0369527957A95E1F72370C2
:10262000922BCF70C695C69530E2C39FE00111246E
:10263000C82BD92B27C1869586959E0123703327F9
:10264000C115D34508F0AFC040E2849FC0011124FA
:10265000C1E0D0E002C0CC0FDD1F2A95E2F78C2B41
:102660009D2BEC01DC680EC1811529E5920778F4F9
:10267000811538E5930708F0AAC08115964508F042
:10268000BAC0CF71DD27DC2FCC27D062FBC0C115CB
:102690008AE5D80708F4A0C0CE0190568115904273
:1026A00008F0A9C08D2F8F710E94C314DD27D0625E
:1026B0008F71D82BE7C0853A910509F49FC0863AFF
:1026C000910509F09EC0C2E8D0E4DCC0883A9105CB
:1026D00009F49AC0893A910509F499C08A3A91059A
:1026E00009F498C08B3A910509F497C08C3A91058A
:1026F00009F496C08B3B910509F495C08C3B91057C
:1027000009F494C08D3A910509F493C0803B91057A
:1027100009F492C08E3A910509F491C08F3A91055F
:1027200009F490C0813B910509F48FC0823B91056B
:1027300009F48EC0833B910509F48DC0843B91055B
:1027400009F48CC0853B910509F48BC0863B91054B
:1027500009F48AC0873B910509F489C0883B91053B
:1027600009F488C0893B910509F487C08A3B91052B
:1027700009F486C0C0E0D4E485C00E949B12EC013D
:1027800081C0CE019927D3FF03C0EC01D86C7AC079
:10279000EC01D06C77C0DF70D06A74C0DC2FCC271E
:1027A000C16FD06A6FC040E2849FC0011124C1E0B4
:1027B000D0E002C0CC0FDD1F2A95E2F7C82BD92B41
:1027C000DA6860C0D82FCC27C46FD06A5BC0D82F1E
:1027D000CC27C06FD06A56C08C2F8F70806E90E06F
:1027E000906A24E0D695C7952A95E1F7CF709C01B1
:1027F0003C2BE90147C0C0E0D0E044C0C1E8D0E4D0
:1028000041C0C3E8D0E43EC0C2EED4E43BC0C9EE50
:10281000D4E438C0CAEED4E435C0C5EBD4E432C049
:10282000C6EBD4E42FC0C3EBD4E42CC0C4EBD4E497
:1028300029C0C7EBD4E426C0CCECD4E423C0CDEC53
:10284000D4E420C0C3E8D5E41DC0CAE8D5E41AC06A
:10285000C2E9D5E417C0C4E9D5E414C0C1E2D6E4A6
:1028600011C0C3E2D6E40EC0C4E2D6E40BC0C5E298
:10287000D6E408C0C6E2D6E405C0C7E2D6E402C08A
:10288000CAE2D6E4CE01DF91CF9108958238910556
:1028900049F1B0F48133910509F458C048F4893204
:1028A000910509F44EC08A32910509F454C0089587
:1028B0008533910509F440C08933910599F0089555
:1028C000833E910529F138F4803E910591F0823ED6
:1028D0009105A1F00895863E9105F9F0873E910596
:1028E00031F108952091550320FD3AC021FD38C0F3
:1028F00008958091550380FD35C032C08091550305
:1029000082FF32C08091550384FD30C083EE39C010
:102910008091550382FD28C0F5CF8091550383FF38
:1029200027C08091550384FD21C087EE2AC0809185
:10293000550383FD1DC0F5CF8091550385FD1AC059
:102940001BC08091550385FD17C014C080915503AD
:1029500086FD14C015C08091550386FD11C00EC0C0
:1029600080EE0FC089E30DC082EE0BC080E009C08D
:1029700086EE07C089E205C085E303C08AE201C094
:1029800081E390E008959091550392FF0DC0282FA8
:102990002871283019F4877F846006C0282F24719D
:1029A000243011F48B7F886093FF0DC0282F28718D
:1029B000283119F4877E846106C0282F24712431C0
:1029C00011F48B7E886194FD877E0895EF92FF92CB
:1029D0000F931F93CF93DF93E901433808F042E848
:1029E000662309F44BC0242F30E0EFEFF0E0E61B44
:1029F000F109B901E69F9001E79F300DF69F300D78
:102A00001124232F8B01031B11095CE3E52EF12C0C
:102A1000B7010E948831FB01BC01069FC001079FDE
:102A2000900D169F900D1124B7010E948831E2305D
:102A3000F105B1F040F4309779F0319711F5832F1B
:102A4000242F461B21C0E430F105A1F068F0359732
:102A5000C1F4842F861B18C0832F262F230F14C088
:102A6000862F830FE42F03C0E42FE61B842F432F10
:102A70002E2F0AC0842F462F430F06C0842F242FE9
:102A800003C080E020E040E0E42FF0E0E054F54FA8
:102A90004491E22FF0E0E054F54F9491E82FF0E0FC
:102AA000E054F54FE49149839883EA83DF91CF9115
:102AB0001F910F91FF90EF90089588E090E00C94A3
:102AC000A834AB01BC0188E090E00C94C634E1E08E
:102AD000F3E083E08083109202038FEF828382E829
:102AE0008383148260817181828193810C9461154A
:102AF0006091010360FF06C066956F7370E080E02F
:102B000090E0089560E070E0CB01089580910503A6
:102B100090E001968430910514F083E090E080937A
:102B2000050360910103709102038091030390916A
:102B300004030C9461158091050390E0019797FFC1
:102B400002C080E090E08430910514F083E090E0D2
:102B50008093050360910103709102038091030348
:102B6000909104030C9461158091010380FF06C0CD
:102B700069E170E086E093E00C940F0D80E090E056
:102B8000FC01EA5FFC4F11821082128203968B34A3
:102B90009105B1F7EDCF9091010390FF0FC020E0B8
:102BA00030E0F901EA5FFC4F8183608342832D5F4F
:102BB0003F4F2B343105A9F70C94B4150895CF93EA
:102BC000DF9300D01F92CDB7DEB72091010320FF25
:102BD0000AC09E012F5F3F4F0E94E6144B8169811E
:102BE0008A810E94CB150F900F900F90DF91CF91AB
:102BF00008955F926F927F928F929F92AF92BF9251
:102C0000CF92DF92EF92FF920F931F93CF93DF93B8
:102C100000D01F92CDB7DEB78C01E62EF42E522ED7
:102C20008091010380FF89C0982F9E77923061F4D4
:102C30009E012F5F3F4FC8010E94E6144B816981BE
:102C40008A810E94CB1559C0E82FE695EF739EE369
:102C50009E0F9F73943018F4F09004034EC09AE3D3
:102C60009E0F9F73993068F4881F8827881F909162
:102C70000203292F220F022F082B97FB112710F98F
:102C80003CC087E28E0F8F738A30B8F5F0E07997F9
:102C9000E0FD02C021E001C02FEFEE7FEA54F54FC6
:102CA0008591949169E170E00E948831260340018A
:102CB000279F900C1124580188E9A81A8EEFB80AB2
:102CC00086E0C82E83E0D82E98E6692E7724739488
:102CD000C501B3010E94883196014F2D6E2D0E94CF
:102CE000E614A80CB91C83E0C80ED11C81E5C816F7
:102CF00083E0D80669F70E94B4158091010300FBB8
:102D000087F980930103902F969580910203807834
:102D1000892B10FB87F980930203E0920303F09262
:102D20000403552051F060910103709102038091DA
:102D30000303909104030E9461150F900F900F9070
:102D4000DF91CF911F910F91FF90EF90DF90CF9087
:102D5000BF90AF909F908F907F906F905F900895FD
:102D600021E00C94F915E1E0F3E02081221F2227F5
:102D7000221F30910203432F440F842F822B37FBF5
:102D8000992790F90A9668E671E00E949C31438188
:102D900062810C94B01620910103221F2227221F6A
:102DA00030910203432F440F842F822B37FB992746
:102DB00090F98A3091051CF4825A9E4F01C00A97FF
:102DC00068E671E00E949C31409104036091030326
:102DD0000C94B01660910303862F90E08F3E91050E
:102DE00014F46F5E01C06FEF80910103881F882784
:102DF000881F90910203292F220F97FB992790F9A2
:102E000040910403822B0C94B01660910303862F2B
:102E100090E0419714F0615101C060E0809101039E
:102E2000881F8827881F90910203292F220F97FB64
:102E3000992790F940910403822B0C94B01640918D
:102E40000403842F90E08237910514F44F5E01C093
:102E500042E880910103881F8827881F9091020310
:102E6000292F220F97FB992790F960910303822B5A
:102E70000C94B01640910403842F90E0419714F015
:102E8000415101C040E080910103881F8827881FBD
:102E900090910203292F220F97FB992790F96091B7
:102EA0000303822B0C94B01620E00C94F915CF93F9
:102EB0009091010390FF40C09178811102C092600F
:102EC00007C0853210F0986403C08F73880F982B69
:102ED00090930103662351F0609101037091020306
:102EE00080910303909104030E946115C091010336
:102EF0006C2F66956F7370E04BE050E089E691E0CF
:102F00000E94B631892B19F010920A0203C081E0A9
:102F100080930A02CC1FCC27CC1F90910203892FEB
:102F2000880F97FB992790F9409104036091030360
:102F30008C2BCF910C945417CF91089561E00C9491
:102F400057178091010386958F738F5F853208F044
:102F500081E00C949E178091010386958F738150B8
:102F600009F484E20C949E17E1E0F3E08081816033
:102F7000808386958F730C949E1760E00C9457178E
:102F800080918B02816080938B020E940A268111BE
:102F900004C00E94E9250E9467150E945D15609398
:102FA00001037093020380930303909304036E77ED
:102FB00061F40E9467150E945D1560930103709390
:102FC0000203809303039093040381E080930A0239
:102FD0008091010380FF04C086958F730C94BD1708
:102FE00008959091010390FF10C0293170F430E0F2
:102FF000F901EE0FFF1F2E0F3F1FF901EA5FFC4F93
:103000008183608342830C94B41508951F93CF93FA
:10301000DF9300D01F92CDB7DEB73091010330FFB0
:103020000CC0122F9E012F5F3F4F0E94E614212FEC
:103030004B8169818A810E94F1170F900F900F9048
:10304000DF91CF911F910895E1E0F3E080818E7FC1
:10305000808360817181828193810E9461151092C9
:103060000A022FEF80E792E0215080409040E1F784
:1030700000C000000C94B4158091010380FD0C94F5
:1030800024180C94B417CF93C82F80910802909104
:1030900009020E94FC26EC2FF0E0EE54F54FE4917B
:1030A000F0E08E179F0708F443C00E94F02690932B
:1030B0000902809308026091070270E080E090E0CE
:1030C0000E94892F20E030E04FE753E40E94AC2EAD
:1030D0002BED3FE049E450E40E94B2300E941F31E2
:1030E0000E94262F2BE43AE34EE25FE30E943F2E3C
:1030F00020EF3BEF48ED52E40E94B2300E94582F7F
:10310000462F80910103881F8827881F9091020312
:10311000292F220F97FB992790F960910303822BA7
:103120000E94DF158091070290E0019680930702CC
:10313000CF910895CF93C82F8091050290910602F8
:103140000E94FC26EC2FF0E0E155F54FE491F0E011
:103150008E179F07E8F00E94F02690930602809356
:103160000502409104036091030380910302909152
:1031700004020E94DF1580910302909104020196DF
:1031800068E671E00E948831909304028093030204
:10319000CF910895CF92DF92FF920F931F93CF9319
:1031A000DF93F82E80910102909102020E94FC268A
:1031B000EF2DE695F0E0E455F54FE491F0E08E1741
:1031C0009F07F0F10E94F026909302028093010283
:1031D00006E013E0C0E0D0E088E6C82EDD24D394FA
:1031E0008091FF01909100028C0F9D1FB6010E94FB
:1031F0008831980140910403609103030E94E61412
:103200002E960D5F1F4FCE3581E0D80749F70E94FB
:10321000B4152091FF0130910002F0FE0BC0C901EE
:10322000019668E671E00E948831909300028093D5
:10323000FF0106C021503109309300022093FF01A5
:10324000DF91CF911F910F91FF90DF90CF90089564
:10325000AF92BF92CF92DF92EF92FF920F931F93A4
:10326000CF93DF93C82F80FF02C01FEF01C011E092
:103270008091FD019091FE010E94FC26C695EC2FE5
:10328000F0E0E755F54FE491F0E08E179F0708F462
:1032900066C00E94F0269093FE018093FD0126E017
:1032A000C22E23E0D22E38E0E32E33E0F32EC0E02E
:1032B000D0E0F70131971082F6011082F7011082F9
:1032C00094E0A92EB12C00E08091FC01800F87FDD5
:1032D000875E082E000C990BC817D907E9F4809176
:1032E00004038A9DA0018B9D500D1124559547958F
:1032F0005595479580910103881F8827881F9091D5
:103300000203592F550F97FB992790F99601609169
:103310000303852B0E94E614010FF1E0AF1AB108F8
:1033200099F6219683E0C80ED11CE3E0EE0EF11C65
:10333000C931D10509F0BDCF0E94B4158091FC01BF
:10334000113031F4811102C088E107C0815005C0FD
:1033500090E00196BE010E949C318093FC01DF91B8
:10336000CF911F910F91FF90EF90DF90CF90BF9082
:10337000AF9008950F931F93CF93DF93C82F809141
:10338000FA019091FB010E94FC26EC2FF0E0EA5537
:10339000F54FE491F0E08E179F0708F466C00E9495
:1033A000F0269093FB018093FA0180E090E0FC010D
:1033B000EA5FFC4F11821082128203968B349105D2
:1033C000B1F7C0E0D0E009E110E0CE01B8010E9401
:1033D0009C314091F901042E000C550BFC01EE0FBD
:1033E000FF1FC417D5070CF140916801042E000C93
:1033F000550B4C175D07CCF08E0F9F1F9C012A5F69
:103400003C4F80910103881F8827881F90910203F9
:10341000592F550F97FB992790F94091040360911C
:103420000303852B0E94E61407C0E80FF91FEA5F2B
:10343000FC4F1182108212822196C931D10529F6E2
:103440000E94B415809167019091F901980F9093B3
:10345000F90120916801280F20936801121614F4D5
:1034600098311CF0819580936701DF91CF911F9176
:103470000F910895EF92FF920F931F93CF93DF93D5
:103480008091F7019091F8010E94FC26883E9340BC
:10349000D0F10E94F0269093F8018093F701C0913B
:1034A000F501D091F6012196C170DD27D093F60188
:1034B000C093F50186E0E82E83E0F82E10E008E7DF
:1034C000812F8695FE01E80FF11DCF0181709927AC
:1034D00097014091040360910303FC010E9FC0011A
:1034E0000F9F900D11240E94E6141F5FF3E0EF0E72
:1034F000F11C193129F7DF91CF911F910F91FF90A6
:10350000EF900C94B415DF91CF911F910F91FF9024
:10351000EF900895CF93DF9300D01F92CDB7DEB721
:103520008091F3019091F4010E94FC26E4EAFAE014
:103530002591349182179307C0F18091F201811196
:103540000CC09E012F5F3F4F42E86FEF80E090E09C
:103550000E94E6148A818093F2010E94F0269093E3
:10356000F4018093F3018091F101813051F028F052
:10357000823061F44091F2010AC08091F20140E092
:1035800007C06091F20140E080E003C040E080E0CD
:1035900060E00E94CB158091F10190E0019663E01C
:1035A00070E00E949C318093F1010F900F900F907A
:1035B000DF91CF910895CF93DF938091EF019091A8
:1035C000F0010E94FC26843F914008F444C00E9410
:1035D000F0269093F0018093EF01C0E0D0E02091BD
:1035E000ED013091EE018091010390910203CC3006
:1035F000D1051CF4232B79F002C0232B61F4881F22
:103600008827881F392F330F97FB992790F92C2F84
:10361000409104030AC0881F8827881F392F330F61
:1036200097FB992790F92C2F40E060910303832B9F
:103630000E9406182196C931D10589F60E94B41559
:103640008091ED019091EE01019681709927909300
:10365000EE018093ED01DF91CF91089580910A02F0
:103660008823D9F190910103892F86958F732EE3DA
:10367000280F2F73243018F482500C9443182AE337
:10368000280F2F73233018F486500C949A1827E3D0
:10369000280F2F73263018F489500C94CA1821E390
:1036A000280F2F73263018F48F500C9428192BE212
:1036B000280F2F73233018F485510C94BA19892FD1
:1036C0008E77803311F40C943A1A863411F40C94EA
:1036D0008A1A883411F40C94DB1A0895909310021E
:1036E00080930F020895E0910F02F091100230973D
:1036F00021F00190F081E02D099480E00895E0919F
:103700000F02F0911002309721F00280F381E02D3A
:103710000994089520910D0230910E0282179307AB
:1037200071F090930E0280930D02E0910F02F091E0
:103730001002309721F00680F781E02D099408955A
:1037400020910B0230910C028217930771F0909335
:103750000C0280930B02E0910F02F091100230975F
:1037600021F00084F185E02D099408950C94A40CB7
:1037700081E008950E94E72685B7806885BF85B7F8
:10378000806885BF0E94F70A0E945D270C94C017CD
:10379000CF92DF92EF92FF920F931F93CF93DF931D
:1037A000CDB7DEB72B970FB6F894DEBF0FBECDBFF7
:1037B0000E941A0C0E94B81B811111C08FEF8983DF
:1037C0008A831B820E94F0268160782F9D838C83E0
:1037D00049815A816B818D810E946E1C56C082E1A5
:1037E000C82E82E0D82E00E010E0E02E802F0E944C
:1037F000810CF60141916F01F42EF82631F40F5F30
:103800001F4F0830110589F7D9CF90918B0291FF96
:1038100004C08B870E94870C8B8520E030E04F2D01
:1038200050E0922FBA01022E02C0759567950A9456
:10383000E2F760FF24C02E83EF8221E030E06901CF
:1038400002C0CC0CDD1C9A95E2F790E08C219D2102
:10385000892B09F420E028870E94F0268160782FC8
:103860009A8789874E815F8168858A850E946E1C50
:10387000F801EE5EFD4F8081C826C08206C02F5F32
:103880003F4F2730310569F6BACF109111020E94DF
:10389000731B1817A1F00E94731B809311022B96C3
:1038A0000FB6F894DEBF0FBECDBFDF91CF911F9151
:1038B0000F91FF90EF90DF90CF900C94D40F2B9648
:1038C0000FB6F894DEBF0FBECDBFDF91CF911F9131
:1038D0000F91FF90EF90DF90CF900895CF93DF93FB
:1038E000CDB7DEB72B970FB6F894DEBF0FBECDBFB6
:1038F0004F83588769877A878B87DE01119686E028
:10390000FD0111928A95E9F785E0FE013796019055
:103910000D928A95E1F749815A816B817C818D8175
:103920009E810E9453222B960FB6F894DEBF0FBEE5
:10393000CDBFDF91CF910895FC01808191810E94DC
:103940001B250895882309F49FC0682F8CEF860FEC
:10395000813A38F480917401909175010E945E263D
:103960000CC080E2860F883050F4677081E001C09F
:10397000880F6A95EAF70E94B0250C947A258BE5AA
:10398000860F833070F4653A29F0663A31F083E8A7
:1039900090E005C081E890E002C082E890E00C94DD
:1039A0008A1B88E5860F853108F06EC0683A61F1A0
:1039B000693A69F16A3A71F16B3A79F16C3A81F1DD
:1039C0006B3B89F16C3B91F16D3A99F1603BA1F150
:1039D0006E3AA9F16F3AB1F1613BB9F1623BC1F1C5
:1039E000633BC9F1643BD1F1653BD9F1663BE1F141
:1039F000673BE9F1683BF1F1693BF9F16A3B09F496
:103A00003FC080E090E03EC082EE90E03BC089EE97
:103A100090E038C08AEE90E035C085EB90E032C08F
:103A200086EB90E02FC083EB90E02CC084EB90E01D
:103A300029C087EB90E026C08CEC90E023C08DEC91
:103A400090E020C083E891E01DC08AE891E01AC0B0
:103A500082E991E017C084E991E014C081E292E02C
:103A600011C083E292E00EC084E292E00BC085E2D6
:103A700092E008C086E292E005C087E292E002C0D0
:103A80008AE292E00C94A01B0895882349F1682FE4
:103A90008CEF860F813A38F4809174019091750112
:103AA0000E9460260CC080E2860F883050F4677058
:103AB00081E001C0880F6A95EAF70E94B6250C9450
:103AC0007A258BE5860F833020F480E090E00C941B
:103AD0008A1B685A653120F480E090E00C94A01BAA
:103AE0000895882321F00E94B0250C947A2508952A
:103AF000882321F00E94B6250C947A2508954F92D0
:103B00005F926F927F92BF92CF92DF92EF92FF927D
:103B10000F931F93CF93DF937C01D62FC72FFC0108
:103B2000158112951F70028101110E94CD250E94FE
:103B30007325882379F0002369F080E28D0F8830A7
:103B400048F082E00E945C250E94732591E0B82E27
:103B5000B92601C0B12CCC2EC2948FE0C822D12C42
:103B6000F601E859FF4F0C94B0318C2F807FCF7055
:103B7000882311F0C295C07F002399F0CC2309F46B
:103B80006DC180E28D0F883010F0D11104C08C2FF0
:103B90000E94B02503C08C2F0E94C0250E947A2568
:103BA0005DC18D2F0E94451DCC2309F47CC180E2AC
:103BB0008D0F883010F0D11104C08C2F0E94B625D3
:103BC00003C08C2F0E94C6250E947A256CC18C2FC1
:103BD000807FCF70803211F0C295C07FDD2319F055
:103BE000D130C9F022C0002371F0112341F011300F
:103BF00031F40E94E6258C2B0E94E02554C10E94DE
:103C0000E6258C2B1DC0112319F0113009F44BC18E
:103C10000E94E3251AC0002321F0163008F043C1AA
:103C20000EC0153008F03FC110C0002361F0112311
:103C300031F0F701858180FF11C18F7085838C2F52
:103C40000E94711D30C111111AC18C2FC6C08C2F5A
:103C5000837009F050C0011132C18D2F8295869575
:103C60008770880F880F9D2F9F70492E512C612CD3
:103C7000712C082E04C0440C551C661C771C0A9439
:103C8000D2F7D4FF14C00FE010E020E030E0B9011B
:103C9000A80104C0440F551F661F771F8A95D2F7ED
:103CA000CB01BA01609570958095909503C060E056
:103CB00070E0CB01C695C695C370D0E0C230D10587
:103CC00061F0C330D10581F06429752986299729CF
:103CD000219771F00E949623F2C0642975298629E4
:103CE00097290E94A823EBC00E949623C301B2012A
:103CF0000E948423E4C0002319F08C2F817001C03E
:103D00008695882309F4DBC08D2F82958695877070
:103D1000880F880F9D2F9F70492E512C612C712C7C
:103D2000082E04C0440C551C661C771C0A94D2F75C
:103D3000D4FF14C00FE010E020E030E0B901A8018A
:103D400004C0440F551F661F771F8A95D2F7CB0119
:103D5000BA01609570958095909503C060E070E021
:103D6000CB01C695C695C3704C2F50E0423051052B
:103D700069F04330510589F064297529862997290E
:103D80004130510571F00E945C2499C06429752965
:103D9000862997290E946E2492C00E945C24C30148
:103DA000B2010E944A248BC08D2F90E0FC01E05E9E
:103DB000F109E531F10508F04DC0E858FF4F0C94CA
:103DC000B031DF708C2F8F71002321F00E94E3232C
:103DD0008D2F36CF0E9404248D2F0E94781D63C042
:103DE000002341F0153008F05EC08C2F8F710E94C7
:103DF000292459C0163008F056C0F7CF002339F0F7
:103E00008C2F8F710E94E3234EC00023C9F38C2FA7
:103E10008F710E94042447C0002329F08C2F8F71DA
:103E20000E94CE2340C00E94C9233DC0002349F018
:103E3000CF718C2F0E94E32363E08C2F0E945325C7
:103E400032C081E00E945C25123068F182E00E945D
:103E50005C2529C0002331F0112391F28D2F0E949F
:103E6000A21C21C0112399F2D93349F45FEF67EE08
:103E700073E0515060407040E1F700C000008D2FAA
:103E80000E94451D10C04C2F4F706D2FC7010E941E
:103E900085120E94F72217C04C2F4F706D2FC7015B
:103EA0000E94881210C088E0C816D10441F05CF06E
:103EB000EAE0CE1AD108F2E0CF16D10420F40E9435
:103EC000731B0E94D40FBB20F1F00E944F2580FD90
:103ED0001AC0F70112820E9449250E94E323C701FC
:103EE0000E94911F0E944925DF91CF911F910F9150
:103EF000FF90EF90DF90CF90BF907F906F905F909A
:103F00004F900C940424DF91CF911F910F91FF905B
:103F1000EF90DF90CF90BF907F906F905F904F9029
:103F200008950F931F93CF93DF93EC0188819981BC
:103F30002B813C81232BB9F09F3F11F48F3F99F0E7
:103F4000CE010E94EC0F882371F0688179818A810B
:103F50000E9426258C010E9480240E948123B801A2
:103F6000CE010E947F1DDF91CF911F910F91089587
:103F70000E94CD250E94DD258091740190917501EC
:103F80000E9462260C947A250E94BD250C94B81FCD
:103F90000E941B25E92FE295EF70F0E03297EE309A
:103FA000F105B0F4E357FF4F0C94B031803F91F02E
:103FB00018F4803E68F40EC0843F51F40BC0803E7C
:103FC00048F0813F29F406C093FB882780F90895C3
:103FD00080E0089581E00895CF93DF9300D000D072
:103FE0001F92CDB7DEB70F900F900F900F900F90EC
:103FF000DF91CF910895CF93DF9300D000D000D010
:10400000CDB7DEB726960FB6F894DEBF0FBECDBF94
:10401000DF91CF9108951F93CF93DF93C0911B023F
:1040200016E080911C02C81799F0D0E01C9FF001A7
:104030001D9FF00D1124E35EFD4F4081518162818F
:104040007381848195810E94FB1F2196C770E9CFFF
:10405000DF91CF911F91089540914D0250914E02F2
:1040600060914F02709150028091510290915202E2
:104070000C94FB1F8091520282958F7009F054C0FE
:1040800080914F02882309F44FC080911B02A091B8
:104090001C0260914D0270914E024091500250916D
:1040A0005102B6E08A1709F43FC090E0411551056E
:1040B000C1F17F3F11F46F3FA1F1B89FF001B99FAB
:1040C000F00D1124E35EFD4F218172132AC020817F
:1040D000621327C02281211124C023813481241737
:1040E000350710F421503109241B350B24363105D6
:1040F000C0F4209152022F7020612093520226E0DA
:10410000289FF001299FF00D1124EE5DFD4F808165
:104110008F70806180838DE492E00E94911F0C94E7
:104120000B2001968770BECF0895CF92DF92EF9259
:10413000FF920F931F93CF93DF93CDB7DEB76297B4
:104140000FB6F894DEBF0FBECDBF7C0185E0F7014E
:10415000DE011D9601900D928A95E1F7D7014C91F1
:1041600011965C91119712966C9112971396CD90BF
:10417000DC90149730914D0270914E028091500264
:1041800090915102009709F453C17F3F19F43F3FCA
:1041900009F44EC100914F02002309F4CBC02091D5
:1041A0005202C816D90628F0F601E81BF90BCF0118
:1041B00004C0809590958C0D9D1D11E0843691056D
:1041C00078F010E0207F09F0D2C07C2DD98AC88A0F
:1041D00089890E94EC1F8DE492E00E94911FBDC06E
:1041E000822F807F09F046C0751314C0341312C0AB
:1041F000611110C02F702061209352020E942C2068
:104200008DE492E00E94911F80915202D701159691
:104210008C932EC0CD2819F15F3F11F44F3FF9F078
:10422000162F61111CC080911B0220911C0236E0E8
:10423000821709F466C090E0389FF001399FF00DB5
:104240001124E35EFD4F7181571306C0708147133F
:1042500003C07281711103C001968770E9CF162FD8
:10426000662309F410C1809152028160809352024A
:1042700010E009C1751315C0341313C0611111C0CA
:1042800080915202D70115968C93C7010E94911F0D
:1042900086E0F701ADE4B2E001900D928A95E1F776
:1042A00063C04D875E878D859E856A8B0E94C81F7F
:1042B0006A898823D9F16623C9F120915202822F9D
:1042C00082958F7090E0029774F080914D029091EA
:1042D0004E0298878F831986DB86CA862C87CE018B
:1042E00007960E94911F86E0F701ADE4B2E00190CD
:1042F0000D928A95E1F70E943A200E942C2011E04D
:10430000C2C04D875E878D859E850E941B25292F03
:1043100022952F7030E0223031050CF0A8C09F703C
:1043200009F0A2C0805E883008F4ADC0C7010E94C9
:10433000911FE5CFC816D90608F453C0F601E81B53
:10434000F90BCF018436910508F450C010E07C2DA4
:10435000D98AC88A89890E94EC1FEDE4F2E086E0E0
:10436000DF011D928A95E9F70E942C208CC07513FD
:1043700014C0341312C0611110C080915202F701B1
:104380008583C7010E94911F86E0EDE4F2E0DF0122
:104390001D928A95E9F7102F76C04D875E878D852F
:1043A0009E856A8B0E94C81F6A89882309F4BECF44
:1043B000662309F4BBCF20915202822F82958F7021
:1043C00090E002970CF48FCF80914D0290914E02B5
:1043D0009A8389831B82DD82CC822E83CE01019653
:1043E00080CF809590958C0D9D1DACCF162F6623A8
:1043F00009F49CCF75130BC0341309C086E0F70194
:10440000ADE4B2E001900D928A95E1F73CC04D8792
:104410005E878D859E850E94C81F811164CF809123
:104420005202816080935202C7010E94911F2BC0EB
:10443000662309F47BCF4D875E878D859E850E941C
:10444000C81F182F882309F471CF86E0F701ADE467
:10445000B2E001900D928A95E1F78DE492E00E941E
:104460009C1C0E943A2080CF81115CCF0CC024306C
:1044700031050CF05BCF9F7009F454CFF7019581A3
:10448000907F09F04FCF812F62960FB6F894DEBF70
:104490000FBECDBFDF91CF911F910F91FF90EF9095
:1044A000DF90CF9008951F93CF93DF93CDB7DEB702
:1044B0002C970FB6F894DEBF0FBECDBF4F83588741
:1044C00069877A878B879C87CE0107960E94952003
:1044D000882369F08F8198852A853B85232BF1F10C
:1044E0009F3F09F063C08F3F09F060C037C086E08E
:1044F000FE013796DE01119601900D928A95E1F743
:104500006F817885EA85FB85309741F17F3F11F413
:104510006F3F21F120911C0230E0C90101968770A4
:10452000992740911B0250E08417950709F447C072
:1045300069837A83FD83EC8396E0929FD001939FF9
:10454000B00D1124A35EBD4FFE01319601900D9276
:104550009A95E1F780931C020E940B2016E080914F
:104560001B0290911C028917C1F1189FC0011124F0
:10457000835E9D4F0E949520882379F1E0911B0274
:104580001E9FF0011124E35EFD4F40815181628145
:104590007381848195810E94FB1F80911B0290E0B2
:1045A00001968770992780931B02D9CF4F81588538
:1045B00069857A858B859C850E94FB1FCFCF0E94E1
:1045C000C41F10921C0210921B02EDE4F2E086E080
:1045D000DF011D928A95E9F7C1CF2C960FB6F894AA
:1045E000DEBF0FBECDBFDF91CF911F910895EF9237
:1045F000FF920F931F93CF93DF938C01892B09F4C4
:104600006CC0F12CEE24E394E8012196F80184912A
:10461000843740F4843008F051C0813081F082301A
:1046200019F15BC0853709F444C0A8F19CE7980FE5
:10463000903708F052C08F770E94451D41C00E5F31
:104640001F4FFE01C49180E28C0F883048F4C77080
:104650008E2D01C0880FCA95EAF70E94D02514C09C
:104660008C2F0E94A21C2DC00E5F1F4FFE01C49113
:1046700080E28C0F883058F4C7708E2D01C0880FEF
:10468000CA95EAF70E94D6250E947A251AC08C2F77
:104690000E94451D16C00E5F1F4FFE01C491CC2322
:1046A00081F08FE99FE00197F1F700C00000C15051
:1046B000F6CF0E5F1F4FFE01F49003C00E94A21CB4
:1046C0008E018F2D882309F49FCFEFE9FFE031970A
:1046D000F1F700C000008150F5CFDF91CF911F911D
:1046E0000F91FF90EF90089508950E9474236093B6
:1046F0007A0270937B0280937C0290937D020C94EB
:10470000B81F08950C9475230F931F9300917A029C
:1047100010917B0220917C0230917D02602B712BE5
:10472000822B932B1F910F910C9475230F931F9342
:1047300000917A0210917B0220917C0230917D02DF
:1047400060237123822393231F910F910C9475236F
:104750000F931F9300917A0210917B0220917C02AB
:1047600030917D0260277127822793271F910F9137
:104770000C94752308950C94BA230E94BB23609374
:1047800076027093770280937802909379020C946A
:10479000B81F60E070E0CB010C94BD230F931F9312
:1047A00041E050E060E070E08A019B0104C0000F2E
:1047B000111F221F331F8A95D2F7C901B8011F911B
:1047C0000F910C94BD230F931F9341E050E060E0E4
:1047D00070E004C0440F551F661F771F8A95D2F7FB
:1047E0008091760290917702A0917802B09179023F
:1047F0008A019B01082B192B2A2B3B2BC901B801DD
:104800001F910F910C94BD230F931F9341E050E033
:1048100060E070E004C0440F551F661F771F8A9543
:10482000D2F7409550956095709580917602909161
:104830007702A0917802B09179028A019B01082346
:1048400019232A233B23C901B8011F910F910C940E
:10485000BD230F931F9341E050E060E070E004C07F
:10486000440F551F661F771F8A95D2F780917602F5
:1048700090917702A0917802B09179028A019B0110
:10488000082719272A273B27C901B8011F910F9133
:104890000C94BD230F931F93009176021091770221
:1048A0002091780230917902602B712B822B932B0F
:1048B0001F910F910C94BD230F931F9300917602CB
:1048C0001091770220917802309179026023712350
:1048D000822393231F910F910C94BD230F931F9359
:1048E000009176021091770220917802309179023E
:1048F00060277127822793271F910F910C94BD2366
:10490000089527E0929F800D1124A82FA695A695C3
:10491000A695877051E001C0550F8A95EAF785E0AA
:10492000A89FD001112420E030E070E0F901EA0FE7
:10493000FB1FED5AFD4F4081CB01022E02C0969520
:1049400087950A94E2F781709927819584278523BA
:10495000842780832F5F3F4F2530310539F7089535
:1049600027E0929F800D1124682F669566956695C5
:10497000982F977085E0689FB001112440E050E0C7
:1049800080E0FA01E60FF71FED5AFD4F208130E07D
:10499000092E02C0369527950A94E2F72170332735
:1049A000042E01C0220F0A94EAF7822B4F5F5F4F5B
:1049B0004530510531F70895CF92DF92EF92FF9283
:1049C0000F931F93CF93DF938C01C0907A02D09006
:1049D0007B02E0907C02F0907D02809176029091C3
:1049E0007702A0917802B0917902C82AD92AEA2ADE
:1049F000FB2ACFE1D0E0D701C6010C2E04C0B6954A
:104A0000A795979587950A94D2F780FF06C0B801BD
:104A10008C2F0E94A312019721F4219760F780E068
:104A200001C08C2FDF91CF911F910F91FF90EF90DC
:104A3000DF90CF900895CF93DF93EC010E94DC24A8
:104A4000BE010E94A312DF91CF9108951F93CF93CF
:104A5000DF93EB0190911A02992321F0CB010E9480
:104A60001B2513C0882349F0CB010E94DC24182F9A
:104A7000682FCE010E94812404C0CB010E94B02483
:104A8000182FBE01812F0E94A312DF91CF911F9199
:104A9000089580917E0285958595859508958091EC
:104AA0007E028770089598E0899F90011124262B3B
:104AB00020937E020C94E32320917E028095822332
:104AC00080937E02982F977069F430E0482F082E6B
:104AD000000C550B2417350729F08595859585958C
:104AE0000C940424089590917E02977081E009F45B
:104AF00080E00895E0917401F091750180918A023F
:104B00008083E0917401F091750190818091890218
:104B1000892B8083E0917401F091750190818091DF
:104B20008802892B808380917F02882381F0E09125
:104B30007401F09175019081892B808380917401BB
:104B4000909175010E942B26811110927F02809115
:104B50007401909175010C947F1B80918A020895D5
:104B600090918A02892B80938A0208958095909172
:104B70008A02892380938A02089510928A020895F6
:104B800090918902892B8093890208958095909154
:104B900089028923809389020895109289020895D9
:104BA00090918802892B8093880208958095909136
:104BB00088028923809388020895109288020895BC
:104BC00080937F02089510927F02089580917F0262
:104BD00008956DEE7EEF80E090E00E94D23460E0B8
:104BE00082E090E00E94B43460E083E090E00E94B4
:104BF000B43460E084E090E00E94B43460E085E08A
:104C000090E00E94B43440E050E0BA0188E090E0C7
:104C10000C94C63480E090E00E94AE3421E08D3EDA
:104C20009E4F09F020E0822F089582E090E00C94DE
:104C3000A03483E090E00C94A034682F83E090E0EF
:104C40000C94B43484E090E00C94A034682F84E099
:104C500090E00C94B434FC0131969C01285F3F4FE6
:104C600080E0919191118F5FE217F307D1F70895DA
:104C70009C01FC0132969FEF80E04191461789F03C
:104C80009F3F19F4411101C0982F8F5F8630A9F71B
:104C90009F3F39F0F901E90FF11D97FDFA95628305
:104CA00008950895FC01329608962081261301C0CC
:104CB00010823196E817F907C1F708950C94382649
:104CC0000C945226FC01319608961192E817F907C8
:104CD000E1F7089508950C946A260E946B2680914E
:104CE0005B03843049F110928C0220E488E190E06B
:104CF0000FB6F894A895809360000FBE20936000D3
:104D000080E00E94D40F0E946B2683B7817F84606D
:104D100083BF83B7816083BF7894889583B78E7F84
:104D200083BF0FB6F894A895809160008861809346
:104D30006000109260000FBE089508950895CF930B
:104D40000E949D260E941A0C0E949E26C0E08C2F75
:104D50000E94810C811104C0CF5FC830C1F701C02F
:104D600081E0CF91089508950C94B3260E94C41F4A
:104D70000E94731B0E94D40F0C94B4261F920F92B2
:104D80000FB60F9211248F939F93AF93BF9380918F
:104D90008C02811113C08091510390915203A09114
:104DA0005303B09154034196A11DB11D809351034B
:104DB00090935203A0935303B0935403BF91AF91C8
:104DC0009F918F910F900FBE0F901F90189582E0CA
:104DD00084BD93E095BD9AEF97BD80936E000895D2
:104DE0002FB7F8948091510390915203A0915303EF
:104DF000B09154032FBF0895CF92DF92EF92FF92AC
:104E00000F931F932FB7F894409151035091520381
:104E100060915303709154032FBF6A017B01EE240C
:104E2000FF248C0120E030E0C016D106E206F30634
:104E300010F4415051099A01281B390BC9011F91E7
:104E40000F91FF90EF90DF90CF90089578941F928C
:104E50000F920FB60F9211248F939F93AF93BF932E
:104E60008091510390915203A0915303B091540348
:104E70000196A11DB11D8093510390935203A093FD
:104E80005303B0935403BF91AF919F918F910F90B3
:104E90000FBE0F901F90189587E797E79093010832
:104EA000809300089AE088E10FB6F894A895809363
:104EB00060000FBE90936000FFCF0E940A26811110
:104EC00002C00E94E9250E94152680938B020E9451
:104ED000222690E090935603809355030E94192652
:104EE000682F70E080E090E00C948223809195021E
:104EF000089508950F931F93CF93DF9300D01F92CF
:104F0000CDB7DEB78C010E948629823011F0843043
:104F100021F583E089831B830A8381E08093E90084
:104F20008FEF9091E800815095FD06C095ED9A9520
:104F3000F1F700008111F5CF8091E80085FF0DC0E9
:104F400040E050E063E070E0CE0101960E94A329AA
:104F50008091E8008E778093E8000F900F900F907B
:104F6000DF91CF911F910F910895CF93DF9300D0E0
:104F70001F92CDB7DEB720915B03243031F522E0DC
:104F80002983805891099B838A8381E08093E9007B
:104F90008FEF9091E800815095FD06C095ED9A95B0
:104FA000F1F700008111F5CF8091E80085FF0DC079
:104FB00040E050E063E070E0CE0101960E94A3293A
:104FC0008091E8008E778093E8000F900F900F900B
:104FD000DF91CF910895CF93DF93EC010E94862952
:104FE000823011F0843039F581E08093E9009FEF41
:104FF0008091E800915085FD06C085ED8A95F1F716
:1050000000009111F5CF8091E80085FF14C040E0C9
:1050100050E068E070E0CE010E94A3299091E80082
:105020009E779093E80098E0FE01ADE8B2E0019031
:105030000D929A95E1F7DF91CF91089580915A03EF
:10504000811109C00E94382B0E94952B8091E200AB
:1050500084608093E200089510925A0308950895A1
:1050600008950C94B62642E061EC81E00C94B22ADB
:1050700080915D03833009F453C030F4813071F0C6
:10508000823009F48CC008958A3009F478C08B30DE
:1050900009F45EC0893009F09AC020C080915C0399
:1050A000813A09F094C08091E800877F8093E800FE
:1050B0008091600390916103892B21F468E08DE871
:1050C00092E003C060E080E090E070E00E94EE2992
:1050D0008091E8008B778093E800089580915C03CD
:1050E000813209F074C08091600390916103892B33
:1050F00009F06DC08091E800877F8093E80080917F
:10510000E80082FD05C080915B038111F8CF5FC08C
:105110008091F100809395028091E8008B7753C0D5
:1051200080915C03813A09F052C0809160039091B4
:105130006103892B09F04BC08091E800877F809341
:10514000E8008091E80080FFFCCF8091800136C0AC
:1051500080915C038132D9F5809160039091610365
:10516000892BA9F58091E800877F8093E8000E9451
:10517000E72A80915E03809380010C94C41F809184
:105180005C03813221F58091E800877F8093E800FD
:105190000E94E72A80915F03809396020895809190
:1051A0005C03813AA1F48091E800877F8093E80056
:1051B0008091E80080FFFCCF809196028093F100FF
:1051C0008091E8008E778093E8000C94E72A089598
:1051D00084B7877F84BF0FB6F894A895809160004C
:1051E000886180936000109260000FBE80E8809319
:1051F0006100109261000E94B61B0E94382B0E9431
:10520000952B8091E20084608093E20078940E9464
:10521000242E0E94BA1B86E791E00E946E1B8091AB
:105220005B03853069F40E946D26809159038823C1
:10523000B1F30E949F26882391F30E948D29EFCF1E
:105240000E94C81B0E942E1BEACF0C942729292FED
:10525000332723303105C1F05CF42130310579F07A
:1052600022303105D1F582E290E028EF3BE039C0F1
:105270002132310521F12232310541F12EC082E186
:1052800090E02AE13CE02DC099278130910571F032
:105290002CF4892B11F5E4EFFBE00DC08230910571
:1052A00041F00397D1F4E0ECFBE005C0EEEDFBE04C
:1052B00002C0E6ECFBE0849190E09F0112C0672BF6
:1052C00061F489E090E02AE03CE00BC0672B29F410
:1052D00080E490E02CE23CE004C080E090E020E03C
:1052E00030E0FA013183208308950895CF93C82FC9
:1052F0000E947529C0939702CF91089580915B0316
:10530000843011F081E0089582E008958091970241
:10531000811102C00C947E29089580E189BD82E14B
:1053200089BD09B400FEFDCF8091D8008F7D8093A8
:10533000D8008091E00082608093E0008091E000DE
:1053400081FDFCCF0895CF92DF92EF92FF920F93F1
:105350001F93CF93DF93EC018B016A010E94062B10
:10536000811133C0C114D10439F0F60180819181DB
:10537000081B190BC80FD91FE12CF12C01151105C1
:1053800019F18091E80085FD16C08091E8008E77C4
:105390008093E800C114D10449F0F6018081918125
:1053A000E80EF91EF182E08285E00FC00E94062B14
:1053B000882321F30AC089918093F10001501109DB
:1053C000FFEFEF1AFF0ADACF80E0DF91CF911F9154
:1053D0000F91FF90EF90DF90CF900895209162039E
:1053E000309163032617370748F06115710539F4CA
:1053F0002091E8002E772093E80001C0B90140E039
:1054000061157105A9F120915B03222309F443C0C2
:10541000253009F442C02091E80023FD40C02091CE
:10542000E80022FD32C02091E80020FFE9CF409142
:10543000F3002091F20030E0342BFC01CF01611524
:10544000710559F02830310540F481918093F100C5
:10545000615071092F5F3F4FF1CF41E02830310596
:1054600009F040E02091E8002E772093E800C8CFB3
:105470004111C9CF0AC080915B03882361F0853058
:1054800061F08091E80083FD0AC08091E80082FF0E
:10549000F2CF80E0089582E0089583E0089581E0EE
:1054A000089520916203309163032617370748F06F
:1054B0006115710539F42091E8002E772093E800FA
:1054C00001C0B901FC0120E06115710591F18091E5
:1054D0005B03882309F440C0853009F43FC0809104
:1054E000E80083FD3DC08091E80082FD2FC08091DF
:1054F000E80080FFE9CF2091F3008091F20090E076
:10550000922B6115710559F08830910540F4249172
:105510002093F1003196615071090196F2CF21E09C
:10552000089709F020E08091E8008E778093E800EA
:10553000CBCF2111CCCF0AC080915B03882361F0CF
:10554000853061F08091E80083FD0AC08091E80019
:1055500082FFF2CF80E0089582E0089583E008950D
:1055600081E00895982F973058F59093E9009817A7
:1055700039F07091EC002091ED005091F00003C0E3
:10558000242F762F50E021FF19C03091EB003E7F91
:105590003093EB003091ED003D7F3093ED00309182
:1055A000EB0031603093EB007093EC002093ED0042
:1055B0005093F0002091EE0027FF07C09F5FD3CFEC
:1055C0008F708093E90081E0089580E008958091D4
:1055D0005C0387FF11C08091E80082FD05C08091C7
:1055E0005B038111F8CF11C08091E8008B770BC06D
:1055F00080915B03882349F08091E80080FFF8CF19
:105600008091E8008E778093E80008952091E4006F
:105610003091E50095E64091EC00842F817040FFC9
:1056200022C08091E80080FD1CC080915B0388232C
:1056300091F0853091F08091EB0085FD10C0409194
:10564000E4005091E5004217530729F39A01915065
:1056500011F784E0089582E0089583E0089581E0E1
:10566000089580E008954091E80042FFDECF08955C
:105670000E94A62B0E94AE2BE0EEF0E080818160BC
:105680008083E8EDF0E080818F77808319BCA7EDFF
:10569000B0E08C918E7F8C9380818F7E808310927E
:1056A0005A0308950F931F93CF93DF930E94A62B65
:1056B0000E94AE2BC8EDD0E088818F7788838881E7
:1056C0008068888388818F7D888319BC10925B03F2
:1056D00010925703109259031092580300EE10E0F5
:1056E000F80180818B7F808388818160888342E09C
:1056F00060E080E00E94B22AE1EEF0E080818E7FDF
:105700008083E2EEF0E08081816080838081886028
:105710008083F80180818E7F808388818061888387
:10572000DF91CF911F910F910895E8EDF0E0808116
:105730008F7E8083E7EDF0E080818160808384E06C
:1057400082BF81E080935A030C94522BE8EDF0E085
:1057500080818E7F80831092E20008951092DA009B
:105760001092E10008951F920F920FB60F9211242C
:105770002F933F934F935F936F937F938F939F9359
:10578000AF93BF93EF93FF938091E10082FF0BC033
:105790008091E20082FF07C08091E1008B7F8093BF
:1057A000E1000E94232E8091DA0080FF1FC08091CB
:1057B000D80080FF1BC08091DA008E7F8093DA00D2
:1057C0008091D90080FF0DC080E189BD82E189BD53
:1057D00009B400FEFDCF81E080935B030E941E2888
:1057E00005C019BC10925B030E942C288091E10037
:1057F00080FF19C08091E20080FF15C08091E20017
:105800008E7F8093E2008091E20080618093E200CD
:105810008091D80080628093D80019BC85E0809385
:105820005B030E9430288091E10084FF30C08091AA
:10583000E20084FF2CC080E189BD82E189BD09B40A
:1058400000FEFDCF8091D8008F7D8093D80080919D
:10585000E1008F7E8093E1008091E2008F7E809353
:10586000E2008091E20081608093E2008091570322
:10587000882311F084E007C08091E30087FD02C017
:1058800081E001C083E080935B030E943128809116
:10589000E10083FF29C08091E20083FF25C0809151
:1058A000E100877F8093E10082E080935B031092A8
:1058B00057038091E1008E7F8093E1008091E200A8
:1058C0008E7F8093E2008091E20080618093E2000D
:1058D00042E060E080E00E94B22A8091F00088609F
:1058E0008093F0000E942F28FF91EF91BF91AF911C
:1058F0009F918F917F916F915F914F913F912F91E8
:105900000F900FBE0F901F9018951F920F920FB619
:105910000F9211242F933F934F935F936F937F9335
:105920008F939F93AF93BF93CF93DF93EF93FF93A7
:10593000C091E900CF708091EC00D82FD17080FD2C
:10594000D0E81092E9008091F000877F8093F0000A
:1059500078940E94C92C1092E9008091F000886030
:105960008093F000CD2BCF70C093E900FF91EF91B1
:10597000DF91CF91BF91AF919F918F917F916F9167
:105980005F914F913F912F910F900FBE0F901F90FD
:1059900018951F93CF93DF93CDB7DEB7AA970FB6B5
:1059A000F894DEBF0FBECDBFECE5F3E088E08E0FCC
:1059B0009091F10091938E13FBCF0E943828809133
:1059C000E80083FF28C180915C0390915D03492F1B
:1059D00050E04A30510508F01EC1FA01E556FF4F6C
:1059E0000C94B031803821F0823809F014C108C01D
:1059F0008091580390915903992389F082600FC0D8
:105A0000809160038F70873008F005C18093E900B2
:105A10008091EB0085FB882780F91092E900909136
:105A2000E800977F9093E8008093F1001092F100D6
:105A3000D0C0282F2D7F09F0EEC0882319F08230C6
:105A400061F0E9C080915E03813009F0E4C09330D9
:105A500009F080E0809359032EC080915E0381118C
:105A60002AC0809160038F702FEF280F263008F036
:105A7000D2C08093E9002091EB0020FF1CC093303E
:105A800021F48091EB00806214C09091EB00906152
:105A90009093EB0021E030E0A90102C0440F551FB4
:105AA0008A95E2F74093EA001092EA008091EB00B9
:105AB00088608093EB001092E9008091E800877F76
:105AC0008093E8000E94E72AA6C08111A4C010912B
:105AD0005E031F778091E3008078812B8093E30041
