:100000000C948A060C94D1060C94D1060C944208E8
:100010000C94D1060C94D1060C94D1060C94D10604
:100020000C94D1060C94D1060C940B2C0C94DD2C62
:100030000C9416270C94D1060C94D1060C94D1067E
:100040000C94D1060C94D1060C94D1060C94D106D4
:100050000C94D1060C947E270C94D1060C94D106F6
:100060000C94D1060C94D1060C94D1060C94D106B4
:100070000C94D1060C94D1060C94D1060C94D106A4
:100080000C94D1060C94D1060C94D1060C94D10694
:100090000C942B070C94D1060C94D1060C94D10629
:1000A0000C94D1060C94D1060C94D10605120712BB
:1000B000121209120B120D120F1211121412161233
:1000C000181223121A121C121E12201222122512AA
:1000D0000D1E0D1E3F1E3F1EAB1FAB1FAB1FAB1FE8
:1000E0007F1EAB1F2C1F2C1F9B1FAB1FAB1FA41F02
:1000F000391F391F391F391F391F391F391F391F40
:10010000391F391F391F391F391F391F391F391F2F
:10011000481F561F5D1F641F6E1F2E202E2040207B
:10012000402037204020402040202E202E203C2000
:10013000402040203C204A2D712D632E712D632ECE
:10014000BD2DE02D632E362E452E07634236B79B1C
:10015000D8A71A39685618AEBAAB558C1D3CB7CC27
:100160005763BD6DEDFD753EF6177231BF0000009F
:10017000803F05A84CCDB2D44EB93836A9020C50F8
:10018000B9918688083CA6AAAA2ABE000000803F32
:100190000000000000003E5B4F5B3E003E6B4F6B7B
:1001A0003E001C3E7C3E1C00183C7E3C18001C5748
:1001B0007D571C001C5E7F5E1C0000183C18000070
:1001C000FFE7C3E7FF00001824180000FFE7DBE7A4
:1001D000FF0030483A060E00262979292600407F84
:1001E00005050700407F05253F005A3CE73C5A00C3
:1001F0007F3E1C1C0800081C1C3E7F0014227F222E
:1002000014005F5F005F5F0006097F017F000066EA
:1002100089956A0060606060600094A2FFA294000B
:1002200008047E04080010207E20100008082A1C04
:100230000800081C2A0808001E10101010000C1ED0
:100240000C1E0C0030383E383000060E3E0E060004
:1002500000000000000000005F0000000007000731
:100260000000147F147F1400242A7F2A1200231315
:100270000864620036495620500000080703000059
:10028000001C224100000041221C00002A1C7F1C8F
:100290002A0008083E0808000080703000000808A6
:1002A0000808080000006060000020100804020038
:1002B0003E5149453E0000427F4000007249494995
:1002C00046002141494D33001814127F1000274584
:1002D000454539003C4A494931004121110907008F
:1002E000364949493600464949291E000000140094
:1002F00000000040340000000008142241001414E3
:1003000014141400004122140800020159090600C7
:100310003E415D594E007C1211127C007F494949D3
:1003200036003E41414122007F4141413E007F492C
:10033000494941007F09090901003E4141517300CB
:100340007F0808087F0000417F4100002040413FB6
:1003500001007F08142241007F40404040007F029E
:100360001C027F007F0408107F003E4141413E0097
:100370007F09090906003E4151215E007F091929C4
:10038000460026494949320003017F0103003F40EE
:1003900040403F001F2040201F003F4038403F00AA
:1003A0006314081463000304780403006159494D81
:1003B0004300007F41414100020408102000004139
:1003C00041417F00040201020400404040404000DF
:1003D0000003070800002054547840007F2844445C
:1003E0003800384444442800384444287F003854B6
:1003F0005454180000087E09020018A4A49C780038
:100400007F080404780000447D4000002040403D07
:1004100000007F102844000000417F4000007C0461
:10042000780478007C080404780038444444380098
:10043000FC182424180018242418FC007C08040448
:10044000080048545454240004043F4424003C4011
:1004500040207C001C2040201C003C4030403C00E0
:100460004428102844004C9090907C004464544CE4
:100470004400000836410000000077000000004101
:10048000360800000201020402003C2623263C003C
:1004900003071F7FFFFFFEF8F0C020F8FEFFFE7984
:1004A000271F7FFFFFFEF8F0C020F8FEFFFF7F3F11
:1004B0003F7FFFFEF8F0C000000000FFFFFFFFFFDE
:1004C000FF00000000000000FF7F7F7FBFBFC0C0B3
:1004D000C0E0E0E0E0F0F0F0F878787C3C3CFEFE34
:1004E000FEFFFFFF00000000000000000000808011
:1004F000BFBFDFDFEFEF0003071F7FFFFFFFFEF847
:10050000E0C0E0F8FEFFFFFF7F1F07030000E0F000
:10051000F0F0E0ECEEF7F37020007C7C7C7E007E57
:100520007E7E7F7F7F000080C0E07E5B4F5BFEC0F1
:100530000000C000DCD7DEDEDED7DC00C00000003B
:1005400000000000000000000000000000000000AB
:1005500000000000C1F3CFBF7FFFFFFCFBE781007D
:1005600000000080E3CF3FFFFFFFFCFBE7810000BE
:10057000000081E7FFFFFFFF3C0000FFFFFFFFFFE0
:10058000FFF8F8FC7C7E7E3EFEFFFFFFFFFFF7F7E3
:10059000F7FBFB7D7D7DBEBEBEDFDFE0E000FFFF41
:1005A000FFFFFFFF00FCFC7C7E7E3E3E1F1F1F0FF7
:1005B000FFFFFFFFFFFF000000000081E7FFFFFFDC
:1005C000FFFFFFFFFFFFE7810000000000000F1F9B
:1005D0003F7F7F7F7F7F3F1E0C001F1F1F3F003F1D
:1005E0003F3F7F7F7F00307B7F7830202030787FD7
:1005F0003B0003000F7F0F0F0F7F0F000300000071
:1006000000000000000000000000000000000000EA
:1006100060707C7F7F7F7F1F0601030F3F7F7F7E9F
:100620007C7C7E7F7F7F1F0601070F3F7F7F7E7C64
:100630007C7E7F7F3F0F03000000007F7F7F7F7FF6
:100640007F000000000000007F7F7F7F7F7F7D7D37
:100650003D3E1E1F1F1F0F0F0707070303007F7F6D
:100660007F7F7F7F7C7C7C7C7C7C7C7C7C7C7C003A
:100670007F7F7F7F7F7F004070787E7F7F7F3F0F0F
:100680000301030F3F7F7F7F7E78704000000000F2
:10069000000000000000000000000000000000005A
:1006A000000000000000000000000000000000004A
:1006B000000000000000000000000000000000003A
:1006C000000000000000000000000000000000002A
:1006D00041646A757374004C6F776572005261698A
:1006E00073650044656661756C74000A4C617965D8
:1006F000723A20000A000A0002E26003E20002E20D
:100700006003E20035001E001F00200021002200CF
:1007100000002B0014001A0008001500170000004C
:10072000E00004001600070009000A000000E100D4
:100730001D001B000600190005002F00E05C2900C9
:10074000E200E300E25CDE5C2C004C0027002600A7
:1007500025002400230000002A00130012000C00D2
:1007600018001C000000340033000F000E000D00C4
:100770000B00000028003800370036001000110080
:1007800030004F00520051005000E35CDF5C2C0051
:1007900035001E001F0020002100220000002B0059
:1007A00014001A00090013000A000000E000040011
:1007B00015001600170007000000E1001D001B00D7
:1007C0000600190005002F00E05C2900E200E300AC
:1007D000E25CDE5C2C004C00270026002500240093
:1007E000230000002A0033001C0018000F000D0039
:1007F0000000340012000C00080011000B00000083
:10080000280038003700360010000E0030004F007E
:10081000520051005000E35CDF5C2C0035001E00EC
:100820001F0020002100220000002B0034003600B1
:10083000370013001C000000E00004001200080054
:1008400018000C000000E100330014000D000E0041
:100850001B002F00E05C2900E200E300E25CDE5CAC
:100860002C002A0027002600250024002300000079
:100870004C000F00150006000A00090000003800B7
:100880001600110017000B000700000028001D00D3
:1008900019001A001000050030004F0052005100EE
:1008A0005000E35CDF5C2C0035021E021F022002B8
:1008B00021022202000035021E021F022002210234
:1008C0002202000001003A003B003C003D003E00D7
:1008D00000000100400041004200430044002602A5
:1008E0000100010001000100010001000100010000
:1008F000270226022502240223020000010027020B
:1009000026022502240223020000310230022F02B7
:100910002E022D023F00000001004D004A000100A0
:10092000010045002702AE00A900AA00AB000100AB
:100930000100010035001E001F00200021002200E0
:10094000000035001E001F002000210022000000D2
:1009500001003A003B003C003D003E000000010069
:10096000400041004200430044000100010001003A
:10097000010001000100010001002A0027002600FB
:1009800025002400230000004C002700260025003D
:10099000240023000000310030002F002E002D0025
:1009A0003F00000001004B004E0001000100450027
:1009B0000100AE00A900AA00AB0001000100010087
:1009C0003A003B003C003D003E003F0000000100BB
:1009D000005CE45C01000100010000000100010076
:1009E00001001D5C1E5C135C0000010001000100A1
:1009F00001000100010001000100010001000100EF
:100A00000100010001004500440043004200410094
:100A1000400000004C000100010001000100010045
:100A2000000001000100DD5CDC5CDB5C0A5C0000B6
:100A3000C75CC55CC35CC05C010001000100C85C10
:100A4000C65CC45CC15C0100010001000000000044
:100A5000000000002A2B2800000000000000000019
:100A60000000000000000029000000002C1E3420BF
:100A7000212224342627252E362D3738271E1F20E5
:100A80002122232425263333362E37381F0405062A
:100A90000708090A0B0C0D0E0F101112131415166E
:100AA0001718191A1B1C1D2F3130232D350405066C
:100AB0000708090A0B0C0D0E0F101112131415164E
:100AC0001718191A1B1C1D2F3130354C000000005F
:100AD0000000000000000000000000000000000016
:100AE0000000000000000000000000000001010103
:100AF00001010100010101010000000000000000EF
:100B000000000000000001000100010101010101DD
:100B100001010101010101010101010101010101C5
:100B200001010101010101000000010100000000BC
:100B300000000000000000000000000000000000B5
:100B400000000000000000010101010000047F3FDF
:100B50001F643214643214783C1E1E140A056801A6
:100B6000F000B40078005A0000000000000101010C
:100B7000010101010101020202020202020202035A
:100B80000303030303030304040404040405050529
:100B900005050606060606070707070808080809E8
:100BA00009090A0A0A0A0B0B0B0C0C0C0D0D0D0E91
:100BB0000E0F0F0F10101111111212131314141520
:100BC0001516161717181819191A1A1B1C1C1D1D93
:100BD0001E1F1F20202122222324252526272728E7
:100BE000292A2B2B2C2D2E2F2F3031323334353612
:100BF000363738393A3B3C3D3E3F4041424344461C
:100C00004748494A4B4C4D4F5051525355565758EF
:100C10005A5B5C5E5F606263646667696A6C6D6E96
:100C2000707173747678797B7C7E8081838486880A
:100C30008A8B8D8F91929496989A9B9D9FA1A3A544
:100C4000A7A9ABADAFB1B3B5B7B9BBBDBFC1C4C642
:100C5000C8CACCCFD1D3D6D8DADCDFE1E4E6E8EB02
:100C6000EDF0F2F5F7FAFCFF040330000000160384
:100C7000480065006C0069007800200042006500B3
:100C800074006100000014035900750073006800CF
:100C900061006B006F0062006F0000000403090434
:100CA00009022200010100A0C8090400000103019B
:100CB00001000921110100012240000705810308FC
:100CC000000A1201100100000008EDFE6030010072
:100CD0000102030105010906A101050719E029E741
:100CE000150025019508750181029501750881019E
:100CF00005081901290595057501910295017503EE
:100D000091010507190029FF150026FF00950675BA
:100D1000088100C011241FBECFEFDAE0DEBFCDBFD7
:100D200004B603FE27C080918D0390918E03A0919D
:100D30008F03B09190038730904BA740B04BD1F414
:100D400010928D0310928E0310928F0310929003D5
:100D500014BE84B7877F84BF0FB6F894A89580919E
:100D60006000886180936000109260000FBEE0E038
:100D7000F8E3099511E0A0E0B1E0E2EFFAE602C085
:100D800005900D92A23CB107D9F723E0A2ECB1E0A7
:100D900001C01D92AD38B207E1F70E9440290C94C2
:100DA00077350C94000083E390E02091BC0027FD90
:100DB00002C00197D1F708951092B9008CE080939A
:100DC000B8000895CF93DF931F92CDB7DEB794EAB2
:100DD0009093BC0089830E94D3069091B900987FBC
:100DE0008981983039F09091B900987F903111F055
:100DF00081E012C08093BB0084E88093BC000E9415
:100E0000D3068091B900887F883129F08091B9009C
:100E1000887F803469F780E00F90DF91CF9108954B
:100E200084E98093BC0083E390E02091BC0024FD22
:100E300002C00197D1F708958093BB0084E88093A6
:100E4000BC000E94D3069091B900987F81E098324F
:100E500009F480E008951F920F920FB60F921124AB
:100E60008F939F93EF93FF938091B900887F803891
:100E700069F038F48823C9F18036C9F51092C201AF
:100E800036C0883A09F1883BF9F031C08091C2013F
:100E9000811111C08091BB008093C3018091C30177
:100EA000803120F01092C30180E001C081E091E028
:100EB0009093C2011DC0E091C301F0E08091BB009E
:100EC000E455FD4F808308C0E091C301F0E0E45594
:100ED000FD4F80818093BB008091C30190E001961B
:100EE0008F7099278093C30102C01092BC0081E0EB
:100EF0009091BC0095688295880F880F807C892B23
:100F00008093BC00FF91EF919F918F910F900FBE46
:100F10000F901F9018955A9880E28A95F1F75A9A87
:100F20000895FC014AE04A95F1F730E090E080E056
:100F300021E0961779F040E14A95F1F7880F4A9B36
:100F400002C08160322700C0000040E14A95F1F7FD
:100F50009F5FEFCF90E19A95F1F729B100C00000B3
:100F600040E14A95F1F722FB992790F993272081D8
:100F7000920F908308958EE14A9B02C08150E1F761
:100F80004A9BFECF0895EF92FF920F931F93CF934A
:100F9000DF931F92CDB7DEB7F62E1982E82E8C01B3
:100FA000802F8E198F1558F40E94BB0768E0CE0180
:100FB00001960E949107F80181938F01F1CF81E0A2
:100FC0009981911180E00F90DF91CF911F910F9146
:100FD000FF90EF9008959093C5018093C401529AB9
:100FE0005A9A08959093C5018093C40152985A9AD1
:100FF000EA9AE9E6F0E080818F7C80830895615071
:1010000091E001C0990F6A95EAF720E031E0992359
:1010100061F0492F482319F05A9A232701C05A98A2
:1010200040E24A95F1F79695F2CF222311F05A9AB1
:1010300001C05A9880E28A95F1F75A980895EF9284
:10104000FF920F931F93CF93DF931F92CDB7DEB71D
:10105000162F082F7C018E2D801B811758F4F70165
:1010600081917F0189830E948B0768E089810E94BA
:10107000FF07F1CF0F90DF91CF911F910F91FF905C
:10108000EF9008951F920F920FB60F9211240F93B5
:101090001F932F933F934F935F936F937F938F9300
:1010A0009F93AF93BF93EF93FF93CF93DF931F92E1
:1010B000CDB7DEB719820E94BB0764E0CE0101966E
:1010C0000E9491079981911140C090E19A95F1F7A2
:1010D0005A9A529AA2E0AA95F1F700C00091C40171
:1010E0001091C501B8E08B9F000D111D11245A9875
:1010F000F8016581662321F0868197810E941F088F
:101100000E948B07F0E1FA95F1F75A9852985A9A93
:1011100080E18A95F1F7D80112966C9112976623B7
:1011200069F013968D919C9114970E94C307D80182
:10113000ED91FC91811105C082E004C0D801ED91D0
:10114000FC9184E080830E94BB070F90DF91CF91D8
:10115000FF91EF91BF91AF919F918F917F916F918F
:101160005F914F913F912F911F910F910F900FBE63
:101170000F901F9018950F931F93CF93DF938C01BF
:101180009C0183E0220F331F8A95E1F7C091C401CF
:10119000D091C501C20FD31FF894529A5A9885E096
:1011A0008A95F1F700000E948B0784E08A95F1F799
:1011B00000C064E0802F0E94FF0780E18A95F1F76C
:1011C00052985A9A4A9902C000C0FCCF87E090E03A
:1011D0004A9B0EC0019751F4529A5A9AE881F981BC
:1011E00081E08083789481E090E02EC000C0F0CF51
:1011F0006D81662381F08E819F810E94C3078111DA
:101200000AC0529A5A9AE881F98182E080837894E0
:1012100082E090E019C00E94BB0780E28A95F1F756
:101220005A98529A80E18A95F1F76A81662321F0F3
:101230008B819C810E941F080E948B07E881F981A5
:101240001082789480E090E0DF91CF911F910F9110
:101250000895CF93C82F88E70E94E20681110AC043
:1012600080E00E941C07811105C08C2F0E941C0782
:10127000C1E08111C0E00E9410078C2FCF9108952A
:10128000CF93DF931F92CDB7DEB769830E94290900
:101290006981882331F0862F0F90DF91CF910C94D4
:1012A000290980E00F90DF91CF910895CF93C62F49
:1012B0000E942909882349F080E00E942909882397
:1012C00021F08C2FCF910C94290980E0CF910895C3
:1012D0008FEA0C9429090F931F93CF93DF938C010E
:1012E0000C5A1F4FD801ED91FC91119760832D91FD
:1012F0003C9111972F5F3F4F2D933C93281B390B47
:1013000024353105B9F4EC01BC016B5E7F4F4FE32E
:1013100050E00E942832CE01CF96F801918380835D
:1013200045E150E060E270E0DF91CF911F910F91B5
:101330000C943A32DF91CF911F910F9108951F9332
:10134000CF93DF93FC01EA5AFF4F21E020836A30FC
:1013500099F4EC013297808191818C1B9D0B65E1A2
:1013600070E00E94F431182F153158F460E2CE017C
:101370000E946B091F5FF8CFDF91CF911F910C94F2
:101380006B09DF91CF911F910895EF92FF920F9318
:101390001F93CF93DF937C01EB01FB0101900020B1
:1013A000E9F78F0101501109C017D10728F469919D
:1013B000C7010E949F09F8CFDF91CF911F910F9134
:1013C000FF90EF9008950F931F93CF93DF938C01BD
:1013D000EB01FE016491662329F0C8010E949F0978
:1013E0002196F7CFDF91CF911F910F910895CF9361
:1013F000DF93EC0144E550E060E270E00E943A3295
:10140000FE01EC5AFF4FD183C083CA5ADF4F81E0FF
:101410008883DF91CF9108958F929F92AF92BF9270
:10142000DF92EF92FF920F931F93CF93DF93EC0124
:101430000E9448279093C7018093C6010E946809C3
:1014400063E082E20E945609882309F43CC06DE7FC
:1014500081E20E9456098823B1F188E70E94E206E2
:10146000811131C080E40E941C0781112CC04E0103
:1014700084E0D82E00E010E0F401E00FF11FA0801E
:1014800086E0A89E50011124E12CF12CF701EA0D11
:10149000FB1DE057FE4F84910E941C078FEFE81A56
:1014A000F80A86E0E816F10489F70F5F1F4F05314F
:1014B000110511F7DA9485E1880E911CD110DACF6D
:1014C000CA5ADF4F1882DF91CF911F910F91FF9081
:1014D000EF90DF90BF90AF909F908F900C9410078B
:1014E0008CEB92E00C940C0ACF93DF93C82F0E94F0
:1014F000DC068EEA0E942909811102C080E09BC0AF
:1015000060E885ED0E9440098823C1F36FE188EA15
:101510000E944009882391F360E083ED0E94400916
:10152000882361F380E40E942909882339F364E168
:101530008DE80E944009882309F360E080E20E9460
:1015400040098823D9F2CC2339F080EA0E94290986
:101550008823A1F280EC06C081EA0E942909882331
:1015600069F288EC0E942909882341F262E08AED41
:101570000E944009882311F26FE881E80E94400927
:10158000882309F4BBCF61EF89ED0E9440098823CD
:1015900009F4B4CF60E48BED0E944009882309F47C
:1015A000ADCF84EA0E942909882309F4A7CF86EAEF
:1015B0000E942909882309F4A1CF8EE20E942909FB
:1015C000882309F49BCF8FEA0E942909882309F414
:1015D00095CF60E081E80E944009882309F48ECF0E
:1015E0008CEB92E00E94F70963E082E20E945609C8
:1015F0008823E1F06FE781E20E9456098823B1F069
:1016000088E70E94E206811111C080E40E941C0755
:1016100081110CC0D4E0C0E080E00E941C07CF5FC5
:10162000C038D1F7D150B9F7109212030E941007B9
:101630000E94700A81E0DF91CF9108950E948F0F80
:101640008091120381110E94700A8091C6019091CD
:10165000C7010C945427A8E8B1E041E050E08D9117
:10166000E82FE295EF70F0E021A18F70BA0102C07F
:10167000660F771F8A95E2F7CB01962F90959223FC
:1016800091A392A1892B82A371E0AD38B70739F7F6
:1016900008950C94950E80919F02836088608093DA
:1016A0009F020E942B0BA1E8B1E041E050E08D9138
:1016B000E82FE295EF70F0E021A18F70BA0102C02F
:1016C000660F771F8A95E2F7CB01962F90959223AC
:1016D00091A392A1892B82A371E0A838B70739F7AB
:1016E000559A209A5D9A289AA8ECB1E0E2EDF1E0D3
:1016F0008AE08E0F11921D928E13FCCF0E94D60CA1
:101700008093DC010C941E109F92AF92BF92CF92F7
:10171000DF92EF92FF920F931F93CF93DF9380910D
:101720000101811103C005E010E002C000E010E0FB
:10173000A80148535E4F7A01EA0188E8C82E81E08B
:10174000D82EAA24A394B12C25E0922E8DE8C81699
:1017500081E0D80609F448C0F60181916F01E82FB5
:10176000E295EF70F0E021A18F70A50102C0440F57
:10177000551F8A95E2F7CA01922F982B91A392A147
:101780008095892382A350EA5A95F1F7E1E8F1E0C8
:1017900020E040E050E03191A32FA295AF70B0E07F
:1017A00090968C9190E03F7002C0959587953A9500
:1017B000E2F780FD07C0C501042E01C0880F0A941E
:1017C000EAF702C080E090E0282B4F5F5F4F473080
:1017D000510509F78881821719F02883909200013A
:1017E0000E942B0B2196B2CF809100018823E1F05B
:1017F000815080930001882339F0EFE9FFE03197B1
:10180000F1F700C0000010C080E090E0FC01E00FA4
:10181000F11FEE52FE4FD701A80FB91F2C91208364
:1018200001968530910591F781E0DF91CF911F916D
:101830000F91FF90EF90DF90CF90BF90AF909F906F
:101840000895CF93DF9320910101211103C0C0E0DF
:10185000D0E002C0C5E0D0E00E94FC0C009721F06F
:10186000029781F428980EC0289ADE01AE52BE4F2E
:1018700085E0E8EEF1E001900D928A95E1F780E0D5
:1018800090E002C081E090E0DF91CF9108950E9446
:10189000840B80910101811103C045E050E002C03A
:1018A00040E050E080E090E020E0DC01A851BE4F35
:1018B0006C91FC01E40FF51FEE52FE4F3081631373
:1018C00021E03C9301968530910579F78091E00104
:1018D000280F2093E0010895CF93DF938091DC01DE
:1018E000882309F442C00E94840B80910101811178
:1018F00003C0C5E0D0E002C0C0E0D0E0CE52DE4F71
:1019000045E050E0BE0183EE91E00E941B3225E0ED
:10191000FE01A3EEB1E001900D922A95E1F70E943D
:10192000210C892BF1F05D988091DD018F5F809310
:10193000DD01863070F180910101811103C020E04A
:1019400030E002C025E030E080E090E0FC01E20FF2
:10195000F31FEE52FE4F1082019685309105B1F7CC
:1019600018C05D9A1092DD0114C00E94470C80914E
:101970000101811103C0A0E0B0E002C0A5E0B0E029
:10198000AE52BE4F85E0E3EEF1E001900D928A95F4
:10199000E1F70E94201081E0DF91CF910895E82FB8
:1019A000F0E0EE52FE4F808108950895E8EDF0E0FA
:1019B0008081806180838AE18A95F1F700C08091FF
:1019C000D900817008950E94D60C809301010E9475
:1019D000D60C882319F00E94F40C02C00E94F80C67
:1019E000789408950C94E30C82E091E00C94EB075A
:1019F00082E091E00C94F207CF93DF93EC01909199
:101A00001A018091E001981751F082E090E00E9465
:101A1000BB08892B21F48091E00180931A01CD2B22
:101A200049F48091DE019091DF01892B19F480E067
:101A300090E002C081E090E00E94BB0821E030E02D
:101A4000009711F420E030E03093DF012093DE01B5
:101A5000DF91CF9108952BB1342F309523233BB1E3
:101A6000432B3FB7F894FC01680F791FE617F7077F
:101A700089F0819198E04BB9000000C087FF2BB935
:101A8000880F000000C000C000C02BB900C09A95AC
:101A900091F7ECCF3FBF08952AB1242B2AB99B01BF
:101AA000220F331F620F731F0E942B0D87EC90E0F3
:101AB0000197F1F700C00000089548E00C944C0D28
:101AC00008950C94850ECF93DF93EC010E94752648
:101AD000BE0180E090E0DF91CF910C94DA23CF92A9
:101AE000DF92EF92FF920F931F9301E010E020E04E
:101AF00030E06801790104C0CC0CDD1CEE1CFF1C39
:101B00008A95D2F704C0000F111F221F331F6A9558
:101B1000D2F70C291D292E293F29C0908A02D09086
:101B20008B02E0908C02F0908D02C022D122E22242
:101B3000F322842FC016D106E206F30641F41F916A
:101B40000F91FF90EF90DF90CF900C943B241F916A
:101B50000F91FF90EF90DF90CF900C945C24CF9387
:101B6000FB018E3D2CE5920709F444C090F48B3DB7
:101B70002CE5920739F128F4813C9C4509F474C0A6
:101B8000C0C08C3D2CE5920721F18D3D9C4559F15B
:101B9000B8C0823E2CE5920709F47AC048F48F3D24
:101BA0002CE59207C9F1803E9C4509F453C0A9C0B9
:101BB000833E2CE5920709F47CC0843E9C4509F4E1
:101BC0008FC09FC0C281CC2309F49CC081E090E00B
:101BD00006C0C281CC2309F495C082E090E00E9447
:101BE000630DC0E08FC0C281CC2309F48BC084E0B8
:101BF00090E0F5CFC281CC2349F08091ED018111B5
:101C000003C081E08093ED0183E011C01092ED01EB
:101C100083E00E945C2418C0C281CC2381F08091B3
:101C2000ED01811103C081E08093ED0184E00E9409
:101C30003B2445E064E083E00E946F0DD2CF84E056
:101C40000E945C241092ED0145E064E083E00E9474
:101C50006F0D58C0C28185E0CC2319F00E943B244F
:101C6000C0CF0E945C244EC0C281CC2309F44AC07C
:101C7000809113030E94F5170E94F81780911503B5
:101C800086958F7390E09093140380931303A9CFEC
:101C9000C281CC2361F080917E0382FBCC27C0F906
:101CA00082FD02C081E910C08EEF96E012C081E98A
:101CB00014C0C281CC2381F080917E0382FBCC27AB
:101CC000C0F982FD04C080E90E94FA1C1BC088EFA5
:101CD00096E00E941B1085CF80E90E949D1D12C0D6
:101CE000C281CC2371F00E94BC150E940B18809118
:101CF000150386958F7390E09093140380931303DC
:101D000001C0C1E08C2FCF91089580911503869575
:101D10008F7390E090931403809313030E94D60C6A
:101D200091E089270C94740A08950E94940E0C94F3
:101D30001E0B0F931F93CF93DF93EC018B0144E5B0
:101D400050E00E941B32892B59F084E5F801DE0136
:101D500001900D928A95E1F7CA5ADF4F81E088839E
:101D6000DF91CF911F910F910895CF92DF92EF9263
:101D7000FF920F931F93CF93DF93CDB7DEB7C0557C
:101D8000D1090FB6F894DEBF0FBECDBF8C01809194
:101D90007E0382FD0DC06BE571E0C8010E94C5099C
:101DA00066EF76E0C8010E94E3096EE571E00CC0C1
:101DB00061E671E0C8010E94C50964EF76E0C801E0
:101DC0000E94E30964E671E0C8010E94C5098091A0
:101DD0008D028F9380918C028F9380918B028F93D1
:101DE00080918A028F938CEA91E09F938F931F9248
:101DF00088E28F937E0189E2E80EF11CFF92EF9258
:101E00000E9441326BEE76E0C8010E94E3090FB6F2
:101E1000F894DEBF0FBECDBF80918A0290918B02F5
:101E2000A0918C02B0918D0280319105A105B10580
:101E3000C9F058F40097A105B10589F00897A105EC
:101E4000B105C9F467ED76E00FC080329105A105B8
:101E5000B10571F0C897A105B10551F00CC063EE52
:101E600076E002C06DED76E0C8010E94E30907C08C
:101E700060ED76E0F9CFB701C8010E94C5090E9464
:101E8000CB1B82FD05C037EAC32E31E0D32E04C040
:101E900022E9C22E21E0D22E0E94CB1B81FD05C07B
:101EA00097EAE92E91E0F92E04C087E9E82E81E057
:101EB000F82E0E94CB1B80FD03C084EA91E002C093
:101EC0008CE991E0DF92CF92FF92EF929F938F93F4
:101ED00086EB91E09F938F931F9288E28F93CE01C0
:101EE00001967C019F938F930E944132B701C801F4
:101EF0000E94C5090FB6F894DEBF0FBECDBFC05B10
:101F0000DF4F0FB6F894DEBF0FBECDBFDF91CF918C
:101F10001F910F91FF90EF90DF90CF900895CF9396
:101F2000DF93CDB7DEB7C755D1090FB6F894DEBF42
:101F30000FBECDBFCE0101960E94F7098091DC0152
:101F4000882329F0CE0101960E94B50E06C06BE1F0
:101F500071E0CE0101960E94C509BE016F5F7F4FFF
:101F60008CEB92E00E94990EC95ADF4F0FB6F8949D
:101F7000DEBF0FBECDBFDF91CF91089581E0089500
:101F80000C94AF0DCF93282F30E0F901E45BF54FAF
:101F9000C491F901E453F54F2491222359F081EEC5
:101FA0000E94FA1C8C2F0E94FA1C8C2F0E949D1DEF
:101FB00081EE04C08C2F0E94FA1C8C2FCF910C94C0
:101FC0009D1D0F931F93CF93DF93EC01062FFE010E
:101FD0008491882359F19E012F5F3F4F813041F456
:101FE000E901F9011491812F0E94FA1C812F0DC083
:101FF000823031F4E901F90184910E94FA1C0AC08F
:10200000833031F4E901F90184910E949D1D02C0E1
:102010000E94C20F2196802F8823C9F2EFE9FFE0CA
:102020003197F1F700C000008150F6CFDF91CF91DA
:102030001F910F91089560E00C94E10F0C94610DD5
:102040000C94490B0C94600D08950E941C200E9472
:1020500024102FEF84E39CE0215080409040E1F772
:1020600000C0000087E797E790930108809300087D
:102070000C94A427FF920F931F93CF93DF938C01AF
:10208000FC01C081D18180912402811113C0828121
:10209000882349F0CE010E943425F82E682FCE0106
:1020A0000E94D92404C0CE010E940825F82EBE014A
:1020B0008F2D04C0CE010E943425BE010E94D7128C
:1020C000EC01B8010E94C00F882309F465C2C93C25
:1020D000FCE5DF0709F4CEC0D8F5C13C9CE5D90783
:1020E00009F48EC0E8F4C531FCE5DF0778F4C230AE
:1020F0008CE5D80708F067C1C1159CE5D90709F43C
:1021000064C0C130DC4509F468C039C2C631FCE5A1
:10211000DF0709F40DC2C03CDC4509F469C02FC2D9
:10212000F8018281C53CFCE5DF0709F48BC040F46F
:10213000C33CECE5DE0709F479C008F46DC07CC04F
:10214000C73C9CE5D90709F489C008F481C08CC05C
:10215000C13DFCE5DF0709F406C1C0F4F801828146
:10216000CD3CFCE5DF0709F4ACC040F4CB3CECE52A
:10217000DE0709F48DC008F485C08FC0CF3C9CE514
:10218000D90709F4C8C008F4B0C0D9C0C53DFCE502
:10219000DF0709F48BC150F4F8018281C33DFCE5EF
:1021A000DF0709F4FBC008F4E5C05FC1C93DECE5F9
:1021B000DE0709F4F8C0CA3DFCE5DF0709F4FAC000
:1021C000C63DDC4509F0DBC198C1F8018281882356
:1021D00009F4E2C10E942510DFC1F8018281882341
:1021E00009F4DAC180919F02816080939F02D4C17B
:1021F000F8018281882309F4CFC10E949318CCC1D1
:10220000F8018281882309F4C7C10E9405268272E1
:1022100051F00E940218C0C1882309F4BDC10E9478
:1022200005268272B1F30E94F817B6C1882309F41B
:10223000B3C10E940A17B0C1882309F4ADC10E943E
:102240002217AAC1882309F4A7C10E944117A4C17B
:10225000882309F4A1C10E945C179EC1882309F458
:102260009BC10E94761798C1882309F495C10E94EA
:10227000911792C1F8018281882309F48DC10E94CF
:10228000DB158AC1882309F487C10E94F01584C137
:10229000882309F481C181E03BC0882309F47CC113
:1022A0000E94CD15623071058105910540F00E94B4
:1022B000CD15653071058105910508F4B4CF82E034
:1022C00027C0882309F468C10E94CD1566307105C6
:1022D0008105910540F00E94CD156830710581059A
:1022E000910508F4A0CF86E013C0882309F454C1F7
:1022F0000E94CD15693071058105910540F00E945D
:10230000CD156E3071058105910508F48CCF89E0FB
:102310000E94F51741C1882309F43EC10E94CD15E2
:102320006F3071058105910540F00E94CD15643133
:1023300071058105910508F476CF8FE0E9CF8823F8
:1023400009F42AC10E94CD156531710581059105F9
:1023500040F00E94CD15673171058105910508F4A3
:1023600062CF85E1D5CFF8018281882309F414C1B9
:1023700088E1CECF882309F40FC10E94CD156931C1
:1023800071058105910540F00E94CD1562327105FD
:102390008105910508F447CF89E1BACF882309F474
:1023A000FBC083E2B5CFF8018281882309F4F4C031
:1023B00080E006C0F8018281882309F4EDC082E044
:1023C0000E94CE29E9C0F8018281882309F4DCC08B
:1023D0000E946226811102C00E9441260E947A2634
:1023E00090E090937F0380937E03FE01E350FC45D1
:1023F000E231F10530F4EA5AFF4F80917E030C94EC
:10240000083280917E03816027C0826025C084608D
:1024100023C0806121C080621FC080641DC08068AD
:102420001BC08460886018C08E7F16C08D7F14C06A
:102430008B7F12C08F7E10C08F7D0EC08F7B0CC033
:102440008F770AC08B7F877F07C087FB222720F901
:1024500091E0922790FB87F980937E0380917E0321
:102460000E947E260E941C2097C0882351F0109263
:10247000F3010E9448279093F0018093EF0182E0DE
:1024800022C08091F30181110FC08091EF019091E2
:10249000F0010E9454278436910530F486E20E94B0
:1024A000FA1C86E20E949D1D82E024C0F801828110
:1024B000882361F01092F4010E9448279093F20162
:1024C0008093F10180E20E94C91D66C08091F401F1
:1024D00081110FC08091F1019091F2010E94542767
:1024E0008436910530F487E20E94FA1C87E20E944C
:1024F0009D1D80E20E94D01D4FC0F8018281811194
:10250000D9CF8091F4018111F4CF8091F1019091A4
:10251000F2010E9454278436910558F780E20E9408
:10252000D01D88E20E94FA1C88E20E949D1D34C0E2
:102530000E940526282FF801828140917401509154
:102540007501882379F02A7A91E009F490E090935C
:10255000EE01911102C069E201C065E3CA010E9467
:10256000B6260AC08091EE01811102C069E201C065
:1025700065E3CA010E94B8260E94D2250DC081E001
:102580008093F3018093F401C801DF91CF911F91F3
:102590000F91FF900C94BE0F80E0DF91CF911F91BF
:1025A0000F91FF90089580E090E00895089597E0DE
:1025B000799FF001112496E4899FE00DF11D11240B
:1025C000E60FF11DEE0FFF1FEC5FF84F8591949120
:1025D0000895880F991FFC01E45BF44F8591949155
:1025E0000895CF93DF930E94D7120E949414EC01B8
:1025F000811520E59207F0F5811530E4930708F086
:1026000018C1883E910500F5803E910508F088C10B
:10261000883A910570F4853A910508F09AC08130A6
:10262000910509F47DC108F434C1049708F078C11C
:1026300030C18D3B910508F497C0803C910508F4AA
:1026400028C1805C9109E7C08115904258F4C115FA
:1026500081E0D80708F064C1C03FD10508F419C172
:10266000D0655EC1C11590E3D90708F0D8C0CE018E
:102670009F70D1C0811525E5920708F043C08115F0
:1026800034E5930708F0ECC0811542E5940708F59E
:10269000C11581E5D80708F0CFC02C2F237081E049
:1026A00090E002C0880F991F2A95E2F79C689E016E
:1026B00074E0369527957A95E1F72370922BCF70C9
:1026C000C695C69530E2C39FE0011124C82BD92BD3
:1026D00027C1869586959E0123703327C115D34562
:1026E00008F0AFC040E2849FC0011124C1E0D0E0F7
:1026F00002C0CC0FDD1F2A95E2F78C2B9D2BEC013D
:10270000DC680EC1811529E5920778F4811538E55A
:10271000930708F0AAC08115964508F0BAC0CF719A
:10272000DD27DC2FCC27D062FBC0C1158AE5D80796
:1027300008F4A0C0CE0190568115904208F0A9C0BF
:102740008D2F8F710E941115DD27D0628F71D82BCC
:10275000E7C0853A910509F49FC0863A910509F0D2
:102760009EC0C2E8D0E4DCC0883A910509F49AC062
:10277000893A910509F499C08A3A910509F498C0FB
:102780008B3A910509F497C08C3A910509F496C0EB
:102790008B3B910509F495C08C3B910509F494C0DD
:1027A0008D3A910509F493C0803B910509F492C0DC
:1027B0008E3A910509F491C08F3A910509F490C0C1
:1027C000813B910509F48FC0823B910509F48EC0CD
:1027D000833B910509F48DC0843B910509F48CC0BD
:1027E000853B910509F48BC0863B910509F48AC0AD
:1027F000873B910509F489C0883B910509F488C09D
:10280000893B910509F487C08A3B910509F486C08C
:10281000C0E0D4E485C00E94E912EC0181C0CE0181
:102820009927D3FF03C0EC01D86C7AC0EC01D06CBF
:1028300077C0DF70D06A74C0DC2FCC27C16FD06A3C
:102840006FC040E2849FC0011124C1E0D0E002C00B
:10285000CC0FDD1F2A95E2F7C82BD92BDA6860C0B0
:10286000D82FCC27C46FD06A5BC0D82FCC27C06FBD
:10287000D06A56C08C2F8F70806E90E0906A24E0F2
:10288000D695C7952A95E1F7CF709C013C2BE901BD
:1028900047C0C0E0D0E044C0C1E8D0E441C0C3E8D4
:1028A000D0E43EC0C2EED4E43BC0C9EED4E438C0AC
:1028B000CAEED4E435C0C5EBD4E432C0C6EBD4E4F0
:1028C0002FC0C3EBD4E42CC0C4EBD4E429C0C7EBC5
:1028D000D4E426C0CCECD4E423C0CDECD4E420C0B6
:1028E000C3E8D5E41DC0CAE8D5E41AC0C2E9D5E4FE
:1028F00017C0C4E9D5E414C0C1E2D6E411C0C3E2F4
:10290000D6E40EC0C4E2D6E40BC0C5E2D6E408C0EB
:10291000C6E2D6E405C0C7E2D6E402C0CAE2D6E405
:10292000CE01DF91CF9108958238910549F1B0F43D
:102930008133910509F458C048F48932910509F4AE
:102940004EC08A32910509F454C00895853391052B
:1029500009F440C08933910599F00895833E9105AB
:1029600029F138F4803E910591F0823E9105A1F065
:102970000895863E9105F9F0873E910531F108955D
:1029800020917E0320FD3AC021FD38C0089580913A
:102990007E0380FD35C032C080917E0382FF32C04D
:1029A00080917E0384FD30C083EE39C080917E0328
:1029B00082FD28C0F5CF80917E0383FF27C08091E0
:1029C0007E0384FD21C087EE2AC080917E0383FDB3
:1029D0001DC0F5CF80917E0385FD1AC01BC080917C
:1029E0007E0385FD17C014C080917E0386FD14C050
:1029F00015C080917E0386FD11C00EC080EE0FC011
:102A000089E30DC082EE0BC080E009C086EE07C0EE
:102A100089E205C085E303C08AE201C081E390E05A
:102A2000089590917E0392FF0DC0282F28712830C1
:102A300019F4877F846006C0282F2471243011F494
:102A40008B7F886093FF0DC0282F2871283119F4DF
:102A5000877E846106C0282F2471243111F48B7E77
:102A6000886194FD877E0895CF92DF92EF92FF9266
:102A70000F931F93CF93DF93E901493708F048E79D
:102A8000662309F44EC0242F30E0EFEFF0E0E61BA0
:102A9000F109B901E69F8001E79F100DF69F100D27
:102AA0001124012F110F110B202F7B01E01AF10AC5
:102AB0003CE3C32ED12CB6010E94E031FB01BC01E6
:102AC000E69EC001E79E900DF69E900D1124B60182
:102AD0000E94E031E230F105B1F040F4309779F036
:102AE000319711F5802F242F461B21C0E430F105CA
:102AF000A1F068F03597C1F4842F861B18C0802F91
:102B0000262F200F14C0862F800FE42F03C0E42F40
:102B1000E61B842F402F2E2F0AC0842F462F400FF4
:102B200006C0842F242F03C080E020E040E0E42F83
:102B3000F0E0E859F44F4491E22FF0E0E859F44F07
:102B40009491E82FF0E0E859F44FE4914983988399
:102B5000EA83DF91CF911F910F91FF90EF90DF906B
:102B6000CF90089588E090E00C940035AB01BC0153
:102B700088E090E00C941E35E5E1F3E083E080838B
:102B8000109216038FEF828388E78383148260811B
:102B90007181828193810C94B6156091150360FF59
:102BA00006C066956F7370E080E090E0089560E085
:102BB00070E0CB0108958091190390E00196843074
:102BC000910514F083E090E0809319036091150360
:102BD0007091160380911703909118030C94B61509
:102BE0008091190390E0019797FF02C080E090E088
:102BF0008430910514F083E090E080931903609194
:102C000015037091160380911703909118030C948B
:102C1000B6158091150380FF06C060E270E08AE17E
:102C200093E00C945D0D80E090E0FC01E65EFC4FCB
:102C3000118210821282039680369105B1F7EDCF92
:102C40009091150390FF0FC020E030E0F901E65E9F
:102C5000FC4F8183608342832D5F3F4F20363105D7
:102C6000A9F70C9409160895CF93DF9300D01F9213
:102C7000CDB7DEB72091150320FF0AC09E012F5F5C
:102C80003F4F0E9434154B8169818A810E94201632
:102C90000F900F900F90DF91CF9108955F926F92F8
:102CA0007F928F929F92AF92BF92CF92DF92EF92DC
:102CB000FF920F931F93CF93DF9300D01F92CDB756
:102CC000DEB78C01E62EF42E522E8091150380FF84
:102CD0008BC0982F9E77923061F49E012F5F3F4FFB
:102CE000C8010E9434154B8169818A810E94201697
:102CF0005BC0E82FE695EF739EE39E0F9F739430C1
:102D000018F4F090180350C09AE39E0F9F73993007
:102D100068F4881F8827881F90911603292F220F97
:102D2000022F082B97FB112710F93EC087E28E0F68
:102D30008F738A30C8F5F0E07997E0FD02C021E09A
:102D400001C02FEFEE7FE25AF44F85919491AC01D0
:102D500085E0569547958A95E1F724034001259F24
:102D6000900C1124580188E9A81A8EEFB80A9AE14C
:102D7000C92E93E0D92E28E6622E77247394C501DC
:102D8000B3010E94E03196014F2D6E2D0E94341543
:102D9000A80CB91C83E0C80ED11C8AE7C81683E0D2
:102DA000D80669F70E9409168091150300FB87F980
:102DB00080931503902F9695809116038078892B28
:102DC00010FB87F980931603E0921703F092180323
:102DD000552051F0609115037091160380911703EF
:102DE000909118030E94B6150F900F900F90DF91ED
:102DF000CF911F910F91FF90EF90DF90CF90BF90F8
:102E0000AF909F908F907F906F905F90089521E09A
:102E10000C944E16E5E1F3E02081221F2227221FA9
:102E200030911603432F440F842F822B37FB9927B1
:102E300090F90A9668E671E00E94F431438162815C
:102E40000C94071720911503221F2227221F30916F
:102E50001603432F440F842F822B37FB992790F9B9
:102E60008A3091051CF4825A9E4F01C00A9768E689
:102E700071E00E94F43140911803609117030C94A3
:102E8000071760911703862F90E08F3E910514F489
:102E90006F5E01C06FEF80911503881F8827881F20
:102EA00090911603292F220F97FB992790F94091B3
:102EB0001803822B0C94071760911703862F90E05C
:102EC000419714F0615101C060E080911503881FA3
:102ED0008827881F90911603292F220F97FB992787
:102EE00090F940911803822B0C9407174091180316
:102EF000842F90E08836910514F44F5E01C048E7B6
:102F000080911503881F8827881F90911603292F09
:102F1000220F97FB992790F960911703822B0C944D
:102F2000071740911803842F90E0419714F0415106
:102F300001C040E080911503881F8827881F909169
:102F40001603292F220F97FB992790F960911703F9
:102F5000822B0C94071720E00C944E16CF9390917F
:102F6000150390FF40C09178811102C0926007C0A4
:102F7000853210F0986403C08F73880F982B90935C
:102F80001503662351F0609115037091160380912B
:102F90001703909118030E94B615C09115036C2F6A
:102FA00066956F7370E04BE050E089E691E00E9417
:102FB0000E32892B19F01092120203C081E0809327
:102FC0001202CC1FCC27CC1F90911603892F880F9B
:102FD00097FB992790F940911803609117038C2B68
:102FE000CF910C94AB17CF91089561E00C94AE177C
:102FF0008091150386958F738F5F853208F081E08D
:103000000C94F5178091150386958F73815009F400
:1030100084E20C94F517E5E1F3E080818160808320
:1030200086958F730C94F51760E00C94AE17809121
:103030009F02816080939F020E946226811104C0DA
:103040000E9441260E94BC150E94B2156093150390
:103050007093160380931703909318036E7761F4AF
:103060000E94BC150E94B21560931503709316035D
:10307000809317039093180381E08093120280914C
:10308000150380FF04C086958F730C94141808955F
:103090009091150390FF10C0203270F430E0F901D8
:1030A000EE0FFF1F2E0F3F1FF901E65EFC4F8183DD
:1030B000608342830C94091608951F93CF93DF9386
:1030C00000D01F92CDB7DEB73091150330FF0CC092
:1030D000122F9E012F5F3F4F0E943415212F4B81ED
:1030E00069818A810E9448180F900F900F90DF919C
:1030F000CF911F910895E5E1F3E080818E7F808379
:1031000060817181828193810E94B61510921202B2
:103110002FEF80E792E0215080409040E1F700C01F
:1031200000000C9409168091150380FD0C947B1807
:103130000C940B18CF93C82F80911002909111021C
:103140000E945427EC2FF0E0E65AF44FE491F0E0AF
:103150008E179F0708F443C00E94482790931102DE
:103160008093100260910F0270E080E090E00E9476
:10317000E12F20E030E04FE753E40E94042F2BEDD5
:103180003FE049E450E40E940A310E9477310E94F6
:103190007E2F2BE43AE34EE25FE30E94972E20EF6E
:1031A0003BEF48ED52E40E940A310E94B02F462FB7
:1031B00080911503881F8827881F90911603292F57
:1031C000220F97FB992790F960911703822B0E9499
:1031D000341680910F0290E0019680930F02CF91F8
:1031E0000895CF93C82F80910D0290910E020E94F6
:1031F0005427EC2FF0E0E95AF44FE491F0E08E17F9
:103200009F07E8F00E94482790930E0280930D02DA
:10321000409118036091170380910B0290910C026A
:103220000E94341680910B0290910C02019668E680
:1032300071E00E94E03190930C0280930B02CF91D9
:103240000895CF92DF92FF920F931F93CF93DF9356
:10325000F82E8091090290910A020E945427EF2DC6
:10326000E695F0E0EC5AF44FE491F0E08E179F07FA
:10327000F0F10E94482790930A02809309020AE124
:1032800013E0C0E0D0E088E6C82EDD24D39480911E
:103290000702909108028C0F9D1FB6010E94E03139
:1032A000980140911803609117030E9434152B96E2
:1032B0000D5F1F4FC03681E0D80749F70E940916FD
:1032C0002091070230910802F0FE0BC0C90101965F
:1032D00068E671E00E94E031909308028093070253
:1032E00006C0215031093093080220930702DF9174
:1032F000CF911F910F91FF90DF90CF900895AF92E3
:10330000BF92CF92DF92EF92FF920F931F93CF93D2
:10331000DF93C82F80FF02C01FEF01C011E0809132
:103320000502909106020E945427C695EC2FF0E00A
:10333000EF5AF44FE491F0E08E179F0708F465C050
:103340000E94482790930602809305022AE1C22E2C
:1033500023E0D22E3CE1E32E33E0F32EC0E0D0E0B8
:10336000F70131971082F6011082F701108294E084
:10337000A92EB12C00E080910402800F87FD805EB1
:10338000082E000C990BC817D907E9F4809118038F
:103390008A9DA0018B9D500D1124559547955595FB
:1033A000479580911503881F8827881F90911603E1
:1033B000592F550F97FB992790F9960160911703A4
:1033C000852B0E943415010FF1E0AF1AB10899F670
:1033D000219683E0C80ED11CE3E0EE0EF11CC03252
:1033E000D10509F0BDCF0E94091680910402113069
:1033F00031F4811102C08FE106C0815004C090E019
:1034000001968F71992780930402DF91CF911F91CC
:103410000F91FF90EF90DF90CF90BF90AF90089505
:10342000EF92FF920F931F93CF93DF93C82F80915A
:103430000202909103020E945427EC2FF0E0E25B1D
:10344000F44FE491F0E08E179F0708F464C00E94E7
:103450004827909303028093020280E090E0FC01F1
:10346000E65EFC4F1182108212820396803691052F
:10347000B1F78AE1E82E83E0F82E0CE113E0C0E01A
:10348000D0E080910102082E000C990BC817D907D3
:10349000ECF080916801082E000C990B8C179D07A9
:1034A000ACF080911503881F8827881F9091160320
:1034B000592F550F97FB992790F9970140911803C1
:1034C00060911703852B0E94341507C0F8013197CE
:1034D0001082F7011082F80110822196F3E0EF0EBE
:1034E000F11C0D5F1F4FC032D10559F60E9409161D
:1034F0008091670190910102980F909301022091B1
:103500006801280F20936801121614F49F311CF0F3
:10351000819580936701DF91CF911F910F91FF906B
:10352000EF900895EF92FF920F931F93CF93DF9345
:103530008091FF01909100020E945427883E9340A1
:10354000D0F10E944827909300028093FF01C09120
:10355000FD01D091FE012196C170DD27D093FE01BF
:10356000C093FD018AE1E82E83E0F82E10E008E721
:10357000812F8695FE01E80FF11DCF0181709927FB
:1035800097014091180360911703FC010E9FC00141
:103590000F9F900D11240E9434151F5FF3E0EF0E72
:1035A000F11C103229F7DF91CF911F910F91FF90FD
:1035B000EF900C940916DF91CF911F910F91FF901E
:1035C000EF900895CF93DF9300D01F92CDB7DEB771
:1035D0008091FB019091FC010E945427ECE4FBE0F8
:1035E0002591349182179307C0F18091FA018111DE
:1035F0000CC09E012F5F3F4F48E76FEF80E090E0E7
:103600000E9434158A818093FA010E944827909382
:10361000FC018093FB018091F901813051F028F089
:10362000823061F44091FA010AC08091FA0140E0D1
:1036300007C06091FA0140E080E003C040E080E014
:1036400060E00E9420168091F90190E0019663E00D
:1036500070E00E94F4318093F9010F900F900F9069
:10366000DF91CF910895CF93DF938091F7019091EF
:10367000F8010E945427843F914008F444C00E94FE
:1036800048279093F8018093F701C0E0D0E02091A3
:10369000F5013091F6018091150390911603C03128
:1036A000D1051CF4232B79F002C0232B61F4881F71
:1036B0008827881F392F330F97FB992790F92C2FD4
:1036C000409118030AC0881F8827881F392F330F9D
:1036D00097FB992790F92C2F40E060911703832BDB
:1036E0000E945D182196C032D10589F60E94091604
:1036F0008091F5019091F601019681709927909340
:10370000F6018093F501DF91CF9108958091120227
:103710008823D9F190911503892F86958F732EE315
:10372000280F2F73243018F482500C949A182AE32F
:10373000280F2F73233018F486500C94F11827E3C8
:10374000280F2F73263018F489500C94211921E387
:10375000280F2F73263018F48F500C947F192BE20A
:10376000280F2F73233018F485510C94101A892FC9
:103770008E77803311F40C94921A863411F40C94E1
:10378000E21A883411F40C94331B089590931802B4
:10379000809317020895E0911702F0911802309774
:1037A00021F00190F081E02D099480E00895E091EE
:1037B0001702F0911802309721F00280F381E02D7A
:1037C00009940895209115023091160282179307EB
:1037D00071F09093160280931502E0911702F09118
:1037E0001802309721F00680F781E02D09940895A2
:1037F00020911302309114028217930771F0909375
:10380000140280931302E0911702F091180230978E
:1038100021F00084F185E02D099408950C94F20CB8
:1038200081E008950E943F2785B7806885BF85B7EE
:10383000806885BF0E944B0B0E94B5270C94171817
:10384000CF92DF92EF92FF920F931F93CF93DF936C
:10385000CDB7DEB72B970FB6F894DEBF0FBECDBF46
:103860000E946C0C0E94101C811111C08FEF898383
:103870008A831B820E9448278160782F9D838C83D6
:1038800049815A816B818D810E94C61C56C08AE194
:10389000C82E82E0D82E00E010E0E02E802F0E949B
:1038A000CF0CF60141916F01F42EF82631F40F5F31
:1038B0001F4F0A30110589F7D9CF90919F0291FFD0
:1038C00004C08B870E94D50C8B8520E030E04F2D03
:1038D00050E0922FBA01022E02C0759567950A94A6
:1038E000E2F760FF24C02E83EF8221E030E069011F
:1038F00002C0CC0CDD1C9A95E2F790E08C219D2152
:10390000892B09F420E028870E9448278160782FBE
:103910009A8789874E815F8168858A850E94C61C47
:10392000F801E65EFD4F8081C826C08206C02F5F89
:103930003F4F2730310569F6BACF109119020E9426
:10394000CB1B1817A1F00E94CB1B809319022B965A
:103950000FB6F894DEBF0FBECDBFDF91CF911F91A0
:103960000F91FF90EF90DF90CF900C9422102B9648
:103970000FB6F894DEBF0FBECDBFDF91CF911F9180
:103980000F91FF90EF90DF90CF900895CF93DF934A
:10399000CDB7DEB72B970FB6F894DEBF0FBECDBF05
:1039A0004F83588769877A878B87DE01119686E077
:1039B000FD0111928A95E9F785E0FE0137960190A5
:1039C0000D928A95E1F749815A816B817C818D81C5
:1039D0009E810E94AB222B960FB6F894DEBF0FBEDD
:1039E000CDBFDF91CF910895FC01808191810E942C
:1039F00073250895882309F49FC0682F8CEF860FE4
:103A0000813A38F480917401909175010E94B62634
:103A10000CC080E2860F883050F4677081E001C0EE
:103A2000880F6A95EAF70E9408260C94D2258BE548
:103A3000860F833070F4653A29F0663A31F083E8F6
:103A400090E005C081E890E002C082E890E00C942C
:103A5000E21B88E5860F853108F06EC0683A61F197
:103A6000693A69F16A3A71F16B3A79F16C3A81F12C
:103A70006B3B89F16C3B91F16D3A99F1603BA1F19F
:103A80006E3AA9F16F3AB1F1613BB9F1623BC1F114
:103A9000633BC9F1643BD1F1653BD9F1663BE1F190
:103AA000673BE9F1683BF1F1693BF9F16A3B09F4E5
:103AB0003FC080E090E03EC082EE90E03BC089EEE7
:103AC00090E038C08AEE90E035C085EB90E032C0DF
:103AD00086EB90E02FC083EB90E02CC084EB90E06D
:103AE00029C087EB90E026C08CEC90E023C08DECE1
:103AF00090E020C083E891E01DC08AE891E01AC000
:103B000082E991E017C084E991E014C081E292E07B
:103B100011C083E292E00EC084E292E00BC085E225
:103B200092E008C086E292E005C087E292E002C01F
:103B30008AE292E00C94F81B0895882349F1682FDB
:103B40008CEF860F813A38F4809174019091750161
:103B50000E94B8260CC080E2860F883050F467704F
:103B600081E001C0880F6A95EAF70E940E260C9446
:103B7000D2258BE5860F833020F480E090E00C9412
:103B8000E21B685A653120F480E090E00C94F81B49
:103B90000895882321F00E9408260C94D2250895C8
:103BA000882321F00E940E260C94D22508954F926E
:103BB0005F926F927F92BF92CF92DF92EF92FF92CD
:103BC0000F931F93CF93DF937C01D62FC72FFC0158
:103BD000158112951F70028101110E9425260E94F5
:103BE000CB25882379F0002369F080E28D0F88309F
:103BF00048F082E00E94B4250E94CB2591E0B82EC7
:103C0000B92601C0B12CCC2EC2948FE0C822D12C91
:103C1000F601E859FF4F0C9408328C2F807FCF704B
:103C2000882311F0C295C07F002399F0CC2309F4BA
:103C30006DC180E28D0F883010F0D11104C08C2F3F
:103C40000E94082603C08C2F0E9418260E94D225AD
:103C50005DC18D2F0E949D1DCC2309F47CC180E2A3
:103C60008D0F883010F0D11104C08C2F0E940E26C9
:103C700003C08C2F0E941E260E94D2256CC18C2F5F
:103C8000807FCF70803211F0C295C07FDD2319F0A4
:103C9000D130C9F022C0002371F0112341F011305E
:103CA00031F40E943E268C2B0E94382654C10E947B
:103CB0003E268C2B1DC0112319F0113009F44BC185
:103CC0000E943B261AC0002321F0163008F043C1A1
:103CD0000EC0153008F03FC110C0002361F0112361
:103CE00031F0F701858180FF11C18F7085838C2FA2
:103CF0000E94C91D30C111111AC18C2FC6C08C2F52
:103D0000837009F050C0011132C18D2F82958695C4
:103D10008770880F880F9D2F9F70492E512C612C22
:103D2000712C082E04C0440C551C661C771C0A9488
:103D3000D2F7D4FF14C00FE010E020E030E0B9016A
:103D4000A80104C0440F551F661F771F8A95D2F73C
:103D5000CB01BA01609570958095909503C060E0A5
:103D600070E0CB01C695C695C370D0E0C230D105D6
:103D700061F0C330D10581F064297529862997291E
:103D8000219771F00E94EE23F2C0642975298629DB
:103D900097290E940024EBC00E94EE23C301B201C8
:103DA0000E94DC23E4C0002319F08C2F817001C035
:103DB0008695882309F4DBC08D2F829586958770C0
:103DC000880F880F9D2F9F70492E512C612C712CCC
:103DD000082E04C0440C551C661C771C0A94D2F7AC
:103DE000D4FF14C00FE010E020E030E0B901A801DA
:103DF00004C0440F551F661F771F8A95D2F7CB0169
:103E0000BA01609570958095909503C060E070E070
:103E1000CB01C695C695C3704C2F50E0423051057A
:103E200069F04330510589F064297529862997295D
:103E30004130510571F00E94B42499C0642975295C
:103E4000862997290E94C62492C00E94B424C301E7
:103E5000B2010E94A2248BC08D2F90E0FC01E05E95
:103E6000F109E531F10508F04DC0E858FF4F0C9419
:103E70000832DF708C2F8F71002321F00E943B24C9
:103E80008D2F36CF0E945C248D2F0E94D01D63C0E1
:103E9000002341F0153008F05EC08C2F8F710E9416
:103EA000812459C0163008F056C0F7CF002339F0EE
:103EB0008C2F8F710E943B244EC00023C9F38C2F9E
:103EC0008F710E945C2447C0002329F08C2F8F71D2
:103ED0000E94262440C00E9421243DC0002349F0B6
:103EE000CF718C2F0E943B2463E08C2F0E94AB2566
:103EF00032C081E00E94B425123068F182E00E9455
:103F0000B42529C0002331F0112391F28D2F0E9496
:103F1000FA1C21C0112399F2D93349F45FEF67EEFF
:103F200073E0515060407040E1F700C000008D2FF9
:103F30000E949D1D10C04C2F4F706D2FC7010E9415
:103F4000D3120E944F2317C04C2F4F706D2FC70103
:103F50000E94D61210C088E0C816D10441F05CF06F
:103F6000EAE0CE1AD108F2E0CF16D10420F40E9484
:103F7000CB1B0E942210BB20F1F00E94A72580FDE0
:103F80001AC0F70112820E94A1250E943B24C7019A
:103F90000E94E91F0E94A125DF91CF911F910F91EF
:103FA000FF90EF90DF90CF90BF907F906F905F90E9
:103FB0004F900C945C24DF91CF911F910F91FF9053
:103FC000EF90DF90CF90BF907F906F905F904F9079
:103FD00008950F931F93CF93DF93EC01888199810C
:103FE0002B813C81232BB9F09F3F11F48F3F99F037
:103FF000CE010E943A10882371F0688179818A810C
:104000000E947E258C010E94D8240E94D923B801E9
:10401000CE010E94D71DDF91CF911F910F9108957E
:104020000E9425260E943526809174019091750189
:104030000E94BA260C94D2250E9415260C941020BA
:104040000E947325E92FE295EF70F0E03297EE3091
:10405000F105B0F4E357FF4F0C940832803F91F024
:1040600018F4803E68F40EC0843F51F40BC0803ECB
:1040700048F0813F29F406C093FB882780F9089512
:1040800080E0089581E00895CF93DF9300D000D0C1
:104090001F92CDB7DEB70F900F900F900F900F903B
:1040A000DF91CF910895CF93DF9300D000D000D05F
:1040B000CDB7DEB726960FB6F894DEBF0FBECDBFE4
:1040C000DF91CF9108951F93CF93DF93C091250285
:1040D00016E080912602C81799F0D0E01C9FF001ED
:1040E0001D9FF00D1124E95DFD4F408151816281DA
:1040F0007381848195810E9453202196C770E9CFF6
:10410000DF91CF911F91089540915702509158022D
:104110006091590270915A0280915B0290915C0209
:104120000C94532080915C0282958F7009F054C0EA
:1041300080915902882309F44FC080912502A091F3
:104140002602609157027091580240915A02509194
:104150005B02B6E08A1709F43FC090E041155105B3
:10416000C1F17F3F11F46F3FA1F1B89FF001B99FFA
:10417000F00D1124E95DFD4F218172132AC02081C9
:10418000621327C02281211124C023813481241786
:10419000350710F421503109241B350B2436310525
:1041A000C0F420915C022F70206120935C0226E015
:1041B000289FF001299FF00D1124E45DFD4F8081BF
:1041C0008F708061808387E592E00E94E91F0C94E4
:1041D000632001968770BECF0895CF92DF92EF9251
:1041E000FF920F931F93CF93DF93CDB7DEB7629704
:1041F0000FB6F894DEBF0FBECDBF7C0185E0F7019E
:10420000DE011D9601900D928A95E1F7D7014C9140
:1042100011965C91119712966C9112971396CD900E
:10422000DC901497309157027091580280915A0295
:1042300090915B02009709F453C17F3F19F43F3F0F
:1042400009F44EC100915902002309F4CBC020911A
:104250005C02C816D90628F0F601E81BF90BCF015D
:1042600004C0809590958C0D9D1D11E084369105BC
:1042700078F010E0207F09F0D2C07C2DD98AC88A5E
:1042800089890E94442087E592E00E94E91FBDC011
:10429000822F807F09F046C0751314C0341312C0FA
:1042A000611110C02F70206120935C020E94842055
:1042B00087E592E00E94E91F80915C02D701159684
:1042C0008C932EC0CD2819F15F3F11F44F3FF9F0C8
:1042D000162F61111CC0809125022091260236E024
:1042E000821709F466C090E0389FF001399FF00D05
:1042F0001124E95DFD4F7181571306C0708147138A
:1043000003C07281711103C001968770E9CF162F27
:10431000662309F410C180915C02816080935C0285
:1043200010E009C1751315C0341313C0611111C019
:1043300080915C02D70115968C93C7010E94E91FFA
:1043400086E0F701A7E5B2E001900D928A95E1F7CA
:1043500063C04D875E878D859E856A8B0E94202075
:104360006A898823D9F16623C9F120915C02822FE2
:1043700082958F7090E0029774F08091570290912F
:10438000580298878F831986DB86CA862C87CE01D0
:1043900007960E94E91F86E0F701A7E5B2E00190C9
:1043A0000D928A95E1F70E9492200E94842011E0EC
:1043B000C2C04D875E878D859E850E947325292FFB
:1043C00022952F7030E0223031050CF0A8C09F708C
:1043D00009F0A2C0805E883008F4ADC0C7010E9419
:1043E000E91FE5CFC816D90608F453C0F601E81B4B
:1043F000F90BCF018436910508F450C010E07C2DF4
:10440000D98AC88A89890E944420E7E5F2E086E0DB
:10441000DF011D928A95E9F70E9484208CC07513F4
:1044200014C0341312C0611110C080915C02F701F6
:104430008583C7010E94E91F86E0E7E5F2E0DF011E
:104440001D928A95E9F7102F76C04D875E878D857E
:104450009E856A8B0E9420206A89882309F4BECF3A
:10446000662309F4BBCF20915C02822F82958F7066
:1044700090E002970CF48FCF8091570290915802F0
:104480009A8389831B82DD82CC822E83CE010196A2
:1044900080CF809590958C0D9D1DACCF162F6623F7
:1044A00009F49CCF75130BC0341309C086E0F701E3
:1044B000A7E5B2E001900D928A95E1F73CC04D87E7
:1044C0005E878D859E850E942020811164CF80911A
:1044D0005C02816080935C02C7010E94E91F2BC0CF
:1044E000662309F47BCF4D875E878D859E850E946C
:1044F0002020182F882309F471CF86E0F701A7E563
:10450000B2E001900D928A95E1F787E592E00E9472
:10451000F41C0E94922080CF81115CCF0CC024300B
:1045200031050CF05BCF9F7009F454CFF7019581F2
:10453000907F09F04FCF812F62960FB6F894DEBFBF
:104540000FBECDBFDF91CF911F910F91FF90EF90E4
:10455000DF90CF9008951F93CF93DF93CDB7DEB751
:104560002C970FB6F894DEBF0FBECDBF4F83588790
:1045700069877A878B879C87CE0107960E94ED20FA
:10458000882369F08F8198852A853B85232BF1F15B
:104590009F3F09F063C08F3F09F060C037C086E0DD
:1045A000FE013796DE01119601900D928A95E1F792
:1045B0006F817885EA85FB85309741F17F3F11F463
:1045C0006F3F21F12091260230E0C90101968770EA
:1045D00099274091250250E08417950709F447C0B8
:1045E00069837A83FD83EC8396E0929FD001939F49
:1045F000B00D1124A95DBD4FFE01319601900D92C1
:104600009A95E1F7809326020E94632016E080913C
:104610002502909126028917C1F1189FC00111242B
:10462000895D9D4F0E94ED20882379F1E09125025C
:104630001E9FF0011124E95DFD4F4081518162818F
:104640007381848195810E9453208091250290E09E
:1046500001968770992780932502D9CF4F8158857D
:1046600069857A858B859C850E945320CFCF0E94D7
:104670001C201092260210922502E7E5F2E086E067
:10468000DF011D928A95E9F7C1CF2C960FB6F894F9
:10469000DEBF0FBECDBFDF91CF911F910895EF9286
:1046A000FF920F931F93CF93DF938C01892B09F413
:1046B0006CC0F12CEE24E394E8012196F80184917A
:1046C000843740F4843008F051C0813081F082306A
:1046D00019F15BC0853709F444C0A8F19CE7980F35
:1046E000903708F052C08F770E949D1D41C00E5F29
:1046F0001F4FFE01C49180E28C0F883048F4C770D0
:104700008E2D01C0880FCA95EAF70E94282614C092
:104710008C2F0E94FA1C2DC00E5F1F4FFE01C4910A
:1047200080E28C0F883058F4C7708E2D01C0880F3E
:10473000CA95EAF70E942E260E94D2251AC08C2F15
:104740000E949D1D16C00E5F1F4FFE01C491CC2319
:1047500081F08FE99FE00197F1F700C00000C150A0
:10476000F6CF0E5F1F4FFE01F49003C00E94FA1CAB
:104770008E018F2D882309F49FCFEFE9FFE0319759
:10478000F1F700C000008150F5CFDF91CF911F916C
:104790000F91FF90EF90089508950E94CC236093AD
:1047A0008E0270938F0280939002909391020C94EA
:1047B000102008950C94CD230F931F9300918E0227
:1047C00010918F022091900230919102602B712BF9
:1047D000822B932B1F910F910C94CD230F931F933A
:1047E00000918E0210918F022091900230919102DF
:1047F00060237123822393231F910F910C94CD2367
:104800000F931F9300918E0210918F0220919002BE
:104810003091910260277127822793271F910F9172
:104820000C94CD2308950C9412240E9413246093B9
:104830008A0270938B0280938C0290938D020C9469
:10484000102060E070E0CB010C9415240F931F93AF
:1048500041E050E060E070E08A019B0104C0000F7D
:10486000111F221F331F8A95D2F7C901B8011F916A
:104870000F910C9415240F931F9341E050E060E0DA
:1048800070E004C0440F551F661F771F8A95D2F74A
:1048900080918A0290918B02A0918C02B0918D023E
:1048A0008A019B01082B192B2A2B3B2BC901B8012C
:1048B0001F910F910C9415240F931F9341E050E02A
:1048C00060E070E004C0440F551F661F771F8A9593
:1048D000D2F7409550956095709580918A0290919D
:1048E0008B02A0918C02B0918D028A019B0108235A
:1048F00019232A233B23C901B8011F910F910C945E
:1049000015240F931F9341E050E060E070E004C075
:10491000440F551F661F771F8A95D2F780918A0230
:1049200090918B02A0918C02B0918D028A019B0123
:10493000082719272A273B27C901B8011F910F9182
:104940000C9415240F931F9300918A0210918B02EF
:1049500020918C0230918D02602B712B822B932B36
:104960001F910F910C9415240F931F9300918A02AD
:1049700010918B0220918C0230918D026023712363
:10498000822393231F910F910C9415240F931F934F
:1049900000918A0210918B0220918C0230918D023D
:1049A00060277127822793271F910F910C9415245C
:1049B000089527E0929F800D1124A82FA695A69513
:1049C000A695877051E001C0550F8A95EAF785E0FA
:1049D000A89FD001112420E030E070E0F901EA0F37
:1049E000FB1FE35AFD4F4081CB01022E02C096957A
:1049F00087950A94E2F7817099278195842785230A
:104A0000842780832F5F3F4F2530310539F7089584
:104A100027E0929F800D1124682F66956695669514
:104A2000982F977085E0689FB001112440E050E016
:104A300080E0FA01E60FF71FE35AFD4F208130E0D6
:104A4000092E02C0369527950A94E2F72170332784
:104A5000042E01C0220F0A94EAF7822B4F5F5F4FAA
:104A60004530510531F70895CF92DF92EF92FF92D2
:104A70000F931F93CF93DF938C01C0908E02D09041
:104A80008F02E0909002F090910280918A029091C2
:104A90008B02A0918C02B0918D02C82AD92AEA2AF1
:104AA000FB2ACFE1D0E0D701C6010C2E04C0B69599
:104AB000A795979587950A94D2F780FF06C0B8010D
:104AC0008C2F0E94F112019721F4219760F780E06A
:104AD00001C08C2FDF91CF911F910F91FF90EF902C
:104AE000DF90CF900895CF93DF93EC010E9434259F
:104AF000BE010E94F112DF91CF9108951F93CF93D1
:104B0000DF93EB0190912402992321F0CB010E94C5
:104B1000732513C0882349F0CB010E943425182F38
:104B2000682FCE010E94D92404C0CB010E94082521
:104B3000182FBE01812F0E94F112DF91CF911F919A
:104B40000895809192028595859585950895809127
:104B500092028770089598E0899F90011124262B76
:104B6000209392020C943B24209192028095822300
:104B700080939202982F977069F430E0482F082EA6
:104B8000000C550B2417350729F0859585958595DB
:104B90000C945C24089590919202977081E009F43E
:104BA00080E00895E0917401F091750180919E027A
:104BB0008083E0917401F0917501908180919D0254
:104BC000892B8083E0917401F0917501908180912F
:104BD0009C02892B808380919302882381F0E0914D
:104BE0007401F09175019081892B8083809174010B
:104BF000909175010E9483268111109293028091F9
:104C00007401909175010C94D71B80919E020895B8
:104C100090919E02892B80939E0208958095909199
:104C20009E02892380939E02089510929E02089509
:104C300090919D02892B80939D020895809590917B
:104C40009D02892380939D02089510929D020895EC
:104C500090919C02892B80939C020895809590915D
:104C60009C02892380939C02089510929C020895CF
:104C70008093930208951092930208958091930275
:104C800008956DEE7EEF80E090E00E942A3560E0AE
:104C900082E090E00E940C3560E083E090E00E94AA
:104CA0000C3560E084E090E00E940C3560E085E027
:104CB00090E00E940C3540E050E0BA0188E090E0BE
:104CC0000C941E3580E090E00E94063521E08D3E78
:104CD0009E4F09F020E0822F089582E090E00C942E
:104CE000F83483E090E00C94F834682F83E090E08F
:104CF0000C940C3584E090E00C94F834682F84E038
:104D000090E00C940C35FC0131969C01285F3F4FDC
:104D100080E0919191118F5FE217F307D1F7089529
:104D20009C01FC0132969FEF80E04191461789F08B
:104D30009F3F19F4411101C0982F8F5F8630A9F76A
:104D40009F3F39F0F901E90FF11D97FDFA95628354
:104D500008950895FC01329608962081261301C01B
:104D600010823196E817F907C1F708950C94902640
:104D70000C94AA26FC01319608961192E817F907BF
:104D8000E1F7089508950C94C2260E94C3268091ED
:104D90008403843049F11092A00220E488E190E07D
:104DA0000FB6F894A895809360000FBE2093600022
:104DB00080E00E9422100E94C32683B7817F846016
:104DC00083BF83B7816083BF7894889583B78E7FD4
:104DD00083BF0FB6F894A895809160008861809396
:104DE0006000109260000FBE089508950895CF935B
:104DF0000E94F5260E946C0C0E94F626C0E08C2FC3
:104E00000E94CF0C811104C0CF5FCA30C1F701C02E
:104E100081E0CF91089508950C940B270E941C20E7
:104E20000E94CB1B0E9422100C940C271F920F9201
:104E30000FB60F9211248F939F93AF93BF938091DE
:104E4000A002811113C080917A0390917B03A091FD
:104E50007C03B0917D034196A11DB11D80937A031F
:104E600090937B03A0937C03B0937D03BF91AF919C
:104E70009F918F910F900FBE0F901F90189582E019
:104E800084BD93E095BD9AEF97BD80936E00089521
:104E90002FB7F89480917A0390917B03A0917C03C3
:104EA000B0917D032FBF0895CF92DF92EF92FF92D2
:104EB0000F931F932FB7F89440917A0350917B037F
:104EC00060917C0370917D032FBF6A017B01EE240A
:104ED000FF248C0120E030E0C016D106E206F30684
:104EE00010F4415051099A01281B390BC9011F9137
:104EF0000F91FF90EF90DF90CF90089578941F92DC
:104F00000F920FB60F9211248F939F93AF93BF937D
:104F100080917A0390917B03A0917C03B0917D03F3
:104F20000196A11DB11D80937A0390937B03A093FA
:104F30007C03B0937D03BF91AF919F918F910F90B0
:104F40000FBE0F901F90189587E797E79093010881
:104F5000809300089AE088E10FB6F894A8958093B2
:104F600060000FBE90936000FFCF0E946226811107
:104F700002C00E9441260E946D2680939F020E94DB
:104F80007A2690E090937F0380937E030E9471269F
:104F9000682F70E080E090E00C94DA238091A90201
:104FA000089508950F931F93CF93DF9300D01F921E
:104FB000CDB7DEB78C010E94DE29823011F084303B
:104FC00021F583E089831B830A8381E08093E900D4
:104FD0008FEF9091E800815095FD06C095ED9A9570
:104FE000F1F700008111F5CF8091E80085FF0DC039
:104FF00040E050E063E070E0CE0101960E94FB29A2
:105000008091E8008E778093E8000F900F900F90CA
:10501000DF91CF911F910F910895CF93DF9300D02F
:105020001F92CDB7DEB720918403243031F522E002
:105030002983805891099B838A8381E08093E900CA
:105040008FEF9091E800815095FD06C095ED9A95FF
:10505000F1F700008111F5CF8091E80085FF0DC0C8
:1050600040E050E063E070E0CE0101960E94FB2931
:105070008091E8008E778093E8000F900F900F905A
:10508000DF91CF910895CF93DF93EC010E94DE2949
:10509000823011F0843039F581E08093E9009FEF90
:1050A0008091E800915085FD06C085ED8A95F1F765
:1050B00000009111F5CF8091E80085FF14C040E019
:1050C00050E068E070E0CE010E94FB299091E8007A
:1050D0009E779093E80098E0FE01A1EAB2E001908B
:1050E0000D929A95E1F7DF91CF9108958091830316
:1050F000811109C00E94902B0E94ED2B8091E2004B
:1051000084608093E20008951092830308950895C7
:1051100008950C940E2742E061EC81E00C940A2B78
:1051200080918603833009F453C030F4813071F0EC
:10513000823009F48CC008958A3009F478C08B302D
:1051400009F45EC0893009F09AC020C080918503BF
:10515000813A09F094C08091E800877F8093E8004D
:105160008091890390918A03892B21F468E081EA78
:1051700092E003C060E080E090E070E00E94462A88
:105180008091E8008B778093E800089580918503F3
:10519000813209F074C08091890390918A03892B30
:1051A00009F06DC08091E800877F8093E8008091CE
:1051B000E80082FD05C0809184038111F8CF5FC0B3
:1051C0008091F1008093A9028091E8008B7753C011
:1051D00080918503813A09F052C0809189039091B2
:1051E0008A03892B09F04BC08091E800877F809368
:1051F000E8008091E80080FFFCCF8091800136C0FC
:10520000809185038132D9F58091890390918A0339
:10521000892BA9F58091E800877F8093E8000E94A0
:105220003F2B80918703809380010C941C208091F8
:105230008503813221F58091E800877F8093E80023
:105240000E943F2B809188038093AA020895809149
:105250008503813AA1F48091E800877F8093E8007C
:105260008091E80080FFFCCF8091AA028093F1003A
:105270008091E8008E778093E8000C943F2B08958E
:1052800084B7877F84BF0FB6F894A895809160009B
:10529000886180936000109260000FBE80E8809368
:1052A0006100109261000E940E1C0E94902B0E94CF
:1052B000ED2B8091E20084608093E20078940E945C
:1052C0007C2E0E94121C86E791E00E94C61B8091F2
:1052D0008403853069F40E94C52680918203882367
:1052E000B1F30E94F726882391F30E94E529EFCFBE
:1052F0000E94201C0E94861BEACF0C947F29292F34
:10530000332723303105C1F05CF42130310579F0C9
:1053100022303105D1F582E290E020EA3CE039C04C
:105320002132310521F12232310541F12EC082E1D5
:1053300090E022EC3CE02DC099278130910571F07E
:105340002CF4892B11F5ECE9FCE00DC082309105BD
:1053500041F00397D1F4E8E6FCE005C0E6E8FCE0A4
:1053600002C0EEE6FCE0849190E09F0112C0672B42
:1053700061F489E090E022EB3CE00BC0672B29F45C
:1053800080E490E024ED3CE004C080E090E020E088
:1053900030E0FA013183208308950895CF93C82F18
:1053A0000E94CD29C093AB02CF91089580918403D0
:1053B000843011F081E0089582E008958091AB027D
:1053C000811102C00C94D629089580E189BD82E143
:1053D00089BD09B400FEFDCF8091D8008F7D8093F8
:1053E000D8008091E00082608093E0008091E0002E
:1053F00081FDFCCF0895CF92DF92EF92FF920F9341
:105400001F93CF93DF93EC018B016A010E945E2B07
:10541000811133C0C114D10439F0F601808191812A
:10542000081B190BC80FD91FE12CF12C0115110510
:1054300019F18091E80085FD16C08091E8008E7713
:105440008093E800C114D10449F0F6018081918174
:10545000E80EF91EF182E08285E00FC00E945E2B0B
:10546000882321F30AC089918093F100015011092A
:10547000FFEFEF1AFF0ADACF80E0DF91CF911F91A3
:105480000F91FF90EF90DF90CF90089520918B03C4
:1054900030918C032617370748F06115710539F4F0
:1054A0002091E8002E772093E80001C0B90140E088
:1054B00061157105A9F120918403222309F443C0E9
:1054C000253009F442C02091E80023FD40C020911E
:1054D000E80022FD32C02091E80020FFE9CF409192
:1054E000F3002091F20030E0342BFC01CF01611574
:1054F000710559F02830310540F481918093F10015
:10550000615071092F5F3F4FF1CF41E028303105E5
:1055100009F040E02091E8002E772093E800C8CF02
:105520004111C9CF0AC080918403882361F085307E
:1055300061F08091E80083FD0AC08091E80082FF5D
:10554000F2CF80E0089582E0089583E0089581E03D
:10555000089520918B0330918C032617370748F06C
:105560006115710539F42091E8002E772093E80049
:1055700001C0B901FC0120E06115710591F1809134
:105580008403882309F440C0853009F43FC080912A
:10559000E80083FD3DC08091E80082FD2FC080912E
:1055A000E80080FFE9CF2091F3008091F20090E0C5
:1055B000922B6115710559F08830910540F42491C2
:1055C0002093F1003196615071090196F2CF21E0EC
:1055D000089709F020E08091E8008E778093E8003A
:1055E000CBCF2111CCCF0AC080918403882361F0F6
:1055F000853061F08091E80083FD0AC08091E80069
:1056000082FFF2CF80E0089582E0089583E008955C
:1056100081E00895982F973058F59093E9009817F6
:1056200039F07091EC002091ED005091F00003C032
:10563000242F762F50E021FF19C03091EB003E7FE0
:105640003093EB003091ED003D7F3093ED003091D1
:10565000EB0031603093EB007093EC002093ED0091
:105660005093F0002091EE0027FF07C09F5FD3CF3B
:105670008F708093E90081E0089580E00895809123
:10568000850387FF11C08091E80082FD05C08091ED
:1056900084038111F8CF11C08091E8008B770BC093
:1056A00080918403882349F08091E80080FFF8CF3F
:1056B0008091E8008E778093E80008952091E400BF
:1056C0003091E50095E64091EC00842F817040FF19
:1056D00022C08091E80080FD1CC080918403882353
:1056E00091F0853091F08091EB0085FD10C04091E4
:1056F000E4005091E5004217530729F39A019150B5
:1057000011F784E0089582E0089583E0089581E030
:10571000089580E008954091E80042FFDECF0895AB
:105720000E94FE2B0E94062CE0EEF0E0808181605A
:105730008083E8EDF0E080818F77808319BCA7ED4E
:10574000B0E08C918E7F8C9380818F7E80831092CD
:10575000830308950F931F93CF93DF930E94FE2B33
:105760000E94062CC8EDD0E088818F7788838881DD
:105770008068888388818F7D888319BC1092840318
:1057800010928003109282031092810300EE10E0C9
:10579000F80180818B7F808388818160888342E0EB
:1057A00060E080E00E940A2BE1EEF0E080818E7FD5
:1057B0008083E2EEF0E08081816080838081886078
:1057C0008083F80180818E7F8083888180618883D7
:1057D000DF91CF911F910F910895E8EDF0E0808166
:1057E0008F7E8083E7EDF0E080818160808384E0BC
:1057F00082BF81E0809383030C94AA2BE8EDF0E054
:1058000080818E7F80831092E20008951092DA00EA
:105810001092E10008951F920F920FB60F9211247B
:105820002F933F934F935F936F937F938F939F93A8
:10583000AF93BF93EF93FF938091E10082FF0BC082
:105840008091E20082FF07C08091E1008B7F80930E
:10585000E1000E947B2E8091DA0080FF1FC08091C2
:10586000D80080FF1BC08091DA008E7F8093DA0021
:105870008091D90080FF0DC080E189BD82E189BDA2
:1058800009B400FEFDCF81E0809384030E94762856
:1058900005C019BC109284030E9484288091E10005
:1058A00080FF19C08091E20080FF15C08091E20066
:1058B0008E7F8093E2008091E20080618093E2001D
:1058C0008091D80080628093D80019BC85E08093D5
:1058D00084030E9488288091E10084FF30C0809179
:1058E000E20084FF2CC080E189BD82E189BD09B45A
:1058F00000FEFDCF8091D8008F7D8093D8008091ED
:10590000E1008F7E8093E1008091E2008F7E8093A2
:10591000E2008091E20081608093E2008091800348
:10592000882311F084E007C08091E30087FD02C066
:1059300081E001C083E0809384030E9489288091E4
:10594000E10083FF29C08091E20083FF25C08091A0
:10595000E100877F8093E10082E0809384031092CE
:1059600080038091E1008E7F8093E1008091E200CE
:105970008E7F8093E2008091E20080618093E2005C
:1059800042E060E080E00E940A2B8091F000886095
:105990008093F0000E948728FF91EF91BF91AF9113
:1059A0009F918F917F916F915F914F913F912F9137
:1059B0000F900FBE0F901F9018951F920F920FB669
:1059C0000F9211242F933F934F935F936F937F9385
:1059D0008F939F93AF93BF93CF93DF93EF93FF93F7
:1059E000C091E900CF708091EC00D82FD17080FD7C
:1059F000D0E81092E9008091F000877F8093F0005A
:105A000078940E94212D1092E9008091F000886026
:105A10008093F000CD2BCF70C093E900FF91EF9100
:105A2000DF91CF91BF91AF919F918F917F916F91B6
:105A30005F914F913F912F910F900FBE0F901F904C
:105A400018951F93CF93DF93CDB7DEB7AA970FB604
:105A5000F894DEBF0FBECDBFE5E8F3E088E08E0F1F
:105A60009091F10091938E13FBCF0E94902880912A
:105A7000E80083FF28C18091850390918603492F18
:105A800050E04A30510508F01EC1FA01E556FF4FBB
:105A90000C940832803821F0823809F014C108C013
:105AA0008091810390918203992389F082600FC0D5
:105AB000809189038F70873008F005C18093E900D9
:105AC0008091EB0085FB882780F91092E900909186
:105AD000E800977F9093E8008093F1001092F10026
