:100000000C9436060C947D060C947D060C94EE0739
:100010000C947D060C947D060C947D060C947D0654
:100020000C947D060C947D060C94AE2B0C94802CC5
:100030000C94B9260C947D060C947D060C947D06D8
:100040000C947D060C947D060C947D060C947D0624
:100050000C947D060C9421270C947D060C947D064F
:100060000C947D060C947D060C947D060C947D0604
:100070000C947D060C947D060C947D060C947D06F4
:100080000C947D060C947D060C947D060C947D06E4
:100090000C94D7060C947D060C947D060C947D067A
:1000A0000C947D060C947D060C947D06B711B91155
:1000B000C411BB11BD11BF11C111C311C611C811AB
:1000C000CA11D511CC11CE11D011D211D411D71122
:1000D000B01DB01DE21DE21D4E1F4E1F4E1F4E1FD4
:1000E000221E4E1FCF1ECF1E3E1F4E1F4E1F471FEC
:1000F000DC1EDC1EDC1EDC1EDC1EDC1EDC1EDC1E30
:10010000DC1EDC1EDC1EDC1EDC1EDC1EDC1EDC1E1F
:10011000EB1EF91E001F071F111FD11FD11FE31F68
:10012000E31FDA1FE31FE31FE31FD11FD11FDF1FF0
:10013000E31FE31FDF1FED2C142D062E142D062EBA
:10014000602D832D062ED92DE82D07634236B79BEF
:10015000D8A71A39685618AEBAAB558C1D3CB7CC27
:100160005763BD6DEDFD753EF6177231BF0000009F
:10017000803F05A84CCDB2D44EB93836A9020C50F8
:10018000B9918688083CA6AAAA2ABE000000803F32
:100190000000000000003E5B4F5B3E003E6B4F6B7B
:1001A0003E001C3E7C3E1C00183C7E3C18001C5748
:1001B0007D571C001C5E7F5E1C0000183C18000070
:1001C000FFE7C3E7FF00001824180000FFE7DBE7A4
:1001D000FF0030483A060E00262979292600407F84
:1001E00005050700407F05253F005A3CE73C5A00C3
:1001F0007F3E1C1C0800081C1C3E7F0014227F222E
:1002000014005F5F005F5F0006097F017F000066EA
:1002100089956A0060606060600094A2FFA294000B
:1002200008047E04080010207E20100008082A1C04
:100230000800081C2A0808001E10101010000C1ED0
:100240000C1E0C0030383E383000060E3E0E060004
:1002500000000000000000005F0000000007000731
:100260000000147F147F1400242A7F2A1200231315
:100270000864620036495620500000080703000059
:10028000001C224100000041221C00002A1C7F1C8F
:100290002A0008083E0808000080703000000808A6
:1002A0000808080000006060000020100804020038
:1002B0003E5149453E0000427F4000007249494995
:1002C00046002141494D33001814127F1000274584
:1002D000454539003C4A494931004121110907008F
:1002E000364949493600464949291E000000140094
:1002F00000000040340000000008142241001414E3
:1003000014141400004122140800020159090600C7
:100310003E415D594E007C1211127C007F494949D3
:1003200036003E41414122007F4141413E007F492C
:10033000494941007F09090901003E4141517300CB
:100340007F0808087F0000417F4100002040413FB6
:1003500001007F08142241007F40404040007F029E
:100360001C027F007F0408107F003E4141413E0097
:100370007F09090906003E4151215E007F091929C4
:10038000460026494949320003017F0103003F40EE
:1003900040403F001F2040201F003F4038403F00AA
:1003A0006314081463000304780403006159494D81
:1003B0004300007F41414100020408102000004139
:1003C00041417F00040201020400404040404000DF
:1003D0000003070800002054547840007F2844445C
:1003E0003800384444442800384444287F003854B6
:1003F0005454180000087E09020018A4A49C780038
:100400007F080404780000447D4000002040403D07
:1004100000007F102844000000417F4000007C0461
:10042000780478007C080404780038444444380098
:10043000FC182424180018242418FC007C08040448
:10044000080048545454240004043F4424003C4011
:1004500040207C001C2040201C003C4030403C00E0
:100460004428102844004C9090907C004464544CE4
:100470004400000836410000000077000000004101
:10048000360800000201020402003C2623263C003C
:1004900003071F7FFFFFFEF8F0C020F8FEFFFE7984
:1004A000271F7FFFFFFEF8F0C020F8FEFFFF7F3F11
:1004B0003F7FFFFEF8F0C000000000FFFFFFFFFFDE
:1004C000FF00000000000000FF7F7F7FBFBFC0C0B3
:1004D000C0E0E0E0E0F0F0F0F878787C3C3CFEFE34
:1004E000FEFFFFFF00000000000000000000808011
:1004F000BFBFDFDFEFEF0003071F7FFFFFFFFEF847
:10050000E0C0E0F8FEFFFFFF7F1F07030000E0F000
:10051000F0F0E0ECEEF7F37020007C7C7C7E007E57
:100520007E7E7F7F7F000080C0E07E5B4F5BFEC0F1
:100530000000C000DCD7DEDEDED7DC00C00000003B
:1005400000000000000000000000000000000000AB
:1005500000000000C1F3CFBF7FFFFFFCFBE781007D
:1005600000000080E3CF3FFFFFFFFCFBE7810000BE
:10057000000081E7FFFFFFFF3C0000FFFFFFFFFFE0
:10058000FFF8F8FC7C7E7E3EFEFFFFFFFFFFF7F7E3
:10059000F7FBFB7D7D7DBEBEBEDFDFE0E000FFFF41
:1005A000FFFFFFFF00FCFC7C7E7E3E3E1F1F1F0FF7
:1005B000FFFFFFFFFFFF000000000081E7FFFFFFDC
:1005C000FFFFFFFFFFFFE7810000000000000F1F9B
:1005D0003F7F7F7F7F7F3F1E0C001F1F1F3F003F1D
:1005E0003F3F7F7F7F00307B7F7830202030787FD7
:1005F0003B0003000F7F0F0F0F7F0F000300000071
:1006000000000000000000000000000000000000EA
:1006100060707C7F7F7F7F1F0601030F3F7F7F7E9F
:100620007C7C7E7F7F7F1F0601070F3F7F7F7E7C64
:100630007C7E7F7F3F0F03000000007F7F7F7F7FF6
:100640007F000000000000007F7F7F7F7F7F7D7D37
:100650003D3E1E1F1F1F0F0F0707070303007F7F6D
:100660007F7F7F7F7C7C7C7C7C7C7C7C7C7C7C003A
:100670007F7F7F7F7F7F004070787E7F7F7F3F0F0F
:100680000301030F3F7F7F7F7E78704000000000F2
:10069000000000000000000000000000000000005A
:1006A000000000000000000000000000000000004A
:1006B000000000000000000000000000000000003A
:1006C000000000000000000000000000000000002A
:1006D00041646A757374004C6F776572005261698A
:1006E00073650044656661756C74000A4C617965D8
:1006F000723A20000A000A0002E26003E20002E20D
:100700006003E2002B0014001A0008001500170017
:100710000000E00004001600070009000A000000C5
:10072000E1001D001B000600190005000000E05C50
:100730002900E200E300E25CDE5C2C002A001300EA
:1007400012000C0018001C000000340033000F00E1
:100750000E000D000B0000002800380037003600A6
:100760001000110000004F00520051005000E35CE7
:10077000DF5C2C002B0014001A00090013000A0093
:100780000000E0000400150016001700070000003C
:10079000E1001D001B000600190005000000E05CE0
:1007A0002900E200E300E25CDE5C2C002A0033005A
:1007B0001C0018000F000D000000340012000C0097
:1007C000080011000B000000280038003700360038
:1007D00010000E0000004F00520051005000E35C7A
:1007E000DF5C2C002B0034003600370013001C00A7
:1007F0000000E00004001200080018000C000000D7
:10080000E100330014000D000E001B000000E05C4E
:100810002900E200E300E25CDE5C2C004C000F00EB
:10082000150006000A00090000003800160011003B
:1008300017000B000700000028001D0019001A0017
:100840001000050000004F00520051005000E35C12
:10085000DF5C2C0035021E021F0220022102220250
:10086000000001003A003B003C003D003E0000005B
:10087000010040004100420043004400000001002C
:100880000100010001000100010001000100270238
:1008900026022502240223020000310230022F0228
:1008A0002E022D023F00000001004D004A00010011
:1008B000010045000000AE00A900AA00AB00010045
:1008C0000100010035001E001F0020002100220051
:1008D000000001003A003B003C003D003E000000EB
:1008E00001004000410042004300440000000100BC
:1008F0000100010001000100010001004C0027007F
:1009000026002500240023000000310030002F00C5
:100910002E002D003F00000001004B004E000100A2
:10092000010045000000AE00A900AA00AB000100D4
:10093000010001000100005C010001000100010054
:1009400000000100010001001D5C1E5C135C000042
:100950000100010001000100010001000000010090
:100960000100010001000100010001004C00010034
:100970000100010001000100000001000100DD5C38
:10098000DC5CDB5C0A5C0000C75CC55CC35CC05C13
:10099000010001000000C85CC65CC45CC15C0100D1
:1009A0000100010000000000000000002A2B2800C8
:1009B000000000000000000000000000000000290E
:1009C000000000002C1E3420212224342627252E4E
:1009D000362D3738271E1F20212223242526333386
:1009E000362E37381F0405060708090A0B0C0D0EB2
:1009F0000F101112131415161718191A1B1C1D2F7E
:100A00003130232D350405060708090A0B0C0D0E9D
:100A10000F101112131415161718191A1B1C1D2F5D
:100A20003130354C000000000000000000000000E4
:100A300000000000000000000000000000000000B6
:100A4000000000000001010101010100010101019C
:100A50000000000000000000000000000000010095
:100A60000100010101010101010101010101010177
:100A70000101010101010101010101010101010067
:100A80000000010100000000000000000000000064
:100A90000000000000000000000000000000000155
:100AA0000101010000047F3F1F6432146432147896
:100AB0003C1E1E140A056801F000B40078005A00BC
:100AC0000000000000010101010101010101020219
:100AD00002020202020202030303030303030304EC
:100AE00004040404040505050505060606060607B4
:100AF000070707080808080909090A0A0A0A0B0B68
:100B00000B0C0C0C0D0D0D0E0E0F0F0F1010111104
:100B10001112121313141415151616171718181985
:100B2000191A1A1B1C1C1D1D1E1F1F2020212222EA
:100B30002324252526272728292A2B2B2C2D2E2F29
:100B40002F30313233343536363738393A3B3C3D45
:100B50003E3F4041424344464748494A4B4C4D4F33
:100B600050515253555657585A5B5C5E5F606263F2
:100B7000646667696A6C6D6E707173747678797B80
:100B80007C7E8081838486888A8B8D8F91929496D7
:100B9000989A9B9D9FA1A3A5A7A9ABADAFB1B3B5F3
:100BA000B7B9BBBDBFC1C4C6C8CACCCFD1D3D6D8D4
:100BB000DADCDFE1E4E6E8EBEDF0F2F5F7FAFCFF72
:100BC0000403300000001603480065006C00690053
:100BD00078002000420065007400610000001403EA
:100BE000590075007300680061006B006F006200BF
:100BF0006F0000000403090409022200010100A0A3
:100C0000C8090400000103010100092111010001CC
:100C10002240000705810308000A120110010000AC
:100C20000008EDFE60300100010203010501090624
:100C3000A101050719E029E71500250195087501AF
:100C4000810295017508810105081901290595059D
:100C5000750191029501750391010507190029FF9E
:100C6000150026FF00950675088100C011241FBEDF
:100C7000CFEFDAE0DEBFCDBF04B603FE27C0809120
:100C80002B0390912C03A0912D03B0912E0387305C
:100C9000904BA740B04BD1F410922B0310922C0331
:100CA00010922D0310922E0314BE84B7877F84BF49
:100CB0000FB6F894A89580916000886180936000D9
:100CC000109260000FBEE0E0F8E3099511E0A0E0AB
:100CD000B1E0E8E3FAE602C005900D92A03CB1074E
:100CE000D9F723E0A0ECB1E001C01D92AB32B2070E
:100CF000E1F70E94E3280C941A350C94000083E37A
:100D000090E02091BC0027FD02C00197D1F7089523
:100D10001092B9008CE08093B8000895CF93DF93D0
:100D20001F92CDB7DEB794EA9093BC0089830E94EE
:100D30007F069091B900987F8981983039F0909121
:100D4000B900987F903111F081E012C08093BB0010
:100D500084E88093BC000E947F068091B900887F60
:100D6000883129F08091B900887F803469F780E06C
:100D70000F90DF91CF91089584E98093BC0083E3C5
:100D800090E02091BC0024FD02C00197D1F70895A6
:100D90008093BB0084E88093BC000E947F06909102
:100DA000B900987F81E0983209F480E008951F929D
:100DB0000F920FB60F9211248F939F93EF93FF938F
:100DC0008091B900887F803869F038F48823C9F1B0
:100DD0008036C9F51092C00136C0883A09F1883BC7
:100DE000F9F031C08091C001811111C08091BB0028
:100DF0008093C1018091C101803120F01092C10126
:100E000080E001C081E091E09093C0011DC0E091BD
:100E1000C101F0E08091BB00E856FD4F808308C01F
:100E2000E091C101F0E0E856FD4F80818093BB0066
:100E30008091C10190E001968F7099278093C10144
:100E400002C01092BC0081E09091BC009568829530
:100E5000880F880F807C892B8093BC00FF91EF91D5
:100E60009F918F910F900FBE0F901F9018955A98D9
:100E700080E28A95F1F75A9A0895FC014AE04A9572
:100E8000F1F730E090E080E021E0961779F040E162
:100E90004A95F1F7880F4A9B02C08160322700C053
:100EA000000040E14A95F1F79F5FEFCF90E19A95FE
:100EB000F1F729B100C0000040E14A95F1F722FBAB
:100EC000992790F993272081920F908308958EE1BE
:100ED0004A9B02C08150E1F74A9BFECF0895EF92F2
:100EE000FF920F931F93CF93DF931F92CDB7DEB77F
:100EF000F62E1982E82E8C01802F8E198F1558F44A
:100F00000E94670768E0CE0101960E943D07F80144
:100F100081938F01F1CF81E09981911180E00F9051
:100F2000DF91CF911F910F91FF90EF9008959093D3
:100F3000C3018093C201529A5A9A08959093C301B3
:100F40008093C20152985A9AEA9AE9E6F0E08081C9
:100F50008F7C80830895615091E001C0990F6A955C
:100F6000EAF720E031E0992361F0492F482319F096
:100F70005A9A232701C05A9840E24A95F1F796956C
:100F8000F2CF222311F05A9A01C05A9880E28A9532
:100F9000F1F75A980895EF92FF920F931F93CF9312
:100FA000DF931F92CDB7DEB7162F082F7C018E2D51
:100FB000801B811758F4F70181917F0189830E947A
:100FC000370768E089810E94AB07F1CF0F90DF916E
:100FD000CF911F910F91FF90EF9008951F920F9264
:100FE0000FB60F9211240F931F932F933F934F939C
:100FF0005F936F937F938F939F93AF93BF93EF9381
:10100000FF93CF93DF931F92CDB7DEB719820E9473
:10101000670764E0CE0101960E943D079981911116
:1010200040C090E19A95F1F75A9A529AA2E0AA9597
:10103000F1F700C00091C2011091C301B8E08B9F8D
:10104000000D111D11245A98F8016581662321F0C5
:10105000868197810E94CB070E943707F0E1FA95BD
:10106000F1F75A9852985A9A80E18A95F1F7D80187
:1010700012966C911297662369F013968D919C914C
:1010800014970E946F07D801ED91FC91811105C062
:1010900082E004C0D801ED91FC9184E080830E943D
:1010A00067070F90DF91CF91FF91EF91BF91AF91C3
:1010B0009F918F917F916F915F914F913F912F9170
:1010C0001F910F910F900FBE0F901F9018950F93C7
:1010D0001F93CF93DF938C019C0183E0220F331F7A
:1010E0008A95E1F7C091C201D091C301C20FD31F0D
:1010F000F894529A5A9885E08A95F1F700000E9478
:10110000370784E08A95F1F700C064E0802F0E94E1
:10111000AB0780E18A95F1F752985A9A4A9902C032
:1011200000C0FCCF87E090E04A9B0EC0019751F4CD
:10113000529A5A9AE881F98181E08083789481E01B
:1011400090E02EC000C0F0CF6D81662381F08E81CB
:101150009F810E946F0781110AC0529A5A9AE881B2
:10116000F98182E08083789482E090E019C00E9447
:10117000670780E28A95F1F75A98529A80E18A953A
:10118000F1F76A81662321F08B819C810E94CB0755
:101190000E943707E881F9811082789480E090E01E
:1011A000DF91CF911F910F910895CF93C82F88E7BA
:1011B0000E948E0681110AC080E00E94C80681113B
:1011C00005C08C2F0E94C806C1E08111C0E00E94BA
:1011D000BC068C2FCF910895CF93DF931F92CDB78C
:1011E000DEB769830E94D5086981882331F0862F94
:1011F0000F90DF91CF910C94D50880E00F90DF9194
:10120000CF910895CF93C62F0E94D508882349F027
:1012100080E00E94D508882321F08C2FCF910C9478
:10122000D50880E0CF9108958FEA0C94D5080F93EC
:101230001F93CF93DF938C010C5A1F4FD801ED9170
:10124000FC91119760832D913C9111972F5F3F4F37
:101250002D933C93281B390B24353105B9F4EC014F
:10126000BC016B5E7F4F4FE350E00E94CB31CE015B
:10127000CF96F8019183808345E150E060E270E011
:10128000DF91CF911F910F910C94DD31DF91CF91C0
:101290001F910F9108951F93CF93DF93FC01EA5A9A
:1012A000FF4F21E020836A3099F4EC01329780816E
:1012B00091818C1B9D0B65E170E00E949731182F86
:1012C000153158F460E2CE010E9417091F5FF8CF74
:1012D000DF91CF911F910C941709DF91CF911F914E
:1012E0000895EF92FF920F931F93CF93DF937C01AA
:1012F000EB01FB0101900020E9F78F01015011097A
:10130000C017D10728F46991C7010E944B09F8CF93
:10131000DF91CF911F910F91FF90EF9008950F9360
:101320001F93CF93DF938C01EB01FE016491662341
:1013300029F0C8010E944B092196F7CFDF91CF9188
:101340001F910F910895CF93DF93EC0144E550E096
:1013500060E270E00E94DD31FE01EC5AFF4FD18364
:10136000C083CA5ADF4F81E08883DF91CF9108950F
:101370008F929F92AF92BF92DF92EF92FF920F9364
:101380001F93CF93DF93EC010E94EB269093C5014E
:101390008093C4010E94140963E082E20E94020962
:1013A000882309F43CC06DE781E20E94020988238A
:1013B000B1F188E70E948E06811131C080E40E945D
:1013C000C80681112CC04E0184E0D82E00E010E048
:1013D000F401E00FF11FA08086E0A89E50011124C7
:1013E000E12CF12CF701EA0DFB1DE057FE4F849133
:1013F0000E94C8068FEFE81AF80A86E0E816F104A2
:1014000089F70F5F1F4F0531110511F7DA9485E158
:10141000880E911CD110DACFCA5ADF4F1882DF91A3
:10142000CF911F910F91FF90EF90DF90BF90AF9001
:101430009F908F900C94BC0688EA92E00C94B809B7
:10144000CF93DF93C82F0E9488068EEA0E94D508AA
:10145000811102C080E09BC060E885ED0E94EC082D
:101460008823C1F36FE188EA0E94EC08882391F396
:1014700060E083ED0E94EC08882361F380E40E9421
:10148000D508882339F364E18DE80E94EC088823AD
:1014900009F360E080E20E94EC088823D9F2CC23B3
:1014A00039F080EA0E94D5088823A1F280EC06C0BA
:1014B00081EA0E94D508882369F288EC0E94D50849
:1014C000882341F262E08AED0E94EC08882311F241
:1014D0006FE881E80E94EC08882309F4BBCF61EF34
:1014E00089ED0E94EC08882309F4B4CF60E48BED09
:1014F0000E94EC08882309F4ADCF84EA0E94D50845
:10150000882309F4A7CF86EA0E94D508882309F426
:10151000A1CF8EE20E94D508882309F49BCF8FEAE1
:101520000E94D508882309F495CF60E081E80E94E5
:10153000EC08882309F48ECF88EA92E00E94A30980
:1015400063E082E20E9402098823E1F06FE781E212
:101550000E9402098823B1F088E70E948E0681115B
:1015600011C080E40E94C80681110CC0D4E0C0E024
:1015700080E00E94C806CF5FC038D1F7D150B9F7DC
:101580001092FE020E94BC060E941C0A81E0DF91BC
:10159000CF9108950E94410F8091FE0281110E9417
:1015A0001C0A8091C4019091C5010C94F726A8E80B
:1015B000B1E041E050E08D91E82FE295EF70F0E06E
:1015C00021A18F70BA0102C0660F771F8A95E2F7DA
:1015D000CB01962F9095922391A392A1892B82A360
:1015E00071E0AC38B70739F708950C94470E809135
:1015F0008B028360886080938B020E94D70AA1E8E7
:10160000B1E041E050E08D91E82FE295EF70F0E01D
:1016100021A18F70BA0102C0660F771F8A95E2F789
:10162000CB01962F9095922391A392A1892B82A30F
:1016300071E0A838B70739F7559A209A5D9A289A29
:10164000A6ECB1E0EEECF1E088E08E0F11921D9275
:101650008E13FCCF0E94880C8093D6010C94D00F7F
:101660009F92AF92BF92CF92DF92EF92FF920F9331
:101670001F93CF93DF9380910101811103C004E098
:1016800010E002C000E010E0A8014A535E4F7A016A
:10169000EA0188E8C82E81E0D82EAA24A394B12CB0
:1016A00025E0922E8CE8C81681E0D80609F448C0DF
:1016B000F60181916F01E82FE295EF70F0E021A132
:1016C0008F70A50102C0440F551F8A95E2F7CA0129
:1016D000922F982B91A392A18095892382A350EAFF
:1016E0005A95F1F7E1E8F1E020E040E050E0319177
:1016F000A32FA295AF70B0E090968C9190E03F70D0
:1017000002C0959587953A95E2F780FD07C0C5011F
:10171000042E01C0880F0A94EAF702C080E090E02E
:10172000282B4F5F5F4F4730510509F7888182179B
:1017300019F02883909200010E94D70A2196B2CF17
:10174000809100018823E1F081508093000188237B
:1017500039F0EFE9FFE03197F1F700C0000010C069
:1017600080E090E0FC01E00FF11FE253FE4FD70153
:10177000A80FB91F2C91208301968430910591F711
:1017800081E0DF91CF911F910F91FF90EF90DF905B
:10179000CF90BF90AF909F900895CF93DF9320910B
:1017A0000101211103C0C0E0D0E002C0C4E0D0E0DC
:1017B0000E94AE0C009721F00297A1F4289812C065
:1017C000289AC253DE4F8091E1019091E201A091ED
:1017D000E301B091E40188839983AA83BB8380E00D
:1017E00090E002C081E090E0DF91CF9108950E94E7
:1017F000300B80910101811103C0E4E0F0E002C0F0
:10180000E0E0F0E0E253FE4F20E030E080E0D9017C
:10181000AF51BE4F4C919191491381E09C932F5F42
:101820003F4F2430310599F79091DA01890F809369
:10183000DA010895CF93DF938091D601882309F4CC
:1018400040C00E94300B80910101811103C0C4E0AF
:10185000D0E002C0C0E0D0E0C253DE4F44E050E030
:10186000BE018DED91E00E94BE31488159816A81AF
:101870007B814093DD015093DE016093DF01709323
:10188000E0010E94CD0B892BC1F05D988091D701BA
:101890008F5F8093D701863070F1809101018111B3
:1018A00003C0E0E0F0E002C0E4E0F0E0E253FE4F0D
:1018B00010821182128213821EC05D9A1092D7018B
:1018C0001AC00E94F70B80910101811103C080E0D2
:1018D00090E002C084E090E0FC01E253FE4F4091B2
:1018E000DD015091DE016091DF017091E0014083E4
:1018F0005183628373830E94D20F81E0DF91CF9185
:101900000895E82FF0E0E253FE4F80810895089596
:10191000E8EDF0E08081806180838AE18A95F1F7CB
:1019200000C08091D900817008950E94880C809336
:1019300001010E94880C882319F00E94A60C02C0A5
:101940000E94AA0C789408950C94950C82E091E082
:101950000C94970782E091E00C949E07CF93DF935D
:10196000EC0190911A018091DA01981751F082E010
:1019700090E00E946708892B21F48091DA0180931E
:101980001A01CD2B49F48091D8019091D901892B6E
:1019900019F480E090E002C081E090E00E946708C6
:1019A00021E030E0009711F420E030E03093D901DD
:1019B0002093D801DF91CF9108952BB1342F30952A
:1019C00023233BB1432B3FB7F894FC01680F791FE9
:1019D000E617F70789F0819198E04BB9000000C045
:1019E00087FF2BB9880F000000C000C000C02BB9D2
:1019F00000C09A9591F7ECCF3FBF08952AB1242BF0
:101A00002AB99B01220F331F620F731F0E94DD0C46
:101A100087EC90E00197F1F700C00000089548E0DE
:101A20000C94FE0C08950C94370ECF93DF93EC01C9
:101A30000E941826BE0180E090E0DF91CF910C94C7
:101A40007D23CF92DF92EF92FF920F931F9301E0DD
:101A500010E020E030E06801790104C0CC0CDD1C0E
:101A6000EE1CFF1C8A95D2F704C0000F111F221F25
:101A7000331F6A95D2F70C291D292E293F29C090C2
:101A80007602D0907702E0907802F0907902C0223E
:101A9000D122E222F322842FC016D106E206F306F9
:101AA00041F41F910F91FF90EF90DF90CF900C9435
:101AB000DE231F910F91FF90EF90DF90CF900C9459
:101AC000FF23CF93FB018E3D2CE5920709F444C020
:101AD00090F48B3D2CE5920739F128F4813C9C452C
:101AE00009F474C0C0C08C3D2CE5920721F18D3DF6
:101AF0009C4559F1B8C0823E2CE5920709F47AC0A2
:101B000048F48F3D2CE59207C9F1803E9C4509F4CD
:101B100053C0A9C0833E2CE5920709F47CC0843EE3
:101B20009C4509F48FC09FC0C281CC2309F49CC09E
:101B300081E090E006C0C281CC2309F495C082E028
:101B400090E00E94150DC0E08FC0C281CC2309F443
:101B50008BC084E090E0F5CFC281CC2349F0809126
:101B6000E501811103C081E08093E50183E011C0AC
:101B70001092E50183E00E94FF2318C0C281CC23AC
:101B800081F08091E501811103C081E08093E5013E
:101B900084E00E94DE2345E064E083E00E94210DA2
:101BA000D2CF84E00E94FF231092E50145E064E07B
:101BB00083E00E94210D58C0C28185E0CC2319F03A
:101BC0000E94DE23C0CF0E94FF234EC0C281CC23DF
:101BD00009F44AC08091FF020E949A170E949D1743
:101BE0008091010386958F7390E09093000380931A
:101BF000FF02A9CFC281CC2361F080911C0382FB3C
:101C0000CC27C0F982FD02C081E910C08EEF96E0BA
:101C100012C081E914C0C281CC2381F080911C03E1
:101C200082FBCC27C0F982FD04C080E90E949D1C84
:101C30001BC088EF96E00E94CD0F85CF80E90E94FF
:101C4000401D12C0C281CC2371F00E9464150E9415
:101C5000B0178091010386958F7390E090930003F5
:101C60008093FF0201C0C1E08C2FCF910895809135
:101C7000010386958F7390E0909300038093FF0299
:101C80000E94880C91E089270C94200A08950E94F4
:101C9000460E0C94CA0A0F931F93CF93DF93EC0167
:101CA0008B0144E550E00E94BE31892B59F084E558
:101CB000F801DE0101900D928A95E1F7CA5ADF4FD3
:101CC00081E08883DF91CF911F910F910895CF928A
:101CD000DF92EF92FF920F931F93CF93DF93CDB7D5
:101CE000DEB7C055D1090FB6F894DEBF0FBECDBF29
:101CF0008C0180911C0382FD0DC06BE571E0C80171
:101D00000E94710966EF76E0C8010E948F096EE5B6
:101D100071E00CC061E671E0C8010E94710964EFD6
:101D200076E0C8010E948F0964E671E0C8010E9454
:101D30007109809179028F93809178028F938091BD
:101D400077028F93809176028F938AEA91E09F9336
:101D50008F931F9288E28F937E0189E2E80EF11C37
:101D6000FF92EF920E94E4316BEE76E0C8010E9490
:101D70008F090FB6F894DEBF0FBECDBF80917602FB
:101D800090917702A0917802B0917902803191050B
:101D9000A105B105C9F058F40097A105B10589F076
:101DA0000897A105B105C9F467ED76E00FC0803250
:101DB0009105A105B10571F0C897A105B10551F0D4
:101DC0000CC063EE76E002C06DED76E0C8010E94C3
:101DD0008F0907C060ED76E0F9CFB701C8010E9416
:101DE00071090E946E1B82FD05C035EAC32E31E0E9
:101DF000D32E04C020E9C22E21E0D22E0E946E1BF9
:101E000081FD05C095EAE92E91E0F92E04C085E92F
:101E1000E82E81E0F82E0E946E1B80FD03C082EA4E
:101E200091E002C08AE991E0DF92CF92FF92EF92B7
:101E30009F938F9384EB91E09F938F931F9288E2FF
:101E40008F93CE0101967C019F938F930E94E43182
:101E5000B701C8010E9471090FB6F894DEBF0FBE2A
:101E6000CDBFC05BDF4F0FB6F894DEBF0FBECDBF56
:101E7000DF91CF911F910F91FF90EF90DF90CF9066
:101E80000895CF93DF93CDB7DEB7C755D1090FB60D
:101E9000F894DEBF0FBECDBFCE0101960E94A3090C
:101EA0008091D601882329F0CE0101960E94670E09
:101EB00006C06BE171E0CE0101960E947109BE017E
:101EC0006F5F7F4F88EA92E00E944B0EC95ADF4F46
:101ED0000FB6F894DEBF0FBECDBFDF91CF9108954E
:101EE00081E008950C94610DCF93282F30E0F90123
:101EF000EC55F64FC491F901EC5DF54F2491222386
:101F000059F081EE0E949D1C8C2F0E949D1C8C2FED
:101F10000E94401D81EE04C08C2F0E949D1C8C2FBE
:101F2000CF910C94401D0F931F93CF93DF93EC013F
:101F3000062FFE018491882359F19E012F5F3F4FA8
:101F4000813041F4E901F9011491812F0E949D1C17
:101F5000812F0DC0823031F4E901F90184910E9492
:101F60009D1C0AC0833031F4E901F90184910E947B
:101F7000401D02C00E94740F2196802F8823C9F251
:101F8000EFE9FFE03197F1F700C000008150F6CF94
:101F9000DF91CF911F910F91089560E00C94930F02
:101FA0000C94130D0C94F50A0C94120D08950E94D4
:101FB000BF1F0E94D60F2FEF84E39CE0215080408A
:101FC0009040E1F700C0000087E797E79093010891
:101FD000809300080C944727FF920F931F93CF9391
:101FE000DF938C01FC01C081D18180911A028111A3
:101FF00013C08281882349F0CE010E94D724F82E95
:10200000682FCE010E947C2404C0CE010E94AB2424
:10201000F82EBE018F2D04C0CE010E94D724BE0130
:102020000E948912EC01B8010E94720F882309F402
:1020300065C2C93CFCE5DF0709F4CEC0D8F5C13C58
:102040009CE5D90709F48EC0E8F4C531FCE5DF074B
:1020500078F4C2308CE5D80708F067C1C1159CE55B
:10206000D90709F464C0C130DC4509F468C039C23D
:10207000C631FCE5DF0709F40DC2C03CDC4509F4BC
:1020800069C02FC2F8018281C53CFCE5DF0709F475
:102090008BC040F4C33CECE5DE0709F479C008F4DA
:1020A0006DC07CC0C73C9CE5D90709F489C008F421
:1020B00081C08CC0C13DFCE5DF0709F406C1C0F456
:1020C000F8018281CD3CFCE5DF0709F4ACC040F4A7
:1020D000CB3CECE5DE0709F48DC008F485C08FC069
:1020E000CF3C9CE5D90709F4C8C008F4B0C0D9C0FA
:1020F000C53DFCE5DF0709F48BC150F4F80182818E
:10210000C33DFCE5DF0709F4FBC008F4E5C05FC18F
:10211000C93DECE5DE0709F4F8C0CA3DFCE5DF0780
:1021200009F4FAC0C63DDC4509F0DBC198C1F801ED
:102130008281882309F4E2C10E94D70FDFC1F80130
:102140008281882309F4DAC180918B0281608093B7
:102150008B02D4C1F8018281882309F4CFC10E9487
:102160003818CCC1F8018281882309F4C7C10E94C4
:10217000A825827251F00E94A717C0C1882309F4D4
:10218000BDC10E94A8258272B1F30E949D17B6C1FD
:10219000882309F4B3C10E94AF16B0C1882309F4A3
:1021A000ADC10E94C716AAC1882309F4A7C10E9425
:1021B000E616A4C1882309F4A1C10E9401179EC19B
:1021C000882309F49BC10E941B1798C1882309F436
:1021D00095C10E94361792C1F8018281882309F4C3
:1021E0008DC10E9482158AC1882309F487C10E948B
:1021F000971584C1882309F481C181E03BC08823FD
:1022000009F47CC10E947415623071058105910545
:1022100040F00E947415653071058105910508F440
:10222000B4CF82E027C0882309F468C10E947415E6
:10223000663071058105910540F00E947415683083
:1022400071058105910508F4A0CF86E013C08823AD
:1022500009F454C10E947415693071058105910516
:1022600040F00E9474156E3071058105910508F4E7
:102270008CCF89E00E949A1741C1882309F43EC19E
:102280000E9474156F3071058105910540F00E9420
:102290007415643171058105910508F476CF8FE0DE
:1022A000E9CF882309F42AC10E94741565317105AC
:1022B0008105910540F00E94741567317105810513
:1022C000910508F462CF85E1D5CFF801828188239A
:1022D00009F414C188E1CECF882309F40FC10E940C
:1022E0007415693171058105910540F00E947415DE
:1022F000623271058105910508F447CF89E1BACFB3
:10230000882309F4FBC083E2B5CFF80182818823DA
:1023100009F4F4C080E006C0F8018281882309F442
:10232000EDC082E00E947129E9C0F8018281882312
:1023300009F4DCC00E940526811102C00E94E42538
:102340000E941D2690E090931D0380931C03FE01C4
:10235000E350FC45E231F10530F4EA5AFF4F809139
:102360001C030C94AB3180911C03816027C08260F8
:1023700025C0846023C0806121C080621FC080644A
:102380001DC080681BC08460886018C08E7F16C026
:102390008D7F14C08B7F12C08F7E10C08F7D0EC0CA
:1023A0008F7B0CC08F770AC08B7F877F07C087FB2E
:1023B000222720F991E0922790FB87F980931C0354
:1023C00080911C030E9421260E94BF1F97C0882372
:1023D00051F01092EB010E94EB269093E80180935C
:1023E000E70182E022C08091EB0181110FC0809152
:1023F000E7019091E8010E94F7268436910530F4B8
:1024000086E20E949D1C86E20E94401D82E024C05C
:10241000F8018281882361F01092EC010E94EB2682
:102420009093EA018093E90180E20E946C1D66C0EE
:102430008091EC0181110FC08091E9019091EA0136
:102440000E94F7268436910530F487E20E949D1C95
:1024500087E20E94401D80E20E94731D4FC0F80178
:1024600082818111D9CF8091EC018111F4CF8091CB
:10247000E9019091EA010E94F7268436910558F708
:1024800080E20E94731D88E20E949D1C88E20E94E7
:10249000401D34C00E94A825282FF8018281409158
:1024A000740150917501882379F02A7A91E009F43A
:1024B00090E09093E601911102C069E201C065E3EA
:1024C000CA010E9459260AC08091E601811102C00A
:1024D00069E201C065E3CA010E945B260E9475257E
:1024E0000DC081E08093EB018093EC01C801DF9186
:1024F000CF911F910F91FF900C94700F80E0DF91AE
:10250000CF911F910F91FF90089580E090E0089582
:10251000089597E0799FF001112498E3899FE00DD9
:10252000F11D1124E60FF11DEE0FFF1FEC5FF84FB8
:10253000859194910895880F991FFC01EC55F54FF2
:10254000859194910895CF93DF930E9489120E9400
:102550004614EC01811520E59207F0F5811530E471
:10256000930708F018C1883E910500F5803E91055B
:1025700008F088C1883A910570F4853A910508F011
:102580009AC08130910509F47DC108F434C10497E3
:1025900008F078C130C18D3B910508F497C0803CAC
:1025A000910508F428C1805C9109E7C0811590422B
:1025B00058F4C11581E0D80708F064C1C03FD105C7
:1025C00008F419C1D0655EC1C11590E3D90708F0C0
:1025D000D8C0CE019F70D1C0811525E5920708F0C3
:1025E00043C0811534E5930708F0ECC0811542E53E
:1025F000940708F5C11581E5D80708F0CFC02C2F46
:10260000237081E090E002C0880F991F2A95E2F7BD
:102610009C689E0174E0369527957A95E1F72370C2
:10262000922BCF70C695C69530E2C39FE00111246E
:10263000C82BD92B27C1869586959E0123703327F9
:10264000C115D34508F0AFC040E2849FC0011124FA
:10265000C1E0D0E002C0CC0FDD1F2A95E2F78C2B41
:102660009D2BEC01DC680EC1811529E5920778F4F9
:10267000811538E5930708F0AAC08115964508F042
:10268000BAC0CF71DD27DC2FCC27D062FBC0C115CB
:102690008AE5D80708F4A0C0CE0190568115904273
:1026A00008F0A9C08D2F8F710E94C314DD27D0625E
:1026B0008F71D82BE7C0853A910509F49FC0863AFF
:1026C000910509F09EC0C2E8D0E4DCC0883A9105CB
:1026D00009F49AC0893A910509F499C08A3A91059A
:1026E00009F498C08B3A910509F497C08C3A91058A
:1026F00009F496C08B3B910509F495C08C3B91057C
:1027000009F494C08D3A910509F493C0803B91057A
:1027100009F492C08E3A910509F491C08F3A91055F
:1027200009F490C0813B910509F48FC0823B91056B
:1027300009F48EC0833B910509F48DC0843B91055B
:1027400009F48CC0853B910509F48BC0863B91054B
:1027500009F48AC0873B910509F489C0883B91053B
:1027600009F488C0893B910509F487C08A3B91052B
:1027700009F486C0C0E0D4E485C00E949B12EC013D
:1027800081C0CE019927D3FF03C0EC01D86C7AC079
:10279000EC01D06C77C0DF70D06A74C0DC2FCC271E
:1027A000C16FD06A6FC040E2849FC0011124C1E0B4
:1027B000D0E002C0CC0FDD1F2A95E2F7C82BD92B41
:1027C000DA6860C0D82FCC27C46FD06A5BC0D82F1E
:1027D000CC27C06FD06A56C08C2F8F70806E90E06F
:1027E000906A24E0D695C7952A95E1F7CF709C01B1
:1027F0003C2BE90147C0C0E0D0E044C0C1E8D0E4D0
:1028000041C0C3E8D0E43EC0C2EED4E43BC0C9EE50
:10281000D4E438C0CAEED4E435C0C5EBD4E432C049
:10282000C6EBD4E42FC0C3EBD4E42CC0C4EBD4E497
:1028300029C0C7EBD4E426C0CCECD4E423C0CDEC53
:10284000D4E420C0C3E8D5E41DC0CAE8D5E41AC06A
:10285000C2E9D5E417C0C4E9D5E414C0C1E2D6E4A6
:1028600011C0C3E2D6E40EC0C4E2D6E40BC0C5E298
:10287000D6E408C0C6E2D6E405C0C7E2D6E402C08A
:10288000CAE2D6E4CE01DF91CF9108958238910556
:1028900049F1B0F48133910509F458C048F4893204
:1028A000910509F44EC08A32910509F454C0089587
:1028B0008533910509F440C08933910599F0089555
:1028C000833E910529F138F4803E910591F0823ED6
:1028D0009105A1F00895863E9105F9F0873E910596
:1028E00031F1089520911C0320FD3AC021FD38C02C
:1028F000089580911C0380FD35C032C080911C0377
:1029000082FF32C080911C0384FD30C083EE39C049
:1029100080911C0382FD28C0F5CF80911C0383FFAA
:1029200027C080911C0384FD21C087EE2AC08091BE
:102930001C0383FD1DC0F5CF80911C0385FD1AC0CB
:102940001BC080911C0385FD17C014C080911C031F
:1029500086FD14C015C080911C0386FD11C00EC0F9
:1029600080EE0FC089E30DC082EE0BC080E009C08D
:1029700086EE07C089E205C085E303C08AE201C094
:1029800081E390E0089590911C0392FF0DC0282FE1
:102990002871283019F4877F846006C0282F24719D
:1029A000243011F48B7F886093FF0DC0282F28718D
:1029B000283119F4877E846106C0282F24712431C0
:1029C00011F48B7E886194FD877E0895EF92FF92CB
:1029D0000F931F93CF93DF93E901662309F44BC054
:1029E000242F30E0EFEFF0E0E61BF109B901E69F9C
:1029F0009001E79F300DF69F300D1124232F8B019E
:102A0000031B11095CE3E52EF12CB7010E94833111
:102A1000FB01BC01069FC001079F900D169F900D02
:102A20001124B7010E948331E230F105B1F040F486
:102A3000309779F0319711F5832F242F461B21C051
:102A4000E430F105A1F068F03597C1F4842F861BBE
:102A500018C0832F262F230F14C0862F830FE42F37
:102A600003C0E42FE61B842F432F2E2F0AC0842F90
:102A7000462F430F06C0842F242F03C080E020E0A0
:102A800040E0E42FF0E0E054F54F4491E22FF0E015
:102A9000E054F54F9491E82FF0E0E054F54FE491C5
:102AA00049839883EA83DF91CF911F910F91FF9023
:102AB000EF90089588E090E00C94A334AB01BC0142
:102AC00088E090E00C94C134E1E0F3E083E080839F
:102AD000109202038FEF828383831482608171815D
:102AE000828193810C945E156091010360FF06C0A2
:102AF00066956F7370E080E090E0089560E070E0AC
:102B0000CB0108958091050390E0019684309105F2
:102B100014F083E090E080930503609101037091CD
:102B2000020380910303909104030C945E1580913D
:102B3000050390E0019797FF02C080E090E08430A9
:102B4000910514F083E090E0809305036091010308
:102B50007091020380910303909104030C945E151D
:102B60008091010380FF06C066E070E086E093E09C
:102B70000C940F0D80E090E0FC01EA5FFC4F1182A5
:102B800010821282039682319105B1F7EDCF9091B8
:102B9000010390FF0FC020E030E0F901EA5FFC4F35
:102BA0008183608342832D5F3F4F22313105A9F736
:102BB0000C94B0150895CF93DF9300D01F92CDB73A
:102BC000DEB72091010320FF0AC09E012F5F3F4F17
:102BD0000E94E6144B8169818A810E94C7150F907B
:102BE0000F900F90DF91CF9108955F926F927F9237
:102BF0008F929F92AF92BF92CF92DF92EF92FF920D
:102C00000F931F93CF93DF9300D01F92CDB7DEB702
:102C10008C01E62EF42E522E8091010380FF89C094
:102C2000982F9E77923061F49E012F5F3F4FC8012D
:102C30000E94E6144B8169818A810E94C71559C0A0
:102C4000E82FE695EF739EE39E0F9F73943018F480
:102C5000F09004034EC09AE39E0F9F73993068F47E
:102C6000881F8827881F90910203292F220F022F87
:102C7000082B97FB112710F93CC087E28E0F8F734A
:102C80008A30B8F5F0E07997E0FD02C021E001C09C
:102C90002FEFEE7FEA54F54F8591949166E070E056
:102CA0000E94833126034001279F900C1124580174
:102CB00088E9A81A8EEFB80A86E0C82E83E0D82EDD
:102CC00098E6692E77247394C501B3010E9483317D
:102CD00096014F2D6E2D0E94E614A80CB91C83E0BE
:102CE000C80ED11C88E1C81683E0D80669F70E9497
:102CF000B0158091010300FB87F980930103902FA9
:102D00009695809102038078892B10FB87F9809338
:102D10000203E0920303F0920403552051F0609106
:102D200001037091020380910303909104030E94B8
:102D30005E150F900F900F90DF91CF911F910F9123
:102D4000FF90EF90DF90CF90BF90AF909F908F90CB
:102D50007F906F905F90089521E00C94F515E1E06D
:102D6000F3E02081221F2227221F30910203432FEC
:102D7000440F842F822B37FB992790F90A9668E637
:102D800071E00E949731438162810C94AC162091CE
:102D90000103221F2227221F30910203432F440FD9
:102DA000842F822B37FB992790F98A3091051CF4E8
:102DB000825A9E4F01C00A9768E671E00E949731DF
:102DC00040910403609103030C94AC1660910303DB
:102DD000862F90E08F3E910514F46F5E01C06FEF77
:102DE00080910103881F8827881F90910203292F53
:102DF000220F97FB992790F940910403822B0C94A2
:102E0000AC1660910303862F90E0419714F0615156
:102E100001C060E080910103881F8827881F90917E
:102E20000203292F220F97FB992790F94091040361
:102E3000822B0C94AC1640910403842F90E08F3EBB
:102E4000910514F44F5E01C04FEF80910103881F7C
:102E50008827881F90910203292F220F97FB99271B
:102E600090F960910303822B0C94AC1640910403FB
:102E7000842F90E0419714F0415101C040E08091CF
:102E80000103881F8827881F90910203292F220F92
:102E900097FB992790F960910303822B0C94AC1651
:102EA00020E00C94F515CF939091010390FF40C062
:102EB0009178811102C0926007C0853210F0986449
:102EC00003C08F73880F982B90930103662351F0F2
:102ED00060910103709102038091030390910403B8
:102EE0000E945E15C09101036C2F66956F7370E0B0
:102EF0004BE050E089E691E00E94B131892B19F056
:102F000010920A0203C081E080930A02CC1FCC27F2
:102F1000CC1F90910203892F880F97FB992790F976
:102F200040910403609103038C2BCF910C945017B4
:102F3000CF91089561E00C94531780910103869519
:102F40008F738F5F853208F081E00C949A1780911F
:102F5000010386958F73815009F484E20C949A17CB
:102F6000E1E0F3E080818160808386958F730C942B
:102F70009A1760E00C94531780918B0281608093C4
:102F80008B020E940526811104C00E94E4250E9444
:102F900064150E945A156093010370930203809395
:102FA0000303909304036E7761F40E9464150E94FA
:102FB0005A15609301037093020380930303909367
:102FC000040381E080930A028091010380FF04C022
:102FD00086958F730C94B91708959091010390FF13
:102FE00010C0263070F430E0F901EE0FFF1F2E0FF5
:102FF0003F1FF901EA5FFC4F8183608342830C9499
:10300000B01508951F93CF93DF9300D01F92CDB7D3
:10301000DEB73091010330FF0CC0122F9E012F5FED
:103020003F4F0E94E614212F4B8169818A810E94C3
:10303000ED170F900F900F90DF91CF911F91089592
:10304000E1E0F3E080818E7F808360817181828105
:1030500093810E945E1510920A022FEF80E792E0A2
:10306000215080409040E1F700C000000C94B01562
:103070008091010380FD0C9420180C94B017CF931D
:10308000C82F80910802909109020E94F726EC2F28
:10309000F0E0EE54F54FE491F0E08E179F0708F44E
:1030A00043C00E94EB26909309028093080260912E
:1030B000070270E080E090E00E94842F20E030E082
:1030C0004FE753E40E94A72E2BED3FE049E450E484
:1030D0000E94AD300E941A310E94212F2BE43AE366
:1030E0004EE25FE30E943A2E20EF3BEF48ED52E4C0
:1030F0000E94AD300E94532F462F80910103881FFC
:103100008827881F90910203292F220F97FB992768
:1031100090F960910303822B0E94DB1580910702D6
:1031200090E0019680930702CF910895CF93C82F26
:1031300080910502909106020E94F726EC2FF0E0A4
:10314000E155F54FE491F0E08E179F07E8F00E94FB
:10315000EB26909306028093050240910403609150
:10316000030380910302909104020E94DB15809179
:10317000030290910402019668E671E00E94833197
:103180009093040280930302CF910895CF92DF922F
:10319000FF920F931F93CF93DF93F82E809101023C
:1031A000909102020E94F726EF2DE695F0E0E4559B
:1031B000F54FE491F0E08E179F07E8F10E94EB26AF
:1031C000909302028093010206E013E0C0E0D0E099
:1031D00088E6C82EDD24D3948091FF0190910002EF
:1031E0008C0F9D1FB6010E9483319801409104030A
:1031F000609103030E94E614EC960D5F1F4FC836E2
:1032000081E0D80749F70E94B0152091FF01309165
:103210000002F0FE0AC0C9010196BE010E9483317E
:10322000909300028093FF0106C021503109309332
:1032300000022093FF01DF91CF911F910F91FF902A
:10324000DF90CF900895AF92BF92CF92DF92EF922E
:10325000FF920F931F93CF93DF93C82F80FF02C07D
:103260001FEF01C011E08091FD019091FE010E94CD
:10327000F726C695EC2FF0E0E755F54FE491F0E026
:103280008E179F0708F466C00E94EB269093FE01FC
:103290008093FD0126E0C22E23E0D22E38E0E32EFB
:1032A00033E0F32EC0E0D0E0F70131971082F60151
:1032B0001082F701108294E0A92EB12C00E08091D9
:1032C000FC01800F87FD8A5F082E000C990BC81740
:1032D000D907E9F4809104038A9DA0018B9D500DCC
:1032E0001124559547955595479580910103881F61
:1032F0008827881F90910203592F550F97FB992714
:1033000090F9960160910303852B0E94E614010F4A
:10331000F1E0AF1AB10899F6219683E0C80ED11CEE
:10332000E3E0EE0EF11CC630D10509F0BDCF0E94DE
:10333000B0158091FC01113031F4811102C085E09B
:1033400007C0815005C090E00196BE010E949731F0
:103350008093FC01DF91CF911F910F91FF90EF902F
:10336000DF90CF90BF90AF9008950F931F93CF93AE
:10337000DF93C82F8091FA019091FB010E94F726FC
:10338000EC2FF0E0EA55F54FE491F0E08E179F073F
:1033900008F466C00E94EB269093FB018093FA012B
:1033A00080E090E0FC01EA5FFC4F11821082128203
:1033B000039682319105B1F7C0E0D0E006E010E05D
:1033C000CE01B8010E9497314091F901042E000C02
:1033D000550BFC01EE0FFF1FC417D5070CF14091F0
:1033E0006801042E000C550B4C175D07CCF08E0FB6
:1033F0009F1F9C012A5F3C4F80910103881F8827F3
:10340000881F90910203592F550F97FB992790F928
:103410004091040360910303852B0E94E61407C0CA
:10342000E80FF91FEA5FFC4F118210821282219689
:10343000C630D10529F60E94B015809167019091A0
:10344000F901980F9093F90120916801280F2093BA
:103450006801121614F495301CF081958093670171
:10346000DF91CF911F910F910895EF92FF920F93EB
:103470001F93CF93DF938091F7019091F8010E9401
:10348000F726883E9340D0F10E94EB269093F801F6
:103490008093F701C091F501D091F6012196C1709A
:1034A000DD27D093F601C093F50186E0E82E83E096
:1034B000F82E10E008E7812F8695FE01E80FF11D38
:1034C000CF01817099279701409104036091030314
:1034D000FC010E9FC0010F9F900D11240E94E61465
:1034E0001F5FF3E0EF0EF11C163029F7DF91CF914B
:1034F0001F910F91FF90EF900C94B015DF91CF9139
:103500001F910F91FF90EF900895CF93DF9300D01C
:103510001F92CDB7DEB78091F3019091F4010E9424
:10352000F726E4EAFAE02591349182179307C0F177
:103530008091F20181110CC09E012F5F3F4F4FEF30
:103540006FEF80E090E00E94E6148A818093F201A0
:103550000E94EB269093F4018093F3018091F10196
:10356000813051F028F0823061F44091F2010AC0BC
:103570008091F20140E007C06091F20140E080E0FC
:1035800003C040E080E060E00E94C7158091F10137
:1035900090E0019663E070E00E9497318093F10122
:1035A0000F900F900F90DF91CF910895CF93DF93FD
:1035B0008091EF019091F0010E94F726843F9140A5
:1035C00008F444C00E94EB269093F0018093EF0131
:1035D000C0E0D0E02091ED013091EE018091010337
:1035E00090910203C330D1051CF4232B79F002C063
:1035F000232B61F4881F8827881F392F330F97FBEF
:10360000992790F92C2F409104030AC0881F88271E
:10361000881F392F330F97FB992790F92C2F40E003
:1036200060910303832B0E9402182196C630D105B6
:1036300089F60E94B0158091ED019091EE010196FE
:10364000817099279093EE018093ED01DF91CF91E6
:10365000089580910A028823D9F190910103892F5E
:1036600086958F732EE3280F2F73243018F4825021
:103670000C943F182AE3280F2F73233018F4865038
:103680000C94961827E3280F2F73263018F48950CE
:103690000C94C61821E3280F2F73263018F48F508E
:1036A0000C9423192BE2280F2F73233018F4855123
:1036B0000C94B519892F8E77803311F40C94351A38
:1036C000863411F40C94851A883411F40C94D61AAB
:1036D00008959093100280930F020895E0910F02D5
:1036E000F0911002309721F00190F081E02D0994C3
:1036F00080E00895E0910F02F0911002309721F0E0
:103700000280F381E02D0994089520910D023091FB
:103710000E028217930771F090930E0280930D02B0
:10372000E0910F02F0911002309721F00680F781AE
:10373000E02D0994089520910B0230910C0282171C
:10374000930771F090930C0280930B02E0910F02AB
:10375000F0911002309721F00084F185E02D09945A
:1037600008950C94A40C81E008950E94E22685B788
:10377000806885BF85B7806885BF0E94F70A0E9470
:1037800058270C94BC17CF92DF92EF92FF920F93C1
:103790001F93CF93DF93CDB7DEB72B970FB6F89477
:1037A000DEBF0FBECDBF0E941A0C0E94B31B811159
:1037B00011C08FEF89838A831B820E94EB26816070
:1037C000782F9D838C8349815A816B818D810E94E2
:1037D000691C56C082E1C82E82E0D82E00E010E0BD
:1037E000E02E802F0E94810CF60141916F01F42E92
:1037F000F82631F40F5F1F4F0830110589F7D9CF34
:1038000090918B0291FF04C08B870E94870C8B855F
:1038100020E030E04F2D50E0922FBA01022E02C07E
:10382000759567950A94E2F760FF24C02E83EF82B6
:1038300021E030E0690102C0CC0CDD1C9A95E2F772
:1038400090E08C219D21892B09F420E028870E949B
:10385000EB268160782F9A8789874E815F81688502
:103860008A850E94691CF801EE5EFD4F8081C826A2
:10387000C08206C02F5F3F4F2730310569F6BACFAF
:10388000109111020E946E1B1817A1F00E946E1B6E
:10389000809311022B960FB6F894DEBF0FBECDBFFA
:1038A000DF91CF911F910F91FF90EF90DF90CF901C
:1038B0000C94D40F2B960FB6F894DEBF0FBECDBF7D
:1038C000DF91CF911F910F91FF90EF90DF90CF90FC
:1038D0000895CF93DF93CDB7DEB72B970FB6F8944B
:1038E000DEBF0FBECDBF4F83588769877A878B872E
:1038F000DE01119686E0FD0111928A95E9F785E0D7
:10390000FE01379601900D928A95E1F749815A811F
:103910006B817C818D819E810E944E222B960FB6F9
:10392000F894DEBF0FBECDBFDF91CF910895FC01AB
:10393000808191810E9416250895882309F49FC0F3
:10394000682F8CEF860F813A38F480917401909142
:1039500075010E9459260CC080E2860F883050F411
:10396000677081E001C0880F6A95EAF70E94AB2575
:103970000C9475258BE5860F833070F4653A29F039
:10398000663A31F083E890E005C081E890E002C03B
:1039900082E890E00C94851B88E5860F853108F05D
:1039A0006EC0683A61F1693A69F16A3A71F16B3A4D
:1039B00079F16C3A81F16B3B89F16C3B91F16D3A95
:1039C00099F1603BA1F16E3AA9F16F3AB1F1613B17
:1039D000B9F1623BC1F1633BC9F1643BD1F1653B95
:1039E000D9F1663BE1F1673BE9F1683BF1F1693BF5
:1039F000F9F16A3B09F43FC080E090E03EC082EEFE
:103A000090E03BC089EE90E038C08AEE90E035C08F
:103A100085EB90E032C086EB90E02FC083EB90E026
:103A20002CC084EB90E029C087EB90E026C08CECA2
:103A300090E023C08DEC90E020C083E891E01DC0B1
:103A40008AE891E01AC082E991E017C084E991E028
:103A500014C081E292E011C083E292E00EC084E2E1
:103A600092E00BC085E292E008C086E292E005C0D9
:103A700087E292E002C08AE292E00C949B1B0895D8
:103A8000882349F1682F8CEF860F813A38F48091B2
:103A90007401909175010E945B260CC080E2860F34
:103AA000883050F4677081E001C0880F6A95EAF7AA
:103AB0000E94B1250C9475258BE5860F833020F488
:103AC00080E090E00C94851B685A653120F480E01A
:103AD00090E00C949B1B0895882321F00E94AB2555
:103AE0000C9475250895882321F00E94B1250C942B
:103AF000752508954F925F926F927F92BF92CF92F9
:103B0000DF92EF92FF920F931F93CF93DF937C018D
:103B1000D62FC72FFC01158112951F70028101114C
:103B20000E94C8250E946E25882379F0002369F041
:103B300080E28D0F883048F082E00E9457250E9475
:103B40006E2591E0B82EB92601C0B12CCC2EC294BE
:103B50008FE0C822D12CF601E859FF4F0C94AB310D
:103B60008C2F807FCF70882311F0C295C07F0023F7
:103B700099F0CC2309F46DC180E28D0F883010F0EC
:103B8000D11104C08C2F0E94AB2503C08C2F0E9442
:103B9000BB250E9475255DC18D2F0E94401DCC2341
:103BA00009F47CC180E28D0F883010F0D11104C07F
:103BB0008C2F0E94B12503C08C2F0E94C1250E942A
:103BC00075256CC18C2F807FCF70803211F0C2952B
:103BD000C07FDD2319F0D130C9F022C0002371F07D
:103BE000112341F0113031F40E94E1258C2B0E9409
:103BF000DB2554C10E94E1258C2B1DC0112319F037
:103C0000113009F44BC10E94DE251AC0002321F0B7
:103C1000163008F043C10EC0153008F03FC110C087
:103C2000002361F0112331F0F701858180FF11C17C
:103C30008F7085838C2F0E946C1D30C111111AC1A9
:103C40008C2FC6C08C2F837009F050C0011132C177
:103C50008D2F829586958770880F880F9D2F9F7076
:103C6000492E512C612C712C082E04C0440C551C7B
:103C7000661C771C0A94D2F7D4FF14C00FE010E042
:103C800020E030E0B901A80104C0440F551F661FB1
:103C9000771F8A95D2F7CB01BA0160957095809510
:103CA000909503C060E070E0CB01C695C695C370E7
:103CB000D0E0C230D10561F0C330D10581F0642974
:103CC000752986299729219771F00E949123F2C0C6
:103CD00064297529862997290E94A323EBC00E9495
:103CE0009123C301B2010E947F23E4C0002319F095
:103CF0008C2F817001C08695882309F4DBC08D2F3D
:103D0000829586958770880F880F9D2F9F70492E0A
:103D1000512C612C712C082E04C0440C551C661CBF
:103D2000771C0A94D2F7D4FF14C00FE010E020E013
:103D300030E0B901A80104C0440F551F661F771F6A
:103D40008A95D2F7CB01BA016095709580959095D0
:103D500003C060E070E0CB01C695C695C3704C2FE0
:103D600050E04230510569F04330510589F0642933
:103D70007529862997294130510571F00E945724F1
:103D800099C064297529862997290E94692492C0BF
:103D90000E945724C301B2010E9445248BC08D2F7D
:103DA00090E0FC01E05EF109E531F10508F04DC05D
:103DB000E858FF4F0C94AB31DF708C2F8F710023CC
:103DC00021F00E94DE238D2F36CF0E94FF238D2FFE
:103DD0000E94731D63C0002341F0153008F05EC0DF
:103DE0008C2F8F710E94242459C0163008F056C0C1
:103DF000F7CF002339F08C2F8F710E94DE234EC045
:103E00000023C9F38C2F8F710E94FF2347C000232A
:103E100029F08C2F8F710E94C92340C00E94C423B7
:103E20003DC0002349F0CF718C2F0E94DE2363E058
:103E30008C2F0E944E2532C081E00E9457251230FF
:103E400068F182E00E94572529C0002331F0112338
:103E500091F28D2F0E949D1C21C0112399F2D9331C
:103E600049F45FEF67EE73E0515060407040E1F756
:103E700000C000008D2F0E94401D10C04C2F4F70BD
:103E80006D2FC7010E9485120E94F22217C04C2F8D
:103E90004F706D2FC7010E94881210C088E0C816AD
:103EA000D10441F05CF0EAE0CE1AD108F2E0CF167E
:103EB000D10420F40E946E1B0E94D40FBB20F1F0AD
:103EC0000E944A2580FD1AC0F70112820E944425F3
:103ED0000E94DE23C7010E948C1F0E944425DF91AF
:103EE000CF911F910F91FF90EF90DF90CF90BF90F7
:103EF0007F906F905F904F900C94FF23DF91CF9154
:103F00001F910F91FF90EF90DF90CF90BF907F9027
:103F10006F905F904F9008950F931F93CF93DF930F
:103F2000EC01888199812B813C81232BB9F09F3F43
:103F300011F48F3F99F0CE010E94EC0F882371F0AD
:103F4000688179818A810E9421258C010E947B24CD
:103F50000E947C23B801CE010E947A1DDF91CF918F
:103F60001F910F9108950E94C8250E94D825809125
:103F70007401909175010E945D260C9475250E9434
:103F8000B8250C94B31F0E941625E92FE295EF7017
:103F9000F0E03297EE30F105B0F4E357FF4F0C94A8
:103FA000AB31803F91F018F4803E68F40EC0843F3E
:103FB00051F40BC0803E48F0813F29F406C093FBCA
:103FC000882780F9089580E0089581E00895CF93CF
:103FD000DF9300D000D01F92CDB7DEB70F900F90C7
:103FE0000F900F900F90DF91CF910895CF93DF93B3
:103FF00000D000D000D0CDB7DEB726960FB6F8942B
:10400000DEBF0FBECDBFDF91CF9108951F93CF9339
:10401000DF93C0911B0216E080911C02C81799F033
:10402000D0E01C9FF0011D9FF00D1124E35EFD4FB9
:104030004081518162817381848195810E94F61F44
:104040002196C770E9CFDF91CF911F9108954091DC
:104050004D0250914E0260914F027091500280913A
:104060005102909152020C94F61F80915202829557
:104070008F7009F054C080914F02882309F44FC01B
:1040800080911B02A0911C0260914D0270914E0222
:104090004091500250915102B6E08A1709F43FC096
:1040A00090E041155105C1F17F3F11F46F3FA1F13F
:1040B000B89FF001B99FF00D1124E35EFD4F2181FF
:1040C00072132AC02081621327C02281211124C0CB
:1040D000238134812417350710F421503109241B22
:1040E000350B24363105C0F4209152022F70206127
:1040F0002093520226E0289FF001299FF00D112401
:10410000EE5DFD4F80818F70806180838DE492E051
:104110000E948C1F0C94062001968770BECF0895D4
:10412000CF92DF92EF92FF920F931F93CF93DF9383
:10413000CDB7DEB762970FB6F894DEBF0FBECDBF26
:104140007C0185E0F701DE011D9601900D928A95B4
:10415000E1F7D7014C9111965C91119712966C91F1
:1041600012971396CD90DC90149730914D02709178
:104170004E028091500290915102009709F453C170
:104180007F3F19F43F3F09F44EC100914F020023D5
:1041900009F4CBC020915202C816D90628F0F601C6
:1041A000E81BF90BCF0104C0809590958C0D9D1DE7
:1041B00011E08436910578F010E0207F09F0D2C03C
:1041C0007C2DD98AC88A89890E94E71F8DE492E0F4
:1041D0000E948C1FBDC0822F807F09F046C07513DE
:1041E00014C0341312C0611110C02F7020612093CD
:1041F00052020E9427208DE492E00E948C1F809141
:104200005202D70115968C932EC0CD2819F15F3F2D
:1042100011F44F3FF9F0162F61111CC080911B0261
:1042200020911C0236E0821709F466C090E0389FA6
:10423000F001399FF00D1124E35EFD4F718157139A
:1042400006C07081471303C07281711103C00196CB
:104250008770E9CF162F662309F410C180915202AE
:1042600081608093520210E009C1751315C03413A8
:1042700013C0611111C080915202D70115968C9321
:10428000C7010E948C1F86E0F701ADE4B2E0019007
:104290000D928A95E1F763C04D875E878D859E8577
:1042A0006A8B0E94C31F6A898823D9F16623C9F1EA
:1042B00020915202822F82958F7090E0029774F0C5
:1042C00080914D0290914E0298878F831986DB86EC
:1042D000CA862C87CE0107960E948C1F86E0F701C4
:1042E000ADE4B2E001900D928A95E1F70E9435208D
:1042F0000E94272011E0C2C04D875E878D859E8574
:104300000E941625292F22952F7030E0223031058A
:104310000CF0A8C09F7009F0A2C0805E883008F43D
:10432000ADC0C7010E948C1FE5CFC816D90608F49E
:1043300053C0F601E81BF90BCF018436910508F450
:1043400050C010E07C2DD98AC88A89890E94E71F55
:10435000EDE4F2E086E0DF011D928A95E9F70E9424
:1043600027208CC0751314C0341312C0611110C003
:1043700080915202F7018583C7010E948C1F86E05D
:10438000EDE4F2E0DF011D928A95E9F7102F76C087
:104390004D875E878D859E856A8B0E94C31F6A89C3
:1043A000882309F4BECF662309F4BBCF20915202C3
:1043B000822F82958F7090E002970CF48FCF8091BE
:1043C0004D0290914E029A8389831B82DD82CC82BA
:1043D0002E83CE01019680CF809590958C0D9D1DEA
:1043E000ACCF162F662309F49CCF75130BC0341382
:1043F00009C086E0F701ADE4B2E001900D928A9524
:10440000E1F73CC04D875E878D859E850E94C31F66
:10441000811164CF80915202816080935202C70162
:104420000E948C1F2BC0662309F47BCF4D875E87CB
:104430008D859E850E94C31F182F882309F471CF94
:1044400086E0F701ADE4B2E001900D928A95E1F7C4
:104450008DE492E00E94971C0E94352080CF81114C
:104460005CCF0CC0243031050CF05BCF9F7009F499
:1044700054CFF7019581907F09F04FCF812F62963D
:104480000FB6F894DEBF0FBECDBFDF91CF911F9165
:104490000F91FF90EF90DF90CF9008951F93CF93EF
:1044A000DF93CDB7DEB72C970FB6F894DEBF0FBE03
:1044B000CDBF4F83588769877A878B879C87CE01CA
:1044C00007960E949020882369F08F8198852A851D
:1044D0003B85232BF1F19F3F09F063C08F3F09F02B
:1044E00060C037C086E0FE013796DE01119601906C
:1044F0000D928A95E1F76F817885EA85FB85309783
:1045000041F17F3F11F46F3F21F120911C0230E017
:10451000C90101968770992740911B0250E08417CA
:10452000950709F447C069837A83FD83EC8396E09D
:10453000929FD001939FB00D1124A35EBD4FFE0149
:10454000319601900D929A95E1F780931C020E949A
:10455000062016E080911B0290911C028917C1F180
:10456000189FC0011124835E9D4F0E9490208823D4
:1045700079F1E0911B021E9FF0011124E35EFD4FD3
:104580004081518162817381848195810E94F61FEF
:1045900080911B0290E001968770992780931B02FF
:1045A000D9CF4F81588569857A858B859C850E94F6
:1045B000F61FCFCF0E94BF1F10921C0210921B0249
:1045C000EDE4F2E086E0DF011D928A95E9F7C1CFC4
:1045D0002C960FB6F894DEBF0FBECDBFDF91CF9102
:1045E0001F910895EF92FF920F931F93CF93DF9344
:1045F0008C01892B09F46CC0F12CEE24E394E801C2
:104600002196F8018491843740F4843008F051C039
:10461000813081F0823019F15BC0853709F444C0E4
:10462000A8F19CE7980F903708F052C08F770E944E
:10463000401D41C00E5F1F4FFE01C49180E28C0FF0
:10464000883048F4C7708E2D01C0880FCA95EAF7EC
:104650000E94CB2514C08C2F0E949D1C2DC00E5F84
:104660001F4FFE01C49180E28C0F883058F4C77050
:104670008E2D01C0880FCA95EAF70E94D1250E94AD
:1046800075251AC08C2F0E94401D16C00E5F1F4F4B
:10469000FE01C491CC2381F08FE99FE00197F1F7EF
:1046A00000C00000C150F6CF0E5F1F4FFE01F49016
:1046B00003C00E949D1C8E018F2D882309F49FCF7B
:1046C000EFE9FFE03197F1F700C000008150F5CF2E
:1046D000DF91CF911F910F91FF90EF900895089572
:1046E0000E946F2360937A0270937B0280937C0216
:1046F00090937D020C94B31F08950C9470230F9334
:104700001F9300917A0210917B0220917C023091DC
:104710007D02602B712B822B932B1F910F910C9498
:1047200070230F931F9300917A0210917B022091C6
:104730007C0230917D0260237123822393231F9199
:104740000F910C9470230F931F9300917A02109194
:104750007B0220917C0230917D02602771278227A5
:1047600093271F910F910C94702308950C94B523F7
:104770000E94B6236093760270937702809378024A
:10478000909379020C94B31F60E070E0CB010C941D
:10479000B8230F931F9341E050E060E070E08A017E
:1047A0009B0104C0000F111F221F331F8A95D2F7EF
:1047B000C901B8011F910F910C94B8230F931F9357
:1047C00041E050E060E070E004C0440F551F661FF8
:1047D000771F8A95D2F78091760290917702A09107
:1047E0007802B09179028A019B01082B192B2A2BA0
:1047F0003B2BC901B8011F910F910C94B8230F9363
:104800001F9341E050E060E070E004C0440F551F8A
:10481000661F771F8A95D2F74095509560957095E1
:104820008091760290917702A0917802B0917902FE
:104830008A019B01082319232A233B23C901B801BC
:104840001F910F910C94B8230F931F9341E050E0F8
:1048500060E070E004C0440F551F661F771F8A9503
:10486000D2F78091760290917702A0917802B09170
:1048700079028A019B01082719272A273B27C901AA
:10488000B8011F910F910C94B8230F931F930091BF
:104890007602109177022091780230917902602B94
:1048A000712B822B932B1F910F910C94B8230F9394
:1048B0001F93009176021091770220917802309137
:1048C000790260237123822393231F910F910C940B
:1048D000B8230F931F9300917602109177022091D5
:1048E00078023091790260277127822793271F91E0
:1048F0000F910C94B823089527E0929F800D112406
:10490000A82FA695A695A695877051E001C0550FD2
:104910008A95EAF785E0A89FD001112420E030E0D5
:1049200070E0F901EA0FFB1FED5AFD4F4081CB010A
:10493000022E02C0969587950A94E2F78170992716
:10494000819584278523842780832F5F3F4F2530DF
:10495000310539F7089527E0929F800D1124682FC3
:10496000669566956695982F977085E0689FB0016B
:10497000112440E050E080E0FA01E60FF71FED5A05
:10498000FD4F208130E0092E02C0369527950A940C
:10499000E2F721703327042E01C0220F0A94EAF7B0
:1049A000822B4F5F5F4F4530510531F70895CF920D
:1049B000DF92EF92FF920F931F93CF93DF938C01BF
:1049C000C0907A02D0907B02E0907C02F0907D0251
:1049D0008091760290917702A0917802B09179024D
:1049E000C82AD92AEA2AFB2ACFE1D0E0D701C6019A
:1049F0000C2E04C0B695A795979587950A94D2F783
:104A000080FF06C0B8018C2F0E94A312019721F4E9
:104A1000219760F780E001C08C2FDF91CF911F912B
:104A20000F91FF90EF90DF90CF900895CF93DF9399
:104A3000EC010E94D724BE010E94A312DF91CF9106
:104A400008951F93CF93DF93EB0190911A0299235E
:104A500021F0CB010E94162513C0882349F0CB0119
:104A60000E94D724182F682FCE010E947C2404C0F6
:104A7000CB010E94AB24182FBE01812F0E94A312EC
:104A8000DF91CF911F91089580917E028595859544
:104A90008595089580917E028770089598E0899F9A
:104AA00090011124262B20937E020C94DE2320916A
:104AB0007E028095822380937E02982F977069F4FE
:104AC00030E0482F082E000C550B2417350729F02D
:104AD0008595859585950C94FF23089590917E0288
:104AE000977081E009F480E00895E0917401F091FD
:104AF000750180918A028083E0917401F0917501C3
:104B0000908180918902892B8083E0917401F091DA
:104B10007501908180918802892B808380917F022A
:104B2000882381F0E0917401F09175019081892BC7
:104B3000808380917401909175010E9426268111D5
:104B400010927F0280917401909175010C947A1BF0
:104B500080918A02089590918A02892B80938A021B
:104B60000895809590918A02892380938A020895FE
:104B700010928A02089590918902892B809389026C
:104B800008958095909189028923809389020895E0
:104B900010928902089590918802892B809388024F
:104BA00008958095909188028923809388020895C2
:104BB00010928802089580937F02089510927F02D8
:104BC000089580917F0208956DEE7EEF80E090E081
:104BD0000E94CD3460E082E090E00E94AF3460E05B
:104BE00083E090E00E94AF3460E084E090E00E94B7
:104BF000AF3460E085E090E00E94AF3440E050E0E8
:104C0000BA0188E090E00C94C13480E090E00E940A
:104C1000A93421E08D3E9E4F09F020E0822F0895B7
:104C200082E090E00C949B3483E090E00C949B3401
:104C3000682F83E090E00C94AF3484E090E00C9413
:104C40009B34682F84E090E00C94AF34FC013196E3
:104C50009C01285F3F4F80E0919191118F5FE21797
:104C6000F307D1F708959C01FC0132969FEF80E095
:104C70004191461789F09F3F19F4411101C0982FC7
:104C80008F5F8630A9F79F3F39F0F901E90FF11DD9
:104C900097FDFA95628308950895FC01329608966F
:104CA0002081261301C010823196E817F907C1F759
:104CB00008950C9433260C944D26FC0131960896E9
:104CC0001192E817F907E1F7089508950C94652605
:104CD0000E94662680912203843049F110928C0252
:104CE00020E488E190E00FB6F894A89580936000E6
:104CF0000FBE2093600080E00E94D40F0E946626C1
:104D000083B7817F846083BF83B7816083BF7894DA
:104D1000889583B78E7F83BF0FB6F894A89580914E
:104D20006000886180936000109260000FBE08955B
:104D300008950895CF930E9498260E941A0C0E940D
:104D40009926C0E08C2F0E94810C811104C0CF5F96
:104D5000C830C1F701C081E0CF91089508950C9447
:104D6000AE260E94BF1F0E946E1B0E94D40F0C949F
:104D7000AF261F920F920FB60F9211248F939F931D
:104D8000AF93BF9380918C02811113C0809118035F
:104D900090911903A0911A03B0911B034196A11D94
:104DA000B11D8093180390931903A0931A03B09335
:104DB0001B03BF91AF919F918F910F900FBE0F90EA
:104DC0001F90189582E084BD93E095BD9AEF97BD42
:104DD00080936E0008952FB7F894809118039091F6
:104DE0001903A0911A03B0911B032FBF0895CF920E
:104DF000DF92EF92FF920F931F932FB7F894409199
:104E000018035091190360911A0370911B032FBF6F
:104E10006A017B01EE24FF248C0120E030E0C01603
:104E2000D106E206F30610F4415051099A01281BFD
:104E3000390BC9011F910F91FF90EF90DF90CF9038
:104E4000089578941F920F920FB60F9211248F93AA
:104E50009F93AF93BF938091180390911903A091F2
:104E60001A03B0911B030196A11DB11D8093180375
:104E700090931903A0931A03B0931B03BF91AF91B2
:104E80009F918F910F900FBE0F901F90189587E7FD
:104E900097E790930108809300089AE088E10FB6A5
:104EA000F894A895809360000FBE90936000FFCFA8
:104EB0000E940526811102C00E94E4250E9410264E
:104EC00080938B020E941D2690E090931D03809397
:104ED0001C030E941426682F70E080E090E00C9480
:104EE0007D2380919502089508950F931F93CF938A
:104EF000DF9300D01F92CDB7DEB78C010E948129CD
:104F0000823011F0843021F583E089831B830A838A
:104F100081E08093E9008FEF9091E800815095FD4A
:104F200006C095ED9A95F1F700008111F5CF8091BB
:104F3000E80085FF0DC040E050E063E070E0CE0186
:104F400001960E949E298091E8008E778093E80068
:104F50000F900F900F90DF91CF911F910F910895B7
:104F6000CF93DF9300D01F92CDB7DEB720912203FD
:104F7000243031F522E02983805891099B838A836C
:104F800081E08093E9008FEF9091E800815095FDDA
:104F900006C095ED9A95F1F700008111F5CF80914B
:104FA000E80085FF0DC040E050E063E070E0CE0116
:104FB00001960E949E298091E8008E778093E800F8
:104FC0000F900F900F90DF91CF910895CF93DF93C3
:104FD000EC010E948129823011F0843039F581E0A2
:104FE0008093E9009FEF8091E800915085FD06C015
:104FF00085ED8A95F1F700009111F5CF8091E800D9
:1050000085FF14C040E050E068E070E0CE010E94EF
:105010009E299091E8009E779093E80098E0FE0129
:10502000ADE8B2E001900D929A95E1F7DF91CF9152
:10503000089580912103811109C00E94332B0E94A1
:10504000902B8091E20084608093E200089510929A
:1050500021030895089508950C94B12642E061EC6F
:1050600081E00C94AD2A80912403833009F453C06D
:1050700030F4813071F0823009F48CC008958A30A8
:1050800009F478C08B3009F45EC0893009F09AC009
:1050900020C080912303813A09F094C08091E800F8
:1050A000877F8093E8008091270390912803892BC4
:1050B00021F468E08DE892E003C060E080E090E0D9
:1050C00070E00E94E9298091E8008B778093E800E6
:1050D000089580912303813209F074C080912703E1
:1050E00090912803892B09F06DC08091E800877F9B
:1050F0008093E8008091E80082FD05C08091220342
:105100008111F8CF5FC08091F1008093950280916A
:10511000E8008B7753C080912303813A09F052C095
:105120008091270390912803892B09F04BC080912F
:10513000E800877F8093E8008091E80080FFFCCF43
:105140008091800136C0809123038132D9F580910E
:10515000270390912803892BA9F58091E800877F88
:105160008093E8000E94E22A8091250380938001C9
:105170000C94BF1F80912303813221F58091E800B8
:10518000877F8093E8000E94E22A80912603809323
:105190009602089580912303813AA1F48091E8005A
:1051A000877F8093E8008091E80080FFFCCF8091AA
:1051B00096028093F1008091E8008E778093E8005A
:1051C0000C94E22A089584B7877F84BF0FB6F894C1
:1051D000A8958091600088618093600010926000C3
:1051E0000FBE80E880936100109261000E94B11BA5
:1051F0000E94332B0E94902B8091E2008460809368
:10520000E20078940E941F2E0E94B51B86E791E071
:105210000E94691B80912203853069F40E946826F0
:10522000809120038823B1F30E949A26882391F36A
:105230000E948829EFCF0E94C31B0E94291BEACF3E
:105240000C942229292F332723303105C1F05CF437
:105250002130310579F022303105D1F582E290E03C
:1052600028EF3BE039C02132310521F122323105EE
:1052700041F12EC082E190E02AE13CE02DC0992767
:105280008130910571F02CF4892B11F5E4EFFBE0EE
:105290000DC08230910541F00397D1F4E0ECFBE0C2
:1052A00005C0EEEDFBE002C0E6ECFBE0849190E08F
:1052B0009F0112C0672B61F489E090E02AE03CE096
:1052C0000BC0672B29F480E490E02CE23CE004C0A2
:1052D00080E090E020E030E0FA01318320830895FF
:1052E0000895CF93C82F0E947029C0939702CF9141
:1052F000089580912203843011F081E0089582E0C6
:10530000089580919702811102C00C947929089523
:1053100080E189BD82E189BD09B400FEFDCF8091A5
:10532000D8008F7D8093D8008091E00082608093C8
:10533000E0008091E00081FDFCCF0895CF92DF92E4
:10534000EF92FF920F931F93CF93DF93EC018B01AA
:105350006A010E94012B811133C0C114D10439F0BC
:10536000F60180819181081B190BC80FD91FE12C10
:10537000F12C0115110519F18091E80085FD16C089
:105380008091E8008E778093E800C114D10449F041
:10539000F60180819181E80EF91EF182E08285E0BC
:1053A0000FC00E94012B882321F30AC089918093AA
:1053B000F10001501109FFEFEF1AFF0ADACF80E088
:1053C000DF91CF911F910F91FF90EF90DF90CF90E1
:1053D00008952091290330912A032617370748F0B2
:1053E0006115710539F42091E8002E772093E800CB
:1053F00001C0B90140E061157105A9F120912203B6
:10540000222309F443C0253009F442C02091E8006A
:1054100023FD40C02091E80022FD32C02091E80029
:1054200020FFE9CF4091F3002091F20030E0342BCF
:10543000FC01CF016115710559F02830310540F4A8
:1054400081918093F100615071092F5F3F4FF1CF3F
:1054500041E02830310509F040E02091E8002E7746
:105460002093E800C8CF4111C9CF0AC08091220320
:10547000882361F0853061F08091E80083FD0AC0E7
:105480008091E80082FFF2CF80E0089582E00895E5
:1054900083E0089581E008952091290330912A0343
:1054A0002617370748F06115710539F42091E80097
:1054B0002E772093E80001C0B901FC0120E06115BE
:1054C000710591F180912203882309F440C0853051
:1054D00009F43FC08091E80083FD3DC08091E80061
:1054E00082FD2FC08091E80080FFE9CF2091F3007A
:1054F0008091F20090E0922B6115710559F088308F
:10550000910540F424912093F10031966150710986
:105510000196F2CF21E0089709F020E08091E800A1
:105520008E778093E800CBCF2111CCCF0AC0809139
:105530002203882361F0853061F08091E80083FDCB
:105540000AC08091E80082FFF2CF80E0089582E0F7
:10555000089583E0089581E00895982F973058F5D5
:105560009093E900981739F07091EC002091ED00CC
:105570005091F00003C0242F762F50E021FF19C076
:105580003091EB003E7F3093EB003091ED003D7F9A
:105590003093ED003091EB0031603093EB0070936D
:1055A000EC002093ED005093F0002091EE0027FFD7
:1055B00007C09F5FD3CF8F708093E90081E008958B
:1055C00080E008958091230387FF11C08091E80057
:1055D00082FD05C0809122038111F8CF11C0809116
:1055E000E8008B770BC080912203882349F08091DB
:1055F000E80080FFF8CF8091E8008E778093E80084
:1056000008952091E4003091E50095E64091EC008A
:10561000842F817040FF22C08091E80080FD1CC073
:1056200080912203882391F0853091F08091EB00E6
:1056300085FD10C04091E4005091E50042175307EA
:1056400029F39A01915011F784E0089582E00895BA
:1056500083E0089581E0089580E008954091E80096
:1056600042FFDECF08950E94A12B0E94A92BE0EEFD
:10567000F0E0808181608083E8EDF0E080818F77C9
:10568000808319BCA7EDB0E08C918E7F8C938081D4
:105690008F7E80831092210308950F931F93CF93E1
:1056A000DF930E94A12B0E94A92BC8EDD0E0888136
:1056B0008F77888388818068888388818F7D8883BD
:1056C00019BC1092220310921E0310922003109214
:1056D0001F0300EE10E0F80180818B7F80838881BA
:1056E0008160888342E060E080E00E94AD2AE1EEC4
:1056F000F0E080818E7F8083E2EEF0E08081816047
:105700008083808188608083F80180818E7F8083A0
:10571000888180618883DF91CF911F910F910895D7
:10572000E8EDF0E080818F7E8083E7EDF0E080811E
:105730008160808384E082BF81E0809321030C94A8
:105740004D2BE8EDF0E080818E7F80831092E200A7
:1057500008951092DA001092E10008951F920F92BE
:105760000FB60F9211242F933F934F935F936F9334
:105770007F938F939F93AF93BF93EF93FF9380910A
:10578000E10082FF0BC08091E20082FF07C08091A0
:10579000E1008B7F8093E1000E941E2E8091DA0051
:1057A00080FF1FC08091D80080FF1BC08091DA006D
:1057B0008E7F8093DA008091D90080FF0DC080E158
:1057C00089BD82E189BD09B400FEFDCF81E08093EF
:1057D00022030E94192805C019BC109222030E94BE
:1057E00027288091E10080FF19C08091E20080FFAE
:1057F00015C08091E2008E7F8093E2008091E200EC
:1058000080618093E2008091D80080628093D8000C
:1058100019BC85E0809322030E942B288091E1002F
:1058200084FF30C08091E20084FF2CC080E189BDFC
:1058300082E189BD09B400FEFDCF8091D8008F7D43
:105840008093D8008091E1008F7E8093E100809169
:10585000E2008F7E8093E2008091E200816080937D
:10586000E20080911E03882311F084E007C080913C
:10587000E30087FD02C081E001C083E08093220342
:105880000E942C288091E10083FF29C08091E200D2
:1058900083FF25C08091E100877F8093E10082E053
:1058A0008093220310921E038091E1008E7F8093EB
:1058B000E1008091E2008E7F8093E2008091E2001F
:1058C00080618093E20042E060E080E00E94AD2AC7
:1058D0008091F00088608093F0000E942A28FF9158
:1058E000EF91BF91AF919F918F917F916F915F9158
:1058F0004F913F912F910F900FBE0F901F901895D1
:105900001F920F920FB60F9211242F933F934F9334
:105910005F936F937F938F939F93AF93BF93CF9337
:10592000DF93EF93FF93C091E900CF708091EC007B
:10593000D82FD17080FDD0E81092E9008091F0005E
:10594000877F8093F00078940E94C42C1092E90025
:105950008091F00088608093F000CD2BCF70C093D1
:10596000E900FF91EF91DF91CF91BF91AF919F91AE
:105970008F917F916F915F914F913F912F910F90F8
:105980000FBE0F901F9018951F93CF93DF93CDB745
:10599000DEB7AA970FB6F894DEBF0FBECDBFE3E225
:1059A000F3E088E08E0F9091F10091938E13FBCF7E
:1059B0000E9433288091E80083FF28C1809123034F
:1059C00090912403492F50E04A30510508F01EC140
:1059D000FA01E556FF4F0C94AB31803821F0823844
:1059E00009F014C108C080911F03909120039923EE
:1059F00089F082600FC0809127038F70873008F094
:105A000005C18093E9008091EB0085FB882780F930
:105A10001092E9009091E800977F9093E8008093BE
:105A2000F1001092F100D0C0282F2D7F09F0EEC0B8
:105A3000882319F0823061F0E9C08091250381301C
:105A400009F0E4C0933009F080E0809320032EC079
:105A50008091250381112AC0809127038F702FEF39
:105A6000280F263008F0D2C08093E9002091EB0087
:105A700020FF1CC0933021F48091EB00806214C0A1
:105A80009091EB0090619093EB0021E030E0A90150
:105A900002C0440F551F8A95E2F74093EA00109226
:105AA000EA008091EB0088608093EB001092E9009F
:105AB0008091E800877F8093E8000E94E22AA6C0D8
:105AC0008111A4C0109125031F778091E300807895
:105AD000812B8093E3008091E800877F8093E8002A
