:100000000C9425030C946C030C946C030C948504E1
:100010000C946C030C946C030C946C030C946C03A4
:100020000C946C030C946C030C94EB1C0C94BD1D91
:100030000C94F8170C946C030C946C030C946C03E4
:100040000C946C030C946C030C946C030C946C0374
:100050000C946C030C9460180C946C030C946C035B
:100060000C946C030C946C030C946C030C946C0354
:100070000C946C030C946C030C946C030C946C0344
:100080000C946C030C946C030C946C030C946C0334
:100090000C946E030C946C030C946C030C946C0322
:1000A0000C946C030C946C030C946C03800982090F
:1000B0008D098409860988098A098C098F099109A3
:1000C00093099E099509970999099B099D09A0091A
:1000D000F60EF60E280F280F94109410941094101A
:1000E000680F9410151015108410941094108D1032
:1000F0002210221022102210221022102210221070
:10010000221022102210221022102210221022105F
:1001100031103F1046104D105710171117112911AB
:100120002911201129112911291117111711251130
:100130002911291125112A1E511E431F511E431F2B
:100140009D1EC01E431F161F251F02E26003E20012
:1001500002E26003E20035001E001F0020002100C3
:10016000220000002B0014001A00080015001700E0
:100170000000E00004001600070009000A0000006B
:10018000E1001D001B000600190005002F00E05CC7
:100190002900E200E300E25CDE5C2C004C0027005A
:1001A000260025002400230000002A00130012006E
:1001B0000C0018001C000000340033000F000E007B
:1001C0000D000B000000280038003700360010003A
:1001D000110030004F00520051005000E35CDF5C22
:1001E0002C0035001E001F0020002100220000000E
:1001F0002B0014001A00090013000A000000E000A0
:10020000040015001600170007000000E1001D00A3
:100210001B000600190005002F00E05C2900E20029
:10022000E300E25CDE5C2C004C0027002600250089
:100230002400230000002A0033001C0018000F00D7
:100240000D000000340012000C00080011000B002B
:100250000000280038003700360010000E00300083
:100260004F00520051005000E35CDF5C2C00350071
:100270001E001F0020002100220000002B0034007F
:100280003600370013001C000000E00004001200DC
:10029000080018000C000000E100330014000D00FD
:1002A0000E001B002F00E05C2900E200E300E25C8E
:1002B000DE5C2C002A0027002600250024002300F5
:1002C00000004C000F00150006000A0009000000A5
:1002D00038001600110017000B000700000028006E
:1002E0001D0019001A001000050030004F005200D8
:1002F00051005000E35CDF5C2C0035021E021F023F
:10030000200221022202000035021E021F022002EA
:1003100021022202000001003A003B003C003D00A7
:100320003E00000001004000410042004300440044
:10033000260201000100010001000100010001008E
:1003400001002702260225022402230200000100E8
:100350002702260225022402230200003102300275
:100360002F022E022D023F00000001004D004A0026
:100370000100010045002702AE00A900AA00AB0061
:1003800001000100010035001E001F0020002100B7
:100390002200000035001E001F0020002100220066
:1003A000000001003A003B003C003D003E00000020
:1003B00001004000410042004300440001000100F0
:1003C0000100010001000100010001002A002700D6
:1003D000260025002400230000004C0027002600F2
:1003E0002500240023000000310030002F002E00E3
:1003F0002D003F00000001004B004E0001000100F5
:1004000045000100AE00A900AA00AB0001000100F8
:1004100001003A003B003C003D003E003F00000070
:100420000100005CE45C010001000100000001002B
:10043000010001001D5C1E5C135C00000100010056
:1004400001000100010001000100010001000100A4
:10045000010001000100010045004400430042008A
:100460004100400000004C000100010001000100BB
:100470000100000001000100DD5CDC5CDB5C0A5C6B
:100480000000C75CC55CC35CC05C010001000100EA
:10049000C85CC65CC45CC15C0100010001000000D6
:1004A0000000000000002A2B2800000000000000CF
:1004B00000000000000000000029000000002C1EC9
:1004C0003420212224342627252E362D3738271E86
:1004D0001F202122232425263333362E37381F04AC
:1004E00005060708090A0B0C0D0E0F101112131444
:1004F00015161718191A1B1C1D2F3130232D350402
:1005000005060708090A0B0C0D0E0F101112131423
:1005100015161718191A1B1C1D2F3130354C0000E9
:1005200000000000000000000000000000000000CB
:1005300000000000000000000000000000000001BA
:1005400001010101010001010101000000000000A2
:100550000000000000000000010001000101010195
:10056000010101010101010101010101010101017B
:100570000101010101010101010000000101000070
:10058000000000000000000000000000000000006B
:100590000000000000000000000101010100040350
:1005A000300000001603480065006C006900780008
:1005B000200042006500740061000000140359002F
:1005C00075007300680061006B006F0062006F00CF
:1005D00000000403090409022200010100A03209FD
:1005E0000400000103010100092111010001224062
:1005F000000705810308000A12011001000000082D
:10060000EDFE603001000102030105010906A101B0
:10061000050719E029E715002501950875018102F4
:1006200095017508810105081901290595057501D0
:1006300091029501750391010507190029FF150025
:1006400026FF00950675088100C011241FBECFEF5C
:10065000DAE0DEBFCDBF04B603FE27C080912702DB
:1006600090912802A0912902B0912A028730904BE4
:10067000A740B04BD1F4109227021092280210929A
:10068000290210922A0214BE84B7877F84BF0FB656
:10069000F894A89580916000886180936000109222
:1006A00060000FBEE0E0F8E3099511E0A0E0B1E0E2
:1006B000E4E8FFE302C005900D92AA33B107D9F731
:1006C00022E0AAE3B1E001C01D92A732B207E1F730
:1006D0000E94221A0C94C01F0C9400001F920F92CB
:1006E0000FB60F9211248F939F93EF93FF938091F6
:1006F000B900887F803869F038F48823C9F18036E2
:10070000C9F510923A0136C0883A09F1883BF9F0F0
:1007100031C080913A01811111C08091BB0080935A
:100720003B0180913B01803120F010923B0180E041
:1007300001C081E091E090933A011DC0E0913B013E
:10074000F0E08091BB00EC5FFD4F808308C0E0913A
:100750003B01F0E0EC5FFD4F80818093BB00809116
:100760003B0190E001968F70992780933B0102C076
:100770001092BC0081E09091BC0095688295880F32
:10078000880F807C892B8093BC00FF91EF919F9113
:100790008F910F900FBE0F901F9018955A9880E27E
:1007A0008A95F1F75A9A0895FC014AE04A95F1F7C3
:1007B00030E090E080E021E0961779F040E14A9542
:1007C000F1F7880F4A9B02C08160322700C0000009
:1007D00040E14A95F1F79F5FEFCF90E19A95F1F7ED
:1007E00029B100C0000040E14A95F1F722FB9927AA
:1007F00090F993272081920F908308958EE14A9B70
:1008000002C08150E1F74A9BFECF0895EF92FF921C
:100810000F931F93CF93DF931F92CDB7DEB7F62EC2
:100820001982E82E8C01802F8E198F1558F40E94A2
:10083000FE0368E0CE0101960E94D403F801819383
:100840008F01F1CF81E09981911180E00F90DF91CC
:10085000CF911F910F91FF90EF90089590933D01DC
:1008600080933C01529A5A9A089590933D01809347
:100870003C0152985A9AEA9AE9E6F0E080818F7C2E
:1008800080830895615091E001C0990F6A95EAF75D
:1008900020E031E0992361F0492F482319F05A9A5A
:1008A000232701C05A9840E24A95F1F79695F2CF76
:1008B000222311F05A9A01C05A9880E28A95F1F7E2
:1008C0005A980895EF92FF920F931F93CF93DF935F
:1008D0001F92CDB7DEB7162F082F7C018E2D801BFF
:1008E000811758F4F70181917F0189830E94CE031B
:1008F00068E089810E944204F1CF0F90DF91CF918F
:100900001F910F91FF90EF9008951F920F920FB6D5
:100910000F9211240F931F932F933F934F935F9345
:100920006F937F938F939F93AF93BF93EF93FF93B7
:10093000CF93DF931F92CDB7DEB719820E94FE03DB
:1009400064E0CE0101960E94D4039981911140C0C8
:1009500090E19A95F1F75A9A529AA2E0AA95F1F786
:1009600000C000913C0110913D01B8E08B9F000D4B
:10097000111D11245A98F8016581662321F08681A2
:1009800097810E9462040E94CE03F0E1FA95F1F78C
:100990005A9852985A9A80E18A95F1F7D80112969E
:1009A0006C911297662369F013968D919C91149720
:1009B0000E940604D801ED91FC91811105C082E0EE
:1009C00004C0D801ED91FC9184E080830E94FE0375
:1009D0000F90DF91CF91FF91EF91BF91AF919F91D8
:1009E0008F917F916F915F914F913F912F911F91C7
:1009F0000F910F900FBE0F901F9018950F931F939C
:100A0000CF93DF938C019C0183E0220F331F8A95E3
:100A1000E1F7C0913C01D0913D01C20FD31FF89482
:100A2000529A5A9885E08A95F1F700000E94CE0309
:100A300084E08A95F1F700C064E0802F0E944204B0
:100A400080E18A95F1F752985A9A4A9902C000C0FB
:100A5000FCCF87E090E04A9B0EC0019751F4529A78
:100A60005A9AE881F98181E08083789481E090E06E
:100A70002EC000C0F0CF6D81662381F08E819F81F2
:100A80000E94060481110AC0529A5A9AE881F9819B
:100A900082E08083789482E090E019C00E94FE0397
:100AA00080E28A95F1F75A98529A80E18A95F1F797
:100AB0006A81662321F08B819C810E9462040E94DE
:100AC000CE03E881F9811082789480E090E0DF9194
:100AD000CF911F910F910895AFE2B1E041E050E056
:100AE0008D91E82FE295EF70F0E021A18F70BA01AF
:100AF00002C0660F771F8A95E2F7CB01962F90957B
:100B0000922391A392A1892B82A371E0A433B7070A
:100B100039F7089508950C948A058091F701836050
:100B200088608093F7010E946C05A8E2B1E041E083
:100B300050E08D91E82FE295EF70F0E021A18F70E9
:100B4000BA0102C0660F771F8A95E2F7CB01962F94
:100B50009095922391A392A1892B82A371E0AF3249
:100B6000B70739F7559A209A5D9A289AAEE3B1E013
:100B7000E8E4F1E08AE08E0F11921D928E13FCCF13
:100B80000E941807809352010C94C3089F92AF9261
:100B9000BF92CF92DF92EF92FF920F931F93CF936A
:100BA000DF9380910101811103C005E010E002C0D4
:100BB00000E010E0A801425C5E4F7A01EA018FE29A
:100BC000C82E81E0D82EAA24A394B12C25E0922E21
:100BD00084E3C81681E0D80609F448C0F601819183
:100BE0006F01E82FE295EF70F0E021A18F70A50171
:100BF00002C0440F551F8A95E2F7CA01922F982B25
:100C000091A392A18095892382A350EA5A95F1F786
:100C1000E8E2F1E020E040E050E03191A32FA2951E
:100C2000AF70B0E090968C9190E03F7002C09595C7
:100C300087953A95E2F780FD07C0C501042E01C0F3
:100C4000880F0A94EAF702C080E090E0282B4F5FFB
:100C50005F4F4730510509F78881821719F02883C3
:100C6000909200010E946C052196B2CF8091000104
:100C70008823E1F0815080930001882339F0EFE967
:100C8000FFE03197F1F700C0000010C080E090E075
:100C9000FC01E00FF11FE85BFE4FD701A80FB91F61
:100CA0002C91208301968530910591F781E0DF91A9
:100CB000CF911F910F91FF90EF90DF90CF90BF9059
:100CC000AF909F900895CF93DF9320910101211160
:100CD00003C0C0E0D0E002C0C5E0D0E00E943E0703
:100CE000009721F0029781F428980EC0289ADE011F
:100CF000A85BBE4F85E0EEE5F1E001900D928A958C
:100D0000E1F780E090E002C081E090E0DF91CF91D8
:100D100008950E94C60580910101811103C045E03C
:100D200050E002C040E050E080E090E020E0DC01D4
:100D3000A25ABE4F6C91FC01E40FF51FE85BFE4F19
:100D40003081631321E03C9301968530910579F75A
:100D500080915601280F209356010895CF93DF9379
:100D600080915201882309F442C00E94C6058091F7
:100D70000101811103C0C5E0D0E002C0C0E0D0E0B5
:100D8000C85BDE4F45E050E0BE0189E591E00E947E
:100D90007D1F25E0FE01A9E5B1E001900D922A95A5
:100DA000E1F70E946306892BF1F05D988091530171
:100DB0008F5F80935301863070F180910101811122
:100DC00003C020E030E002C025E030E080E090E0A9
:100DD000FC01E20FF31FE85BFE4F108201968530A5
:100DE0009105B1F718C05D9A1092530114C00E948A
:100DF000890680910101811103C0A0E0B0E002C02A
:100E0000A5E0B0E0A85BBE4F85E0E9E5F1E0019028
:100E10000D928A95E1F70E94C50881E0DF91CF919C
:100E20000895E82FF0E0E85BFE4F80810895089573
:100E3000E8EDF0E08081806180838AE18A95F1F7B6
:100E400000C08091D900817008950E941807809396
:100E500001010E941807882319F00E94360702C07A
:100E60000E943A07789408950C94250782E091E057
:100E70000C942E0482E091E00C943504CF93DF9320
:100E8000EC0190911A0180915601981751F082E07F
:100E900090E00E94FE04892B21F4809156018093FA
:100EA0001A01CD2B49F48091540190915501892B61
:100EB00019F480E090E002C081E090E00E94FE041E
:100EC00021E030E0009711F420E030E0309355014C
:100ED00020935401DF91CF9108950C946208CF9331
:100EE000DF93EC010E945717BE0180E090E0DF9194
:100EF000CF910C94C314CF92DF92EF92FF920F9395
:100F00001F9301E010E020E030E06801790104C0A7
:100F1000CC0CDD1CEE1CFF1C8A95D2F704C0000F20
:100F2000111F221F331F6A95D2F70C291D292E2964
:100F30003F29C090E201D090E301E090E401F090FD
:100F4000E501C022D122E222F322842FC016D1066D
:100F5000E206F30641F41F910F91FF90EF90DF90AE
:100F6000CF900C9424151F910F91FF90EF90DF907C
:100F7000CF900C944515CF93FB018E3D2CE5920745
:100F8000D9F190F48B3D2CE59207F9F028F4813CDF
:100F90009C4509F493C017C08C3D2CE59207E1F005
:100FA0008D3D9C4511F10FC0803E2CE5920709F460
:100FB00053C0A0F1823E2CE5920709F457C0833E4E
:100FC0009C4509F464C0C1E07AC0C281CC2309F415
:100FD00076C081E090E006C0C281CC2309F46FC0E6
:100FE00082E090E00E946F0769C0C281CC2309F4BF
:100FF00066C084E090E0F6CFC281CC2349F08091B6
:101000006301811103C081E08093630183E011C01B
:101010001092630183E00E94451518C0C281CC2361
:1010200081F080916301811103C081E080936301AD
:1010300084E00E94241545E064E083E00E947B0781
:101040003DC084E00E9445151092630145E064E0D4
:1010500083E00E947B0733C0C28185E0CC2319F076
:101060000E9424152BC00E94451529C0C281CC23A3
:1010700061F08091180282FBCC27C0F982FD02C08A
:1010800081E910C080E591E012C081E914C0C281FD
:10109000CC2381F08091180282FBCC27C0F982FD1D
:1010A00004C080E90E94E30D0AC08AE491E00E9436
:1010B000C00804C080E90E94860E01C0C0E08C2FE9
:1010C000CF910895089581E008950C94BB07CF93C4
:1010D000282F30E0F901E256FB4FC491F901E25E9E
:1010E000FA4F2491222359F081EE0E94E30D8C2FB8
:1010F0000E94E30D8C2F0E94860E81EE04C08C2F7F
:101100000E94E30D8C2FCF910C94860E0F931F93AA
:10111000CF93DF93EC01062FFE018491882359F1D0
:101120009E012F5F3F4F813041F4E901F901149195
:10113000812F0E94E30D812F0DC0823031F4E9012F
:10114000F90184910E94E30D0AC0833031F4E90172
:10115000F90184910E94860E02C00E9467082196C0
:10116000802F8823C9F2EFE9FFE03197F1F700C043
:1011700000008150F6CFDF91CF911F910F9108951C
:1011800060E00C9486080C946D070C948B05089510
:101190000C94C7080C94C80808950E9405110E9479
:1011A000CC082FEF84E39CE0215080409040E1F791
:1011B00000C0000087E797E790930108809300083C
:1011C0000C948618FF920F931F93CF93DF938C019B
:1011D000FC01C081D18180917C01811113C0828189
:1011E000882349F0CE010E941D16F82E682FCE01EB
:1011F0000E94C21504C0CE010E94F115F82EBE0156
:101200008F2D04C0CE010E941D16BE010E94540AFB
:10121000EC01B8010E946508882309F43AC1C6317F
:10122000FCE5DF0709F401C170F4C130ECE5DE072D
:1012300051F120F4C115DC45F1F01EC1C531ECE5DA
:10124000DE07E0F119C1C63DFCE5DF0709F4D2C0B5
:1012500050F4C43DECE5DE0709F482C0C53DDC4531
:1012600009F4A1C009C1C93D8CE5D807B9F0CA3D50
:10127000DC45D9F001C1F8018281882309F409C154
:101280000E94CD0806C1F8018281882309F401C1BA
:101290008091F70181608093F701FBC0F8018281A2
:1012A000882309F4F6C080E006C0F8018281882313
:1012B00009F4EFC082E00E94AE1AEBC0F80182810F
:1012C000882309F4DEC00E944417811102C00E94E5
:1012D0002A170E945C1790E09093190280931802DD
:1012E000FE01E350FC45E231F10530F4EA5AFF4FCC
:1012F000809118020C94771F80911802816027C09A
:10130000826025C0846023C0806121C080621FC0CC
:1013100080641DC080681BC08460886018C08E7F98
:1013200016C08D7F14C08B7F12C08F7E10C08F7D42
:101330000EC08F7B0CC08F770AC08B7F877F07C062
:1013400087FB222720F991E0922790FB87F9809371
:101350001802809118020E9460170E94051199C01E
:10136000F8018281882351F0109269010E942A18A5
:10137000909366018093650182E022C080916901AB
:1013800081110FC080916501909166010E9436180D
:101390008436910530F486E20E94E30D86E20E94D5
:1013A000860E82E024C0F8018281882361F01092C9
:1013B0006A010E942A18909368018093670180E275
:1013C0000E94B20E66C080916A0181110FC08091A7
:1013D0006701909168010E9436188436910530F4B7
:1013E00087E20E94E30D87E20E94860E80E20E945F
:1013F000B90E4FC0F80182818111D9CF80916A0165
:101400008111F4CF80916701909168010E94361894
:101410008436910558F780E20E94B90E88E20E9456
:10142000E30D88E20E94860E34C00E94EE16282F3B
:10143000F801828140911B0150911C01882379F0B1
:101440002A7A91E009F490E090936401911102C02E
:1014500069E201C065E3CA010E9498170AC0809141
:101460006401811102C069E201C065E3CA010E9402
:101470009A170E94BB160DC081E08093690180938A
:101480006A01C801DF91CF911F910F91FF900C94D9
:10149000630880E0DF91CF911F910F91FF90089535
:1014A00080E090E00895089597E0799FF00111247D
:1014B00096E4899FE00DF11D1124E60FF11DEE0F5A
:1014C000FF1FEA5AFE4F859194910895880F991F46
:1014D000FC01E256FA4F859194910895CF93DF93E2
:1014E0000E94540A0E94110CEC01811520E592071C
:1014F000F0F5811530E4930708F018C1883E910596
:1015000000F5803E910508F088C1883A910570F495
:10151000853A910508F09AC08130910509F47DC1A2
:1015200008F434C1049708F078C130C18D3B9105AF
:1015300008F497C0803C910508F428C1805C9109AB
:10154000E7C08115904258F4C11581E0D80708F032
:1015500064C1C03FD10508F419C1D0655EC1C11591
:1015600090E3D90708F0D8C0CE019F70D1C0811593
:1015700025E5920708F043C0811534E5930708F08C
:10158000ECC0811542E5940708F5C11581E5D8073F
:1015900008F0CFC02C2F237081E090E002C0880FAC
:1015A000991F2A95E2F79C689E0174E0369527956D
:1015B0007A95E1F72370922BCF70C695C69530E2ED
:1015C000C39FE0011124C82BD92B27C1869586958E
:1015D0009E0123703327C115D34508F0AFC040E208
:1015E000849FC0011124C1E0D0E002C0CC0FDD1FF8
:1015F0002A95E2F78C2B9D2BEC01DC680EC181153E
:1016000029E5920778F4811538E5930708F0AAC018
:101610008115964508F0BAC0CF71DD27DC2FCC27A5
:10162000D062FBC0C1158AE5D80708F4A0C0CE017E
:1016300090568115904208F0A9C08D2F8F710E949D
:101640008E0CDD27D0628F71D82BE7C0853A9105CB
:1016500009F49FC0863A910509F09EC0C2E8D0E423
:10166000DCC0883A910509F49AC0893A910509F4D9
:1016700099C08A3A910509F498C08B3A910509F40A
:1016800097C08C3A910509F496C08B3B910509F4FB
:1016900095C08C3B910509F494C08D3A910509F4ED
:1016A00093C0803B910509F492C08E3A910509F4EC
:1016B00091C08F3A910509F490C0813B910509F4DE
:1016C0008FC0823B910509F48EC0833B910509F4DC
:1016D0008DC0843B910509F48CC0853B910509F4CC
:1016E0008BC0863B910509F48AC0873B910509F4BC
:1016F00089C0883B910509F488C0893B910509F4AC
:1017000087C08A3B910509F486C0C0E0D4E485C057
:101710000E94660AEC0181C0CE019927D3FF03C065
:10172000EC01D86C7AC0EC01D06C77C0DF70D06A65
:1017300074C0DC2FCC27C16FD06A6FC040E2849F99
:10174000C0011124C1E0D0E002C0CC0FDD1F2A95FA
:10175000E2F7C82BD92BDA6860C0D82FCC27C46F2A
:10176000D06A5BC0D82FCC27C06FD06A56C08C2FF0
:101770008F70806E90E0906A24E0D695C7952A9588
:10178000E1F7CF709C013C2BE90147C0C0E0D0E0FD
:1017900044C0C1E8D0E441C0C3E8D0E43EC0C2EEDA
:1017A000D4E43BC0C9EED4E438C0CAEED4E435C0BA
:1017B000C5EBD4E432C0C6EBD4E42FC0C3EBD4E411
:1017C0002CC0C4EBD4E429C0C7EBD4E426C0CCECD5
:1017D000D4E423C0CDECD4E420C0C3E8D5E41DC0DC
:1017E000CAE8D5E41AC0C2E9D5E417C0C4E9D5E413
:1017F00014C0C1E2D6E411C0C3E2D6E40EC0C4E214
:10180000D6E40BC0C5E2D6E408C0C6E2D6E405C003
:10181000C7E2D6E402C0CAE2D6E4CE01DF91CF919E
:1018200008958238910549F1B0F48133910509F4A6
:1018300058C048F48932910509F44EC08A329105A6
:1018400009F454C008958533910509F440C08933E3
:10185000910599F00895833E910529F138F4803E71
:10186000910591F0823E9105A1F00895863E910583
:10187000F9F0873E910531F108952091180220FD7D
:101880003AC021FD38C008958091180280FD35C00E
:1018900032C08091180282FF32C08091180284FD0C
:1018A00030C083EE39C08091180282FD28C0F5CF88
:1018B0008091180283FF27C08091180284FD21C007
:1018C00087EE2AC08091180283FD1DC0F5CF80915C
:1018D000180285FD1AC01BC08091180285FD17C033
:1018E00014C08091180286FD14C015C080911802A2
:1018F00086FD11C00EC080EE0FC089E30DC082EEE0
:101900000BC080E009C086EE07C089E205C085E310
:1019100003C08AE201C081E390E00895909118022B
:1019200092FF0DC0282F2871283019F4877F84601A
:1019300006C0282F2471243011F48B7F886093FF18
:101940000DC0282F2871283119F4877E846106C0C4
:10195000282F2471243111F48B7E886194FD877EB9
:1019600008959093700180936F010895E0916F0145
:10197000F0917001309721F00190F081E02D0994F1
:1019800080E00895E0916F01F0917001309721F0AF
:101990000280F381E02D0994089520916D0130912A
:1019A0006E018217930771F090936E0180936D0121
:1019B000E0916F01F0917001309721F00680F7817E
:1019C000E02D0994089520916B0130916C018217EC
:1019D000930771F090936C0180936B01E0916F011C
:1019E000F0917001309721F00084F185E02D099489
:1019F00008950C94340781E008950E94211885B75A
:101A0000806885BF85B7806885BF0E948D050C946E
:101A10009718CF92DF92EF92FF920F931F93CF937D
:101A2000DF93CDB7DEB72B970FB6F894DEBF0FBEAE
:101A3000CDBF0E94AE060E94FB0C811111C08FEF3A
:101A400089838A831B820E942A188160782F9D8354
:101A50008C8349815A816B818D810E94AF0D56C064
:101A600082E7C82E81E0D82E00E010E0E02E802F23
:101A70000E941107F60141916F01F42EF82631F40E
:101A80000F5F1F4F0A30110589F7D9CF9091F701E9
:101A900091FF04C08B870E9417078B8520E030E000
:101AA0004F2D50E0922FBA01022E02C07595679516
:101AB0000A94E2F760FF24C02E83EF8221E030E039
:101AC000690102C0CC0CDD1C9A95E2F790E08C21F4
:101AD0009D21892B09F420E028870E942A18816023
:101AE000782F9A8789874E815F8168858A850E94D1
:101AF000AF0DF801EE58FE4F8081C826C08206C0A7
:101B00002F5F3F4F2730310569F6BACF1091710131
:101B10000E94B60C1817A1F00E94B60C80937101B8
:101B20002B960FB6F894DEBF0FBECDBFDF91CF91DD
:101B30001F910F91FF90EF90DF90CF900C94CA0807
:101B40002B960FB6F894DEBF0FBECDBFDF91CF91BD
:101B50001F910F91FF90EF90DF90CF900895CF935A
:101B6000DF93CDB7DEB72B970FB6F894DEBF0FBE6D
:101B7000CDBF4F83588769877A878B87DE0111969F
:101B800086E0FD0111928A95E9F785E0FE0137961E
:101B900001900D928A95E1F749815A816B817C8190
:101BA0008D819E810E9494132B960FB6F894DEBF10
:101BB0000FBECDBFDF91CF910895FC01808191814F
:101BC0000E945C160895882309F49FC0682F8CEF4B
:101BD000860F813A38F480911B0190911C010E947C
:101BE00098170CC080E2860F883050F4677081E04F
:101BF00001C0880F6A95EAF70E94F1160C94BB1693
:101C00008BE5860F833070F4653A29F0663A31F03F
:101C100083E890E005C081E890E002C082E890E0AF
:101C20000C94CD0C88E5860F853108F06EC0683ABB
:101C300061F1693A69F16A3A71F16B3A79F16C3A9A
:101C400081F16B3B89F16C3B91F16D3A99F1603B0D
:101C5000A1F16E3AA9F16F3AB1F1613BB9F1623B82
:101C6000C1F1633BC9F1643BD1F1653BD9F1663BFE
:101C7000E1F1673BE9F1683BF1F1693BF9F16A3B5E
:101C800009F43FC080E090E03EC082EE90E03BC0AF
:101C900089EE90E038C08AEE90E035C085EB90E0A8
:101CA00032C086EB90E02FC083EB90E02CC084EB39
:101CB00090E029C087EB90E026C08CEC90E023C038
:101CC0008DEC90E020C083E891E01DC08AE891E0AF
:101CD0001AC082E991E017C084E991E014C081E262
:101CE00092E011C083E292E00EC084E292E00BC069
:101CF00085E292E008C086E292E005C087E292E0C9
:101D000002C08AE292E00C94E30C0895882349F122
:101D1000682F8CEF860F813A38F480911B019091E7
:101D20001C010E949A170CC080E2860F883050F484
:101D3000677081E001C0880F6A95EAF70E94F71684
:101D40000C94BB168BE5860F833020F480E090E086
:101D50000C94CD0C685A653120F480E090E00C942E
:101D6000E30C0895882321F00E94F1160C94BB1611
:101D70000895882321F00E94F7160C94BB1608954D
:101D80004F925F926F927F92BF92CF92DF92EF92CB
:101D9000FF920F931F93CF93DF937C01D62FC72F12
:101DA000FC01158112951F70028101110E940E170E
:101DB0000E94B416882379F0002369F080E28D0F29
:101DC000883048F082E00E949D160E94B41691E08F
:101DD000B82EB92601C0B12CCC2EC2948FE0C822F7
:101DE000D12CF601E859FF4F0C94771F8C2F807F80
:101DF000CF70882311F0C295C07F002399F0CC23C7
:101E000009F46DC180E28D0F883010F0D11104C04B
:101E10008C2F0E94F11603C08C2F0E9401170E9484
:101E2000BB165DC18D2F0E94860ECC2309F47CC1A8
:101E300080E28D0F883010F0D11104C08C2F0E94E9
:101E4000F71603C08C2F0E9407170E94BB166CC1A7
:101E50008C2F807FCF70803211F0C295C07FDD2340
:101E600019F0D130C9F022C0002371F0112341F0E4
:101E7000113031F40E9427178C2B0E94211754C176
:101E80000E9427178C2B1DC0112319F0113009F463
:101E90004BC10E9424171AC0002321F0163008F00D
:101EA00043C10EC0153008F03FC110C0002361F0DF
:101EB000112331F0F701858180FF11C18F70858377
:101EC0008C2F0E94B20E30C111111AC18C2FC6C0C6
:101ED0008C2F837009F050C0011132C18D2F829573
:101EE00086958770880F880F9D2F9F70492E512CE3
:101EF000612C712C082E04C0440C551C661C771CE8
:101F00000A94D2F7D4FF14C00FE010E020E030E0D4
:101F1000B901A80104C0440F551F661F771F8A9599
:101F2000D2F7CB01BA01609570958095909503C06A
:101F300060E070E0CB01C695C695C370D0E0C230BA
:101F4000D10561F0C330D10581F064297529862956
:101F50009729219771F00E94D714F2C0642975293E
:101F6000862997290E94E914EBC00E94D714C30167
:101F7000B2010E94C514E4C0002319F08C2F8170B7
:101F800001C08695882309F4DBC08D2F8295869544
:101F90008770880F880F9D2F9F70492E512C612CC0
:101FA000712C082E04C0440C551C661C771C0A9426
:101FB000D2F7D4FF14C00FE010E020E030E0B90108
:101FC000A80104C0440F551F661F771F8A95D2F7DA
:101FD000CB01BA01609570958095909503C060E043
:101FE00070E0CB01C695C695C3704C2F50E04230CF
:101FF000510569F04330510589F064297529862916
:1020000097294130510571F00E949D1599C06429AE
:102010007529862997290E94AF1592C00E949D15A7
:10202000C301B2010E948B158BC08D2F90E0FC0183
:10203000E05EF109E531F10508F04DC0E858FF4FC9
:102040000C94771FDF708C2F8F71002321F00E947A
:1020500024158D2F36CF0E9445158D2F0E94B90E65
:1020600063C0002341F0153008F05EC08C2F8F71E3
:102070000E946A1559C0163008F056C0F7CF0023E9
:1020800039F08C2F8F710E9424154EC00023C9F3A4
:102090008C2F8F710E94451547C0002329F08C2F8B
:1020A0008F710E940F1540C00E940A153DC0002389
:1020B00049F0CF718C2F0E94241563E08C2F0E9471
:1020C000941632C081E00E949D16123068F182E0C1
:1020D0000E949D1629C0002331F0112391F28D2F0B
:1020E0000E94E30D21C0112399F2D93349F45FEF27
:1020F00067EE73E0515060407040E1F700C00000AF
:102100008D2F0E94860E10C04C2F4F706D2FC7016F
:102110000E94500A0E94381417C04C2F4F706D2F28
:10212000C7010E94530A10C088E0C816D10441F0CC
:102130005CF0EAE0CE1AD108F2E0CF16D10420F428
:102140000E94B60C0E94CA08BB20F1F00E949016B3
:1021500080FD1AC0F70112820E948A160E9424157F
:10216000C7010E94D2100E948A16DF91CF911F9161
:102170000F91FF90EF90DF90CF90BF907F906F9086
:102180005F904F900C944515DF91CF911F910F9167
:10219000FF90EF90DF90CF90BF907F906F905F9017
:1021A0004F9008950F931F93CF93DF93EC01888195
:1021B00099812B813C81232BB9F09F3F11F48F3FF4
:1021C00099F0CE010E94E208882371F0688179813C
:1021D0008A810E9467168C010E94C1150E94C21458
:1021E000B801CE010E94C00EDF91CF911F910F91D7
:1021F00008950E940E170E941E1780911B01909156
:102200001C010E949C170C94BB160E94FE160C9495
:10221000F9100E945C16E92FE295EF70F0E032971A
:10222000EE30F105B0F4E357FF4F0C94771F803F79
:1022300091F018F4803E68F40EC0843F51F40BC056
:10224000803E48F0813F29F406C093FB882780F93F
:10225000089580E0089581E00895CF93DF9300D042
:1022600000D01F92CDB7DEB70F900F900F900F9058
:102270000F90DF91CF910895CF93DF9300D000D0DE
:1022800000D0CDB7DEB726960FB6F894DEBF0FBEEE
:10229000CDBFDF91CF9108951F93CF93DF93C0916E
:1022A0007D0116E080917E01C81799F0D0E01C9F57
:1022B000F0011D9FF00D1124E158FE4F4081518126
:1022C00062817381848195810E943C112196C7703F
:1022D000E9CFDF91CF911F9108954091AF015091C7
:1022E000B0016091B1017091B2018091B301909100
:1022F000B4010C943C118091B40182958F7009F067
:1023000054C08091B101882309F44FC080917D01B0
:10231000A0917E016091AF017091B0014091B20136
:102320005091B301B6E08A1709F43FC090E041151F
:102330005105C1F17F3F11F46F3FA1F1B89FF0014A
:10234000B99FF00D1124E158FE4F218172132AC06C
:102350002081621327C02281211124C0238134816E
:102360002417350710F421503109241B350B24366E
:102370003105C0F42091B4012F7020612093B40185
:1023800026E0289FF001299FF00D1124EC57FE4F05
:1023900080818F70806180838FEA91E00E94D210EB
:1023A0000C944C1101968770BECF0895CF92DF92A6
:1023B000EF92FF920F931F93CF93DF93CDB7DEB7CA
:1023C00062970FB6F894DEBF0FBECDBF7C0185E0EB
:1023D000F701DE011D9601900D928A95E1F7D70174
:1023E0004C9111965C91119712966C9112971396DD
:1023F000CD90DC9014973091AF017091B001809135
:10240000B2019091B301009709F453C17F3F19F4D1
:102410003F3F09F44EC10091B101002309F4CBC044
:102420002091B401C816D90628F0F601E81BF90B73
:10243000CF0104C0809590958C0D9D1D11E08436D0
:10244000910578F010E0207F09F0D2C07C2DD98A68
:10245000C88A89890E942D118FEA91E00E94D210CA
:10246000BDC0822F807F09F046C0751314C034139D
:1024700012C0611110C02F7020612093B4010E941E
:102480006D118FEA91E00E94D2108091B401D701C2
:1024900015968C932EC0CD2819F15F3F11F44F3F54
:1024A000F9F0162F61111CC080917D0120917E01F1
:1024B00036E0821709F466C090E0389FF001399F3A
:1024C000F00D1124E158FE4F7181571306C0708141
:1024D000471303C07281711103C001968770E9CF61
:1024E000162F662309F410C18091B4018160809396
:1024F000B40110E009C1751315C0341313C0611184
:1025000011C08091B401D70115968C93C7010E9428
:10251000D21086E0F701AFEAB1E001900D928A9502
:10252000E1F763C04D875E878D859E856A8B0E942B
:1025300009116A898823D9F16623C9F12091B40170
:10254000822F82958F7090E0029774F08091AF0196
:102550009091B00198878F831986DB86CA862C8775
:10256000CE0107960E94D21086E0F701AFEAB1E0F3
:1025700001900D928A95E1F70E947B110E946D11E6
:1025800011E0C2C04D875E878D859E850E945C16D6
:10259000292F22952F7030E0223031050CF0A8C091
:1025A0009F7009F0A2C0805E883008F4ADC0C701FA
:1025B0000E94D210E5CFC816D90608F453C0F60120
:1025C000E81BF90BCF018436910508F450C010E0E8
:1025D0007C2DD98AC88A89890E942D11EFEAF1E001
:1025E00086E0DF011D928A95E9F70E946D118CC08B
:1025F000751314C0341312C0611110C08091B4015E
:10260000F7018583C7010E94D21086E0EFEAF1E06E
:10261000DF011D928A95E9F7102F76C04D875E87FE
:102620008D859E856A8B0E9409116A89882309F429
:10263000BECF662309F4BBCF2091B401822F8295CF
:102640008F7090E002970CF48FCF8091AF01909142
:10265000B0019A8389831B82DD82CC822E83CE01D6
:10266000019680CF809590958C0D9D1DACCF162F37
:10267000662309F49CCF75130BC0341309C086E0A0
:10268000F701AFEAB1E001900D928A95E1F73CC005
:102690004D875E878D859E850E940911811164CFCB
:1026A0008091B40181608093B401C7010E94D2106F
:1026B0002BC0662309F47BCF4D875E878D859E8571
:1026C0000E940911182F882309F471CF86E0F701C1
:1026D000AFEAB1E001900D928A95E1F78FEA91E0BF
:1026E0000E94DD0D0E947B1180CF81115CCF0CC058
:1026F000243031050CF05BCF9F7009F454CFF70103
:102700009581907F09F04FCF812F62960FB6F89494
:10271000DEBF0FBECDBFDF91CF911F910F91FF9014
:10272000EF90DF90CF9008951F93CF93DF93CDB7B5
:10273000DEB72C970FB6F894DEBF0FBECDBF4F8328
:10274000588769877A878B879C87CE0107960E9476
:10275000D611882369F08F8198852A853B85232BA4
:10276000F1F19F3F09F063C08F3F09F060C037C0AF
:1027700086E0FE013796DE01119601900D928A9552
:10278000E1F76F817885EA85FB85309741F17F3FDE
:1027900011F46F3F21F120917E0130E0C9010196D3
:1027A0008770992740917D0150E08417950709F4BF
:1027B00047C069837A83FD83EC8396E0929FD001C2
:1027C000939FB00D1124A158BE4FFE013196019088
:1027D0000D929A95E1F780937E010E944C1116E0CC
:1027E00080917D0190917E018917C1F1189FC001F0
:1027F000112481589E4F0E94D611882379F1E091CF
:102800007D011E9FF0011124E158FE4F408151814E
:1028100062817381848195810E943C1180917D0148
:1028200090E001968770992780937D01D9CF4F81E1
:10283000588569857A858B859C850E943C11CFCF10
:102840000E94051110927E0110927D01EFEAF1E0E5
:1028500086E0DF011D928A95E9F7C1CF2C960FB66D
:10286000F894DEBF0FBECDBFDF91CF911F910895C9
:10287000EF92FF920F931F93CF93DF938C01892BDD
:1028800009F46CC0F12CEE24E394E8012196F801E0
:102890008491843740F4843008F051C0813081F055
:1028A000823019F15BC0853709F444C0A8F19CE778
:1028B000980F903708F052C08F770E94860E41C063
:1028C0000E5F1F4FFE01C49180E28C0F883048F4E8
:1028D000C7708E2D01C0880FCA95EAF70E941117A4
:1028E00014C08C2F0E94E30D2DC00E5F1F4FFE0100
:1028F000C49180E28C0F883058F4C7708E2D01C0CF
:10290000880FCA95EAF70E9417170E94BB161AC0D3
:102910008C2F0E94860E16C00E5F1F4FFE01C491C1
:10292000CC2381F08FE99FE00197F1F700C0000010
:10293000C150F6CF0E5F1F4FFE01F49003C00E94FE
:10294000E30D8E018F2D882309F49FCFEFE9FFE07F
:102950003197F1F700C000008150F5CFDF91CF91A2
:102960001F910F91FF90EF90089508950E94B51464
:102970006093E6017093E7018093E8019093E90189
:102980000C94F91008950C94B6140F931F930091B2
:10299000E6011091E7012091E8013091E901602BF7
:1029A000712B822B932B1F910F910C94B6140F93C4
:1029B0001F930091E6011091E7012091E801309109
:1029C000E90160237123822393231F910F910C94BB
:1029D000B6140F931F930091E6011091E701209127
:1029E000E8013091E90160277127822793271F9121
:1029F0000F910C94B61408950C94FB140E94FC14CF
:102A00006093E2017093E3018093E4019093E50108
:102A10000C94F91060E070E0CB010C94FE140F935D
:102A20001F9341E050E060E070E08A019B0104C028
:102A3000000F111F221F331F8A95D2F7C901B80159
:102A40001F910F910C94FE140F931F9341E050E0DF
:102A500060E070E004C0440F551F661F771F8A9521
:102A6000D2F78091E2019091E301A091E401B0914D
:102A7000E5018A019B01082B192B2A2B3B2BC9014D
:102A8000B8011F910F910C94FE140F931F9341E016
:102A900050E060E070E004C0440F551F661F771FD0
:102AA0008A95D2F740955095609570958091E20196
:102AB0009091E301A091E401B091E5018A019B01AD
:102AC000082319232A233B23C901B8011F910F9121
:102AD0000C94FE140F931F9341E050E060E070E00F
:102AE00004C0440F551F661F771F8A95D2F7809147
:102AF000E2019091E301A091E401B091E5018A0126
:102B00009B01082719272A273B27C901B8011F91D4
:102B10000F910C94FE140F931F930091E2011091FA
:102B2000E3012091E4013091E501602B712B822BB0
:102B3000932B1F910F910C94FE140F931F930091F0
:102B4000E2011091E3012091E4013091E50160235D
:102B50007123822393231F910F910C94FE140F93E2
:102B60001F930091E2011091E3012091E401309163
:102B7000E50160277127822793271F910F910C94FD
:102B8000FE14089527E0929F800D1124A82FA6958A
:102B9000A695A695877051E001C0550F8A95EAF772
:102BA00085E0A89FD001112420E030E070E0F90119
:102BB000EA0FFB1FEB54FE4F4081CB01022E02C0F7
:102BC000969587950A94E2F78170992781958427D5
:102BD0008523842780832F5F3F4F2530310539F7C8
:102BE000089527E0929F800D1124682F66956695C1
:102BF0006695982F977085E0689FB001112440E09A
:102C000050E080E0FA01E60FF71FEB54FE4F208101
:102C100030E0092E02C0369527950A94E2F721701C
:102C20003327042E01C0220F0A94EAF7822B4F5F4C
:102C30005F4F4530510531F70895CF92DF92EF9203
:102C4000FF920F931F93CF93DF938C01C090E60107
:102C5000D090E701E090E801F090E9018091E20175
:102C60009091E301A091E401B091E501C82AD92A2D
:102C7000EA2AFB2ACFE1D0E0D701C6010C2E04C01E
:102C8000B695A795979587950A94D2F780FF06C0C9
:102C9000B8018C2F0E946E0A019721F4219760F7EA
:102CA00080E001C08C2FDF91CF911F910F91FF9099
:102CB000EF90DF90CF900895CF93DF93EC010E94C7
:102CC0001D16BE010E946E0ADF91CF9108951F93D9
:102CD000CF93DF93EB0190917C01992321F0CB01FD
:102CE0000E945C1613C0882349F0CB010E941D1678
:102CF000182F682FCE010E94C21504C0CB010E947C
:102D0000F115182FBE01812F0E946E0ADF91CF911D
:102D10001F9108958091EA0185958595859508957F
:102D20008091EA018770089598E0899F90011124AD
:102D3000262B2093EA010C9424152091EA0180951A
:102D400082238093EA01982F977069F430E0482F2E
:102D5000082E000C550B2417350729F0859585950D
:102D600085950C94451508959091EA01977081E03E
:102D700009F480E00895E0911B01F0911C0180911D
:102D8000F6018083E0911B01F0911C0190818091FC
:102D9000F501892B8083E0911B01F0911C0190814A
:102DA0008091F401892B80838091EB01882381F04D
:102DB000E0911B01F0911C019081892B808380910F
:102DC0001B0190911C010E94651781111092EB016B
:102DD00080911B0190911C010C94C20C8091F60112
:102DE00008959091F601892B8093F60108958095BE
:102DF0009091F60189238093F60108951092F601CF
:102E000008959091F501892B8093F501089580959F
:102E10009091F50189238093F50108951092F501B1
:102E200008959091F401892B8093F4010895809581
:102E30009091F40189238093F40108951092F40194
:102E400008958093EB0108951092EB01089580910D
:102E5000EB0108956DEE7EEF80E090E00E94AA1FE6
:102E600060E082E090E00E94981F60E083E090E0E4
:102E70000E94981F60E084E090E00E94981F60E04C
:102E800085E090E00C94981F80E090E00E94921FF3
:102E900021E08D3E9E4F09F020E0822F089582E0D0
:102EA00090E00C948A1F83E090E00C948A1F682FB6
:102EB00083E090E00C94981F84E090E00C948A1FCB
:102EC000682F84E090E00C94981FFC0131969C01DF
:102ED000285F3F4F80E0919191118F5FE217F307D8
:102EE000D1F708959C01FC0132969FEF80E041915B
:102EF000461789F09F3F19F4411101C0982F8F5F49
:102F00008630A9F79F3F39F0F901E90FF11D97FDD0
:102F1000FA95628308950895FC01329608962081FF
:102F2000261301C010823196E817F907C1F70895FA
:102F30000C9472170C948C17FC0131960896119220
:102F4000E817F907E1F7089508950C94A4170E9473
:102F5000A51780911E02843049F11092F80120E4F7
:102F600088E190E00FB6F894A895809360000FBEBA
:102F70002093600080E00E94CA080E94A51783B7D2
:102F8000817F846083BF83B7816083BF7894889595
:102F900083B78E7F83BF0FB6F894A89580916000A9
:102FA000886180936000109260000FBE08950895BC
:102FB0000895CF930E94D7170E94AE060E94D8179B
:102FC000C0E08C2F0E941107811104C0CF5FCA306E
:102FD000C1F701C081E0CF91089508950C94ED17D9
:102FE0000E9405110E94B60C0E94CA080C94EE17AC
:102FF0001F920F920FB60F9211248F939F93AF934E
:10300000BF938091F801811113C0809114029091B7
:103010001502A0911602B09117024196A11DB11D93
:103020008093140290931502A0931602B093170296
:10303000BF91AF919F918F910F900FBE0F901F90F6
:10304000189582E084BD93E095BD9AEF97BD80937B
:103050006E0008952FB7F894809114029091150294
:10306000A0911602B09117022FBF0895CF92DF9260
:10307000EF92FF920F931F932FB7F8944091140291
:103080005091150260911602709117022FBF6A01CC
:103090007B01EE24FF248C0120E030E0C016D10635
:1030A000E206F30610F4415051099A01281B390B2E
:1030B000C9011F910F91FF90EF90DF90CF9008957D
:1030C00078941F920F920FB60F9211248F939F93B3
:1030D000AF93BF938091140290911502A0911602B4
:1030E000B09117020196A11DB11D80931402909317
:1030F0001502A0931602B0931702BF91AF919F9152
:103100008F910F900FBE0F901F90189587E797E74C
:1031100090930108809300089AE088E10FB6F89434
:10312000A895809360000FBE90936000FFCF0E942F
:103130004417811102C00E942A170E944F178093E2
:10314000F7010E945C1790E0909319028093180297
:103150000E945317682F70E080E090E00C94C31435
:1031600080910102089508950F931F93CF93DF93E9
:1031700000D01F92CDB7DEB78C010E94BE1A8230FC
:1031800011F0843021F583E089831B830A8381E079
:103190008093E9008FEF9091E800815095FD06C083
:1031A00095ED9A95F1F700008111F5CF8091E80037
:1031B00085FF0DC040E050E063E070E0CE01019675
:1031C0000E94DB1A8091E8008E778093E8000F90D0
:1031D0000F900F90DF91CF911F910F910895CF9392
:1031E000DF9300D01F92CDB7DEB720911E022430AE
:1031F00031F522E02983805891099B838A8381E0FD
:103200008093E9008FEF9091E800815095FD06C012
:1032100095ED9A95F1F700008111F5CF8091E800C6
:1032200085FF0DC040E050E063E070E0CE01019604
:103230000E94DB1A8091E8008E778093E8000F905F
:103240000F900F90DF91CF910895CF93DF93EC0112
:103250000E94BE1A823011F0843039F581E08093EB
:10326000E9009FEF8091E800915085FD06C085ED53
:103270008A95F1F700009111F5CF8091E80085FF64
:1032800014C040E050E068E070E0CE010E94DB1A1C
:103290009091E8009E779093E80098E0FE01A9EFF6
:1032A000B1E001900D929A95E1F7DF91CF910895E9
:1032B00080911D02811109C00E94701C0E94CD1CCA
:1032C0008091E20084608093E200089510921D02D4
:1032D0000895089508950C94F01742E061EC81E0A0
:1032E0000C94EA1B80912002833009F453C030F41F
:1032F000813071F0823009F48CC008958A3009F46D
:1033000078C08B3009F45EC0893009F09AC020C0C3
:1033100080911F02813A09F094C08091E800877F74
:103320008093E8008091230290912402892B21F45C
:1033300068E089EF91E003C060E080E090E070E039
:103340000E94261B8091E8008B778093E800089507
:1033500080911F02813209F074C080912302909104
:103360002402892B09F06DC08091E800877F80934B
:10337000E8008091E80082FD05C080911E02811165
:10338000F8CF5FC08091F100809301028091E80046
:103390008B7753C080911F02813A09F052C080910F
:1033A000230290912402892B09F04BC08091E80000
:1033B000877F8093E8008091E80080FFFCCF8091B8
:1033C000270136C080911F028132D9F580912302F6
:1033D00090912402892BA9F58091E800877F809342
:1033E000E8000E941F1C80912102809327010C9409
:1033F000051180911F02813221F58091E800877FBD
:103400008093E8000E941F1C809122028093020298
:10341000089580911F02813AA1F48091E800877F8E
:103420008093E8008091E80080FFFCCF8091020249
:103430008093F1008091E8008E778093E8000C94EF
:103440001F1C089584B7877F84BF0FB6F894A89592
:1034500080916000886180936000109260000FBED0
:1034600080E880936100109261000E94F90C0E9434
:10347000701C0E94CD1C8091E20084608093E20069
:1034800078940E945C1F0E94FD0C8DE191E00E94E7
:10349000B10C80911E02853069F40E94A7178091BB
:1034A0001C028823B1F30E94D917882391F30E944C
:1034B000C51AEFCF0E94090DECCF0C945F1A292F8B
:1034C000332723303105C1F05CF42130310579F028
:1034D00022303105D1F582E290E026ED35E039C0A9
:1034E0002132310521F12232310541F12EC082E134
:1034F00090E028EF35E02DC099278130910571F0DB
:103500002CF4892B11F5E2EDF5E00DC08230910528
:1035100041F00397D1F4EEE9F5E005C0ECEBF5E0FE
:1035200002C0E4EAF5E0849190E09F0112C0672BAD
:1035300061F489E090E028EE35E00BC0672B29F4B8
:1035400080E490E02AE036E004C080E090E020E0F3
:1035500030E0FA013183208308950895CF93C82F76
:103560000E94AD1AC0930302CF91089580911E026C
:10357000843011F081E0089582E008958091030283
:10358000811102C00C94B61A089580E189BD82E1D0
:1035900089BD09B400FEFDCF8091D8008F7D809356
:1035A000D8008091E00082608093E0008091E0008C
:1035B00081FDFCCF0895CF92DF92EF92FF920F939F
:1035C0001F93CF93DF93EC018B016A010E943E1C95
:1035D000811133C0C114D10439F0F6018081918189
:1035E000081B190BC80FD91FE12CF12C011511056F
:1035F00019F18091E80085FD16C08091E8008E7772
:103600008093E800C114D10449F0F60180819181D2
:10361000E80EF91EF182E08285E00FC00E943E1C98
:10362000882321F30AC089918093F1000150110988
:10363000FFEFEF1AFF0ADACF80E0DF91CF911F9101
:103640000F91FF90EF90DF90CF9008952091250289
:10365000309126022617370748F06115710539F4B5
:103660002091E8002E772093E80001C0B90140E0E6
:1036700061157105A9F120911E02222309F443C0AE
:10368000253009F442C02091E80023FD40C020917C
:10369000E80022FD32C02091E80020FFE9CF4091F0
:1036A000F3002091F20030E0342BFC01CF016115D2
:1036B000710559F02830310540F481918093F10073
:1036C000615071092F5F3F4FF1CF41E02830310544
:1036D00009F040E02091E8002E772093E800C8CF61
:1036E0004111C9CF0AC080911E02882361F0853044
:1036F00061F08091E80083FD0AC08091E80082FFBC
:10370000F2CF80E0089582E0089583E0089581E09B
:10371000089520912502309126022617370748F098
:103720006115710539F42091E8002E772093E800A7
:1037300001C0B901FC0120E06115710591F1809192
:103740001E02882309F440C0853009F43FC08091EF
:10375000E80083FD3DC08091E80082FD2FC080918C
:10376000E80080FFE9CF2091F3008091F20090E023
:10377000922B6115710559F08830910540F4249120
:103780002093F1003196615071090196F2CF21E04A
:10379000089709F020E08091E8008E778093E80098
:1037A000CBCF2111CCCF0AC080911E02882361F0BB
:1037B000853061F08091E80083FD0AC08091E800C7
:1037C00082FFF2CF80E0089582E0089583E00895BB
:1037D00081E00895982F973058F59093E900981755
:1037E00039F07091EC002091ED005091F00003C091
:1037F000242F762F50E021FF19C03091EB003E7F3F
:103800003093EB003091ED003D7F3093ED0030912F
:10381000EB0031603093EB007093EC002093ED00EF
:103820005093F0002091EE0027FF07C09F5FD3CF99
:103830008F708093E90081E0089580E00895809181
:103840001F0287FF11C08091E80082FD05C08091B2
:103850001E028111F8CF11C08091E8008B770BC058
:1038600080911E02882349F08091E80080FFF8CF04
:103870008091E8008E778093E80008952091E4001D
:103880003091E50095E64091EC00842F817040FF77
:1038900022C08091E80080FD1CC080911E02882318
:1038A00091F0853091F08091EB0085FD10C0409142
:1038B000E4005091E5004217530729F39A01915013
:1038C00011F784E0089582E0089583E0089581E08F
:1038D000089580E008954091E80042FFDECF08950A
:1038E0000E94DE1C0E94E61CE0EEF0E08081816018
:1038F0008083E8EDF0E080818F77808319BCA7EDAD
:10390000B0E08C918E7F8C9380818F7E808310922B
:103910001D0208950F931F93CF93DF930E94DE1C27
:103920000E94E61CC8EDD0E088818F77888388816B
:103930008068888388818F7D888319BC10921E02DD
:1039400010921A0210921C0210921B0200EE10E05C
:10395000F80180818B7F808388818160888342E049
:1039600060E080E00E94EA1BE1EEF0E080818E7F63
:103970008083E2EEF0E080818160808380818860D6
:103980008083F80180818E7F808388818061888335
:10399000DF91CF911F910F910895E8EDF0E08081C4
:1039A0008F7E8083E7EDF0E080818160808384E01A
:1039B00082BF81E080931D020C948A1CE8EDF0E048
:1039C00080818E7F80831092E20008951092DA0049
:1039D0001092E10008951F920F920FB60F921124DA
:1039E0002F933F934F935F936F937F938F939F9307
:1039F000AF93BF93EF93FF938091E10082FF0BC0E1
:103A00008091E20082FF07C08091E1008B7F80936C
:103A1000E1000E945B1F8091DA0080FF1FC080914F
:103A2000D80080FF1BC08091DA008E7F8093DA007F
:103A30008091D90080FF0DC080E189BD82E189BD00
:103A400009B400FEFDCF81E080931E020E94581948
:103A500005C019BC10921E020E9466198091E100F7
:103A600080FF19C08091E20080FF15C08091E200C4
:103A70008E7F8093E2008091E20080618093E2007B
:103A80008091D80080628093D80019BC85E0809333
:103A90001E020E946A198091E10084FF30C080916B
:103AA000E20084FF2CC080E189BD82E189BD09B4B8
:103AB00000FEFDCF8091D8008F7D8093D80080914B
:103AC000E1008F7E8093E1008091E2008F7E809301
:103AD000E2008091E20081608093E20080911A020E
:103AE000882311F084E007C08091E30087FD02C0C5
:103AF00081E001C083E080931E020E946B198091D7
:103B0000E10083FF29C08091E20083FF25C08091FE
:103B1000E100877F8093E10082E080931E02109293
:103B20001A028091E1008E7F8093E1008091E20093
:103B30008E7F8093E2008091E20080618093E200BA
:103B400042E060E080E00E94EA1B8091F000886023
:103B50008093F0000E946919FF91EF91BF91AF919E
:103B60009F918F917F916F915F914F913F912F9195
:103B70000F900FBE0F901F9018951F920F920FB6C7
:103B80000F9211242F933F934F935F936F937F93E3
:103B90008F939F93AF93BF93CF93DF93EF93FF9355
:103BA000C091E900CF708091EC00D82FD17080FDDA
:103BB000D0E81092E9008091F000877F8093F000B8
:103BC00078940E94011E1092E9008091F0008860B4
:103BD0008093F000CD2BCF70C093E900FF91EF915F
:103BE000DF91CF91BF91AF919F918F917F916F9115
:103BF0005F914F913F912F910F900FBE0F901F90AB
:103C000018951F93CF93DF93CDB7DEB7AA970FB662
:103C1000F894DEBF0FBECDBFEFE1F2E088E08E0F7B
:103C20009091F10091938E13FBCF0E9472198091B5
:103C3000E80083FF28C180911F0290912002492F44
:103C400050E04A30510508F01EC1FA01E556FF4F19
:103C50000C94771F803821F0823809F014C108C015
:103C600080911B0290911C02992389F082600FC001
:103C7000809123028F70873008F005C18093E9009E
:103C80008091EB0085FB882780F91092E9009091E4
:103C9000E800977F9093E8008093F1001092F10084
:103CA000D0C0282F2D7F09F0EEC0882319F0823074
:103CB00061F0E9C080912102813009F0E4C09330C5
:103CC00009F080E080931C022EC0809121028111B6
:103CD0002AC0809123028F702FEF280F263008F022
:103CE000D2C08093E9002091EB0020FF1CC09330EC
:103CF00021F48091EB00806214C09091EB00906100
:103D00009093EB0021E030E0A90102C0440F551F61
:103D10008A95E2F74093EA001092EA008091EB0066
:103D200088608093EB001092E9008091E800877F23
:103D30008093E8000E941F1CA6C08111A4C01091AE
:103D400021021F778091E3008078812B8093E3002C
:103D50008091E800877F8093E8000E941F1C80917B
:103D6000E80080FFFCCF8091E30080688093E3004F
:103D7000111102C082E001C083E080931E0283C063
:103D80008058823008F07FC08091210290912202F9
:103D90008C3D53E0950779F583E08A838AE2898335
:103DA0004FB7F894DE01139620E03EE051E2E32F96
:103DB000F0E050935700E49120FF03C0E295EF70CC
:103DC0003F5FEF708E2F90E0EA3010F0C79601C091
:103DD000C0968D939D932F5F243149F74FBF8091FB
:103DE000E800877F8093E8006AE270E0CE010196E8
:103DF0000E94261B15C06091230270912402AE011F
:103E00004F5F5F4F0E945D1ABC01892BE1F19091D9
:103E1000E800977F9093E80089819A810E94891B2E
:103E20008091E8008B778093E8002DC0803859F5A9
:103E30008091E800877F8093E80080911A02809348
:103E4000F1008091E8008E7773CF81111CC09091B2
:103E500021029230C0F48091E800877F8093E800CF
:103E600090931A020E941F1C80911A02811106C0B1
:103E70008091E30087FD02C081E001C084E080936F
:103E80001E020E946D198091E80083FF0AC0809194
:103E9000E800877F8093E8008091EB008062809348
:103EA000EB00AA960FB6F894DEBF0FBECDBFDF9130
:103EB000CF911F9108950895CF9380911E0288237A
:103EC000A1F0C091E900CF709091EC00892F817032
:103ED00090FD80E8C82B1092E9008091E80083FDF6
:103EE0000E94011ECF70C093E900CF910895EE0F9C
:103EF000FF1F0590F491E02D0994FB01DC0104C043
:103F00008D910190801921F441505040C8F7881BD1
:103F1000990B0895F999FECF92BD81BDF89A992722
:103F200080B50895A8E1B0E042E050E00C94B21FE3
:103F3000262FF999FECF92BD81BDF89A019700B462
:103F4000021639F01FBA20BD0FB6F894FA9AF99A02
:103F50000FBE08950196272F0E94991F0C94981F59
:103F6000DC01CB01FC01F999FECF06C0F2BDE1BD39
:103F7000F89A319600B40D9241505040B8F7089528
:043F8000F894FFCFE3
:103F840005015801000000015601580105590101BD
:103F940056015701000000055E01FFEC01B0182531
:103FA40019B318EF18B41801F4F5F6F73133329455
:0A3FB4006697C6340000000000000C
:00000001FF
